{
  "transactions": [
    {
      "hash": "0x310bbce0a575b2a9adcf321535568283a49d155a1acbf22746fa825d279dd8e4",
      "transactionType": "CALL",
      "contractName": null,
      "contractAddress": "0x2809443f5ec9d648e9127fe7ffe7ea28c402d3b8",
      "function": "setPeer(uint32,bytes32)",
      "arguments": [
        "40267",
        "0x0000000000000000000000002809443f5ec9d648e9127fe7ffe7ea28c402d3b8"
      ],
      "transaction": {
        "from": "0x5f5c3548f96c7da33a18e5f2f2f13519e1c8bd0d",
        "to": "0x2809443f5ec9d648e9127fe7ffe7ea28c402d3b8",
        "gas": "0x110b7",
        "value": "0x0",
        "input": "0x3400288b0000000000000000000000000000000000000000000000000000000000009d4b0000000000000000000000002809443f5ec9d648e9127fe7ffe7ea28c402d3b8",
        "nonce": "0x12c",
        "chainId": "0x14a34"
      },
      "additionalContracts": [],
      "isFixedGasLimit": false
    },
    {
      "hash": "0x951ab4d821b771fd5c0d947491e28833f09b281db892884f20ef6620bb4c2504",
      "transactionType": "CALL",
      "contractName": null,
      "contractAddress": "0x2809443f5ec9d648e9127fe7ffe7ea28c402d3b8",
      "function": "setPeer(uint32,bytes32)",
      "arguments": [
        "40245",
        "0x0000000000000000000000002809443f5ec9d648e9127fe7ffe7ea28c402d3b8"
      ],
      "transaction": {
        "from": "0x5f5c3548f96c7da33a18e5f2f2f13519e1c8bd0d",
        "to": "0x2809443f5ec9d648e9127fe7ffe7ea28c402d3b8",
        "gas": "0x110b7",
        "value": "0x0",
        "input": "0x3400288b0000000000000000000000000000000000000000000000000000000000009d350000000000000000000000002809443f5ec9d648e9127fe7ffe7ea28c402d3b8",
        "nonce": "0x12d",
        "chainId": "0x14a34"
      },
      "additionalContracts": [],
      "isFixedGasLimit": false
    },
    {
      "hash": "0xc5563f7d42e4a139c8dd0ccb28af22fa04846f03caec9a6d66c05a8313b3060a",
      "transactionType": "CALL",
      "contractName": null,
      "contractAddress": "0x2809443f5ec9d648e9127fe7ffe7ea28c402d3b8",
      "function": "setPeer(uint32,bytes32)",
      "arguments": [
        "40102",
        "0x0000000000000000000000002809443f5ec9d648e9127fe7ffe7ea28c402d3b8"
      ],
      "transaction": {
        "from": "0x5f5c3548f96c7da33a18e5f2f2f13519e1c8bd0d",
        "to": "0x2809443f5ec9d648e9127fe7ffe7ea28c402d3b8",
        "gas": "0x110b7",
        "value": "0x0",
        "input": "0x3400288b0000000000000000000000000000000000000000000000000000000000009ca60000000000000000000000002809443f5ec9d648e9127fe7ffe7ea28c402d3b8",
        "nonce": "0x12e",
        "chainId": "0x14a34"
      },
      "additionalContracts": [],
      "isFixedGasLimit": false
    },
    {
      "hash": "0x4cd5351fa2d054c3235616f406fd79c1a2e211c725e2ed6be6bf033b26d0d4c4",
      "transactionType": "CALL",
      "contractName": null,
      "contractAddress": "0x2809443f5ec9d648e9127fe7ffe7ea28c402d3b8",
      "function": "setPeer(uint32,bytes32)",
      "arguments": [
        "40231",
        "0x0000000000000000000000002809443f5ec9d648e9127fe7ffe7ea28c402d3b8"
      ],
      "transaction": {
        "from": "0x5f5c3548f96c7da33a18e5f2f2f13519e1c8bd0d",
        "to": "0x2809443f5ec9d648e9127fe7ffe7ea28c402d3b8",
        "gas": "0x110b7",
        "value": "0x0",
        "input": "0x3400288b0000000000000000000000000000000000000000000000000000000000009d270000000000000000000000002809443f5ec9d648e9127fe7ffe7ea28c402d3b8",
        "nonce": "0x12f",
        "chainId": "0x14a34"
      },
      "additionalContracts": [],
      "isFixedGasLimit": false
    },
    {
      "hash": "0x4ae11b1620d8dab9d29f478a9a076524424c286e7a7b14498887731db817ff48",
      "transactionType": "CALL",
      "contractName": null,
      "contractAddress": "0x2809443f5ec9d648e9127fe7ffe7ea28c402d3b8",
      "function": "setPeer(uint32,bytes32)",
      "arguments": [
        "40161",
        "0x0000000000000000000000002809443f5ec9d648e9127fe7ffe7ea28c402d3b8"
      ],
      "transaction": {
        "from": "0x5f5c3548f96c7da33a18e5f2f2f13519e1c8bd0d",
        "to": "0x2809443f5ec9d648e9127fe7ffe7ea28c402d3b8",
        "gas": "0x110b7",
        "value": "0x0",
        "input": "0x3400288b0000000000000000000000000000000000000000000000000000000000009ce10000000000000000000000002809443f5ec9d648e9127fe7ffe7ea28c402d3b8",
        "nonce": "0x130",
        "chainId": "0x14a34"
      },
      "additionalContracts": [],
      "isFixedGasLimit": false
    },
    {
      "hash": "0xdf42d06d0324b62167f4bd09c1cccfd40fda4df7c67e035755a6831bb372e9d5",
      "transactionType": "CALL",
      "contractName": null,
      "contractAddress": "0x2809443f5ec9d648e9127fe7ffe7ea28c402d3b8",
      "function": "setPeer(uint32,bytes32)",
      "arguments": [
        "40245",
        "0x0000000000000000000000002809443f5ec9d648e9127fe7ffe7ea28c402d3b8"
      ],
      "transaction": {
        "from": "0x5f5c3548f96c7da33a18e5f2f2f13519e1c8bd0d",
        "to": "0x2809443f5ec9d648e9127fe7ffe7ea28c402d3b8",
        "gas": "0x9630",
        "value": "0x0",
        "input": "0x3400288b0000000000000000000000000000000000000000000000000000000000009d350000000000000000000000002809443f5ec9d648e9127fe7ffe7ea28c402d3b8",
        "nonce": "0x131",
        "chainId": "0x14a34"
      },
      "additionalContracts": [],
      "isFixedGasLimit": false
    },
    {
      "hash": "0x920aa2780c4d08f9986db43a9342f0dec97ccae833560500d32c1d3dc1f14394",
      "transactionType": "CALL",
      "contractName": null,
      "contractAddress": "0x2809443f5ec9d648e9127fe7ffe7ea28c402d3b8",
      "function": "setPeer(uint32,bytes32)",
      "arguments": [
        "40102",
        "0x0000000000000000000000002809443f5ec9d648e9127fe7ffe7ea28c402d3b8"
      ],
      "transaction": {
        "from": "0x5f5c3548f96c7da33a18e5f2f2f13519e1c8bd0d",
        "to": "0x2809443f5ec9d648e9127fe7ffe7ea28c402d3b8",
        "gas": "0x9630",
        "value": "0x0",
        "input": "0x3400288b0000000000000000000000000000000000000000000000000000000000009ca60000000000000000000000002809443f5ec9d648e9127fe7ffe7ea28c402d3b8",
        "nonce": "0x132",
        "chainId": "0x14a34"
      },
      "additionalContracts": [],
      "isFixedGasLimit": false
    },
    {
      "hash": "0x5b4ea28e290f571bda33ef7d4b5f894a72fbdecc5914d1c18e5bafc1b01daafb",
      "transactionType": "CALL",
      "contractName": null,
      "contractAddress": "0x2809443f5ec9d648e9127fe7ffe7ea28c402d3b8",
      "function": "setPeer(uint32,bytes32)",
      "arguments": [
        "40231",
        "0x0000000000000000000000002809443f5ec9d648e9127fe7ffe7ea28c402d3b8"
      ],
      "transaction": {
        "from": "0x5f5c3548f96c7da33a18e5f2f2f13519e1c8bd0d",
        "to": "0x2809443f5ec9d648e9127fe7ffe7ea28c402d3b8",
        "gas": "0x9630",
        "value": "0x0",
        "input": "0x3400288b0000000000000000000000000000000000000000000000000000000000009d270000000000000000000000002809443f5ec9d648e9127fe7ffe7ea28c402d3b8",
        "nonce": "0x133",
        "chainId": "0x14a34"
      },
      "additionalContracts": [],
      "isFixedGasLimit": false
    },
    {
      "hash": "0x7b94cda318232d2c5db1aeb6aea5c942c3fc58f25fb8c67257083c47abc142bb",
      "transactionType": "CALL",
      "contractName": null,
      "contractAddress": "0x2809443f5ec9d648e9127fe7ffe7ea28c402d3b8",
      "function": "setPeer(uint32,bytes32)",
      "arguments": [
        "40161",
        "0x0000000000000000000000002809443f5ec9d648e9127fe7ffe7ea28c402d3b8"
      ],
      "transaction": {
        "from": "0x5f5c3548f96c7da33a18e5f2f2f13519e1c8bd0d",
        "to": "0x2809443f5ec9d648e9127fe7ffe7ea28c402d3b8",
        "gas": "0x9630",
        "value": "0x0",
        "input": "0x3400288b0000000000000000000000000000000000000000000000000000000000009ce10000000000000000000000002809443f5ec9d648e9127fe7ffe7ea28c402d3b8",
        "nonce": "0x134",
        "chainId": "0x14a34"
      },
      "additionalContracts": [],
      "isFixedGasLimit": false
    },
    {
      "hash": "0x64890b12a7c63e9ca296390f3778169ea002f7999f9171e6397081abd31a0ef1",
      "transactionType": "CALL",
      "contractName": null,
      "contractAddress": "0x2809443f5ec9d648e9127fe7ffe7ea28c402d3b8",
      "function": "setPeer(uint32,bytes32)",
      "arguments": [
        "40267",
        "0x0000000000000000000000002809443f5ec9d648e9127fe7ffe7ea28c402d3b8"
      ],
      "transaction": {
        "from": "0x5f5c3548f96c7da33a18e5f2f2f13519e1c8bd0d",
        "to": "0x2809443f5ec9d648e9127fe7ffe7ea28c402d3b8",
        "gas": "0x9630",
        "value": "0x0",
        "input": "0x3400288b0000000000000000000000000000000000000000000000000000000000009d4b0000000000000000000000002809443f5ec9d648e9127fe7ffe7ea28c402d3b8",
        "nonce": "0x135",
        "chainId": "0x14a34"
      },
      "additionalContracts": [],
      "isFixedGasLimit": false
    },
    {
      "hash": "0xd71264d1f2b23d89d9c61f40bda429b7f084199fea03a588a20d43be6faf3992",
      "transactionType": "CALL",
      "contractName": null,
      "contractAddress": "0x2809443f5ec9d648e9127fe7ffe7ea28c402d3b8",
      "function": "setPeer(uint32,bytes32)",
      "arguments": [
        "40102",
        "0x0000000000000000000000002809443f5ec9d648e9127fe7ffe7ea28c402d3b8"
      ],
      "transaction": {
        "from": "0x5f5c3548f96c7da33a18e5f2f2f13519e1c8bd0d",
        "to": "0x2809443f5ec9d648e9127fe7ffe7ea28c402d3b8",
        "gas": "0x9630",
        "value": "0x0",
        "input": "0x3400288b0000000000000000000000000000000000000000000000000000000000009ca60000000000000000000000002809443f5ec9d648e9127fe7ffe7ea28c402d3b8",
        "nonce": "0x136",
        "chainId": "0x14a34"
      },
      "additionalContracts": [],
      "isFixedGasLimit": false
    },
    {
      "hash": "0xf06875d066e5b759c56c9aab3d8d08ffffa2a797595b02ed622b55aa6a61a5e8",
      "transactionType": "CALL",
      "contractName": null,
      "contractAddress": "0x2809443f5ec9d648e9127fe7ffe7ea28c402d3b8",
      "function": "setPeer(uint32,bytes32)",
      "arguments": [
        "40231",
        "0x0000000000000000000000002809443f5ec9d648e9127fe7ffe7ea28c402d3b8"
      ],
      "transaction": {
        "from": "0x5f5c3548f96c7da33a18e5f2f2f13519e1c8bd0d",
        "to": "0x2809443f5ec9d648e9127fe7ffe7ea28c402d3b8",
        "gas": "0x9630",
        "value": "0x0",
        "input": "0x3400288b0000000000000000000000000000000000000000000000000000000000009d270000000000000000000000002809443f5ec9d648e9127fe7ffe7ea28c402d3b8",
        "nonce": "0x137",
        "chainId": "0x14a34"
      },
      "additionalContracts": [],
      "isFixedGasLimit": false
    },
    {
      "hash": "0x227251fb05731cdc1afa017c87b561ab480e60afa4f60a60ea3d14ec8bbc788c",
      "transactionType": "CALL",
      "contractName": null,
      "contractAddress": "0x2809443f5ec9d648e9127fe7ffe7ea28c402d3b8",
      "function": "setPeer(uint32,bytes32)",
      "arguments": [
        "40161",
        "0x0000000000000000000000002809443f5ec9d648e9127fe7ffe7ea28c402d3b8"
      ],
      "transaction": {
        "from": "0x5f5c3548f96c7da33a18e5f2f2f13519e1c8bd0d",
        "to": "0x2809443f5ec9d648e9127fe7ffe7ea28c402d3b8",
        "gas": "0x9630",
        "value": "0x0",
        "input": "0x3400288b0000000000000000000000000000000000000000000000000000000000009ce10000000000000000000000002809443f5ec9d648e9127fe7ffe7ea28c402d3b8",
        "nonce": "0x138",
        "chainId": "0x14a34"
      },
      "additionalContracts": [],
      "isFixedGasLimit": false
    },
    {
      "hash": "0x5532e97482f148b0194badb9c537bbbcf14c40b59e54884574965418c9addead",
      "transactionType": "CALL",
      "contractName": null,
      "contractAddress": "0x2809443f5ec9d648e9127fe7ffe7ea28c402d3b8",
      "function": "setPeer(uint32,bytes32)",
      "arguments": [
        "40267",
        "0x0000000000000000000000002809443f5ec9d648e9127fe7ffe7ea28c402d3b8"
      ],
      "transaction": {
        "from": "0x5f5c3548f96c7da33a18e5f2f2f13519e1c8bd0d",
        "to": "0x2809443f5ec9d648e9127fe7ffe7ea28c402d3b8",
        "gas": "0x9630",
        "value": "0x0",
        "input": "0x3400288b0000000000000000000000000000000000000000000000000000000000009d4b0000000000000000000000002809443f5ec9d648e9127fe7ffe7ea28c402d3b8",
        "nonce": "0x139",
        "chainId": "0x14a34"
      },
      "additionalContracts": [],
      "isFixedGasLimit": false
    },
    {
      "hash": "0x845973a651f46883f9d07571c389852fde4dbf5616f6691a65986e18bf9591aa",
      "transactionType": "CALL",
      "contractName": null,
      "contractAddress": "0x2809443f5ec9d648e9127fe7ffe7ea28c402d3b8",
      "function": "setPeer(uint32,bytes32)",
      "arguments": [
        "40245",
        "0x0000000000000000000000002809443f5ec9d648e9127fe7ffe7ea28c402d3b8"
      ],
      "transaction": {
        "from": "0x5f5c3548f96c7da33a18e5f2f2f13519e1c8bd0d",
        "to": "0x2809443f5ec9d648e9127fe7ffe7ea28c402d3b8",
        "gas": "0x9630",
        "value": "0x0",
        "input": "0x3400288b0000000000000000000000000000000000000000000000000000000000009d350000000000000000000000002809443f5ec9d648e9127fe7ffe7ea28c402d3b8",
        "nonce": "0x13a",
        "chainId": "0x14a34"
      },
      "additionalContracts": [],
      "isFixedGasLimit": false
    },
    {
      "hash": "0x594a992f6ab8c0741781f97deff3e284ac7acada9ae2ffaf2566ec860aebf675",
      "transactionType": "CALL",
      "contractName": null,
      "contractAddress": "0x2809443f5ec9d648e9127fe7ffe7ea28c402d3b8",
      "function": "setPeer(uint32,bytes32)",
      "arguments": [
        "40231",
        "0x0000000000000000000000002809443f5ec9d648e9127fe7ffe7ea28c402d3b8"
      ],
      "transaction": {
        "from": "0x5f5c3548f96c7da33a18e5f2f2f13519e1c8bd0d",
        "to": "0x2809443f5ec9d648e9127fe7ffe7ea28c402d3b8",
        "gas": "0x9630",
        "value": "0x0",
        "input": "0x3400288b0000000000000000000000000000000000000000000000000000000000009d270000000000000000000000002809443f5ec9d648e9127fe7ffe7ea28c402d3b8",
        "nonce": "0x13b",
        "chainId": "0x14a34"
      },
      "additionalContracts": [],
      "isFixedGasLimit": false
    },
    {
      "hash": "0x460d8dea674d366f377d34345e9da82c7eafa0aa55d45e47b2adbc347aeed193",
      "transactionType": "CALL",
      "contractName": null,
      "contractAddress": "0x2809443f5ec9d648e9127fe7ffe7ea28c402d3b8",
      "function": "setPeer(uint32,bytes32)",
      "arguments": [
        "40161",
        "0x0000000000000000000000002809443f5ec9d648e9127fe7ffe7ea28c402d3b8"
      ],
      "transaction": {
        "from": "0x5f5c3548f96c7da33a18e5f2f2f13519e1c8bd0d",
        "to": "0x2809443f5ec9d648e9127fe7ffe7ea28c402d3b8",
        "gas": "0x9630",
        "value": "0x0",
        "input": "0x3400288b0000000000000000000000000000000000000000000000000000000000009ce10000000000000000000000002809443f5ec9d648e9127fe7ffe7ea28c402d3b8",
        "nonce": "0x13c",
        "chainId": "0x14a34"
      },
      "additionalContracts": [],
      "isFixedGasLimit": false
    },
    {
      "hash": "0x4ee22972098677c768b74a92d4eece845084454d72481cbd7965d0982bdd96ce",
      "transactionType": "CALL",
      "contractName": null,
      "contractAddress": "0x2809443f5ec9d648e9127fe7ffe7ea28c402d3b8",
      "function": "setPeer(uint32,bytes32)",
      "arguments": [
        "40267",
        "0x0000000000000000000000002809443f5ec9d648e9127fe7ffe7ea28c402d3b8"
      ],
      "transaction": {
        "from": "0x5f5c3548f96c7da33a18e5f2f2f13519e1c8bd0d",
        "to": "0x2809443f5ec9d648e9127fe7ffe7ea28c402d3b8",
        "gas": "0x9630",
        "value": "0x0",
        "input": "0x3400288b0000000000000000000000000000000000000000000000000000000000009d4b0000000000000000000000002809443f5ec9d648e9127fe7ffe7ea28c402d3b8",
        "nonce": "0x13d",
        "chainId": "0x14a34"
      },
      "additionalContracts": [],
      "isFixedGasLimit": false
    },
    {
      "hash": "0x8c491b77d87cb51b7fb29424cf4808c3cdabc3ce9bcd17d93858faa999e32009",
      "transactionType": "CALL",
      "contractName": null,
      "contractAddress": "0x2809443f5ec9d648e9127fe7ffe7ea28c402d3b8",
      "function": "setPeer(uint32,bytes32)",
      "arguments": [
        "40245",
        "0x0000000000000000000000002809443f5ec9d648e9127fe7ffe7ea28c402d3b8"
      ],
      "transaction": {
        "from": "0x5f5c3548f96c7da33a18e5f2f2f13519e1c8bd0d",
        "to": "0x2809443f5ec9d648e9127fe7ffe7ea28c402d3b8",
        "gas": "0x9630",
        "value": "0x0",
        "input": "0x3400288b0000000000000000000000000000000000000000000000000000000000009d350000000000000000000000002809443f5ec9d648e9127fe7ffe7ea28c402d3b8",
        "nonce": "0x13e",
        "chainId": "0x14a34"
      },
      "additionalContracts": [],
      "isFixedGasLimit": false
    },
    {
      "hash": "0x36827e7eeaef61b6196e1592e8c11fecaaaac4ab95ee1925a326297674a42b03",
      "transactionType": "CALL",
      "contractName": null,
      "contractAddress": "0x2809443f5ec9d648e9127fe7ffe7ea28c402d3b8",
      "function": "setPeer(uint32,bytes32)",
      "arguments": [
        "40102",
        "0x0000000000000000000000002809443f5ec9d648e9127fe7ffe7ea28c402d3b8"
      ],
      "transaction": {
        "from": "0x5f5c3548f96c7da33a18e5f2f2f13519e1c8bd0d",
        "to": "0x2809443f5ec9d648e9127fe7ffe7ea28c402d3b8",
        "gas": "0x9630",
        "value": "0x0",
        "input": "0x3400288b0000000000000000000000000000000000000000000000000000000000009ca60000000000000000000000002809443f5ec9d648e9127fe7ffe7ea28c402d3b8",
        "nonce": "0x13f",
        "chainId": "0x14a34"
      },
      "additionalContracts": [],
      "isFixedGasLimit": false
    }
  ],
  "receipts": [
    {
      "status": "0x1",
      "cumulativeGasUsed": "0x12b54f8",
      "logs": [
        {
          "address": "0x2809443f5ec9d648e9127fe7ffe7ea28c402d3b8",
          "topics": [
            "0x238399d427b947898edb290f5ff0f9109849b1c3ba196a42e35f00c50a54b98b"
          ],
          "data": "0x0000000000000000000000000000000000000000000000000000000000009d4b0000000000000000000000002809443f5ec9d648e9127fe7ffe7ea28c402d3b8",
          "blockHash": "0xeb71747580676edc0997bf1b686ccaaa7f035a972b1804090d3261e740f9d24f",
          "blockNumber": "0x14c2913",
          "transactionHash": "0x310bbce0a575b2a9adcf321535568283a49d155a1acbf22746fa825d279dd8e4",
          "transactionIndex": "0x2f",
          "logIndex": "0x69",
          "removed": false
        }
      ],
      "logsBloom": "0x00000000000000000000000000400000000000000000000000000000000000000000000000000000000000000000000000000000000000000800000000000000000000000000000000000000000000000000000000000000000000000000000000000000000000000000000000000000000000000000000000000000000000000002000000000000000000000000000000040000000000000000000000000000000000000000000000000000000000000000000000000000000002000000000000000000000000000000000000000000000000000000000000040000000000000000000000000000000000000000000000000000000000000000000000000000",
      "type": "0x2",
      "transactionHash": "0x310bbce0a575b2a9adcf321535568283a49d155a1acbf22746fa825d279dd8e4",
      "transactionIndex": "0x2f",
      "blockHash": "0xeb71747580676edc0997bf1b686ccaaa7f035a972b1804090d3261e740f9d24f",
      "blockNumber": "0x14c2913",
      "gasUsed": "0xba79",
      "effectiveGasPrice": "0xc4ee",
      "from": "0x5f5c3548f96c7da33a18e5f2f2f13519e1c8bd0d",
      "to": "0x2809443f5ec9d648e9127fe7ffe7ea28c402d3b8",
      "contractAddress": null,
      "l1BaseFeeScalar": "0x44d",
      "l1BlobBaseFee": "0x1",
      "l1BlobBaseFeeScalar": "0xa118b",
      "l1Fee": "0xcc6120f5",
      "l1GasPrice": "0x7404e9a4",
      "l1GasUsed": "0x640"
    },
    {
      "status": "0x1",
      "cumulativeGasUsed": "0x139c35f",
      "logs": [
        {
          "address": "0x2809443f5ec9d648e9127fe7ffe7ea28c402d3b8",
          "topics": [
            "0x238399d427b947898edb290f5ff0f9109849b1c3ba196a42e35f00c50a54b98b"
          ],
          "data": "0x0000000000000000000000000000000000000000000000000000000000009d350000000000000000000000002809443f5ec9d648e9127fe7ffe7ea28c402d3b8",
          "blockHash": "0x78c321f416eb41779009bd2811c32da9a53fbff1d4ecc6a4dcb91f7b1e718100",
          "blockNumber": "0x14c2915",
          "transactionHash": "0x951ab4d821b771fd5c0d947491e28833f09b281db892884f20ef6620bb4c2504",
          "transactionIndex": "0x2b",
          "logIndex": "0x6d",
          "removed": false
        }
      ],
      "logsBloom": "0x00000000000000000000000000400000000000000000000000000000000000000000000000000000000000000000000000000000000000000800000000000000000000000000000000000000000000000000000000000000000000000000000000000000000000000000000000000000000000000000000000000000000000000002000000000000000000000000000000040000000000000000000000000000000000000000000000000000000000000000000000000000000002000000000000000000000000000000000000000000000000000000000000040000000000000000000000000000000000000000000000000000000000000000000000000000",
      "type": "0x2",
      "transactionHash": "0x951ab4d821b771fd5c0d947491e28833f09b281db892884f20ef6620bb4c2504",
      "transactionIndex": "0x2b",
      "blockHash": "0x78c321f416eb41779009bd2811c32da9a53fbff1d4ecc6a4dcb91f7b1e718100",
      "blockNumber": "0x14c2915",
      "gasUsed": "0xba79",
      "effectiveGasPrice": "0xc4ef",
      "from": "0x5f5c3548f96c7da33a18e5f2f2f13519e1c8bd0d",
      "to": "0x2809443f5ec9d648e9127fe7ffe7ea28c402d3b8",
      "contractAddress": null,
      "l1BaseFeeScalar": "0x44d",
      "l1BlobBaseFee": "0x1",
      "l1BlobBaseFeeScalar": "0xa118b",
      "l1Fee": "0xcc6120f5",
      "l1GasPrice": "0x7404e9a4",
      "l1GasUsed": "0x640"
    },
    {
      "status": "0x1",
      "cumulativeGasUsed": "0x46fe19",
      "logs": [
        {
          "address": "0x2809443f5ec9d648e9127fe7ffe7ea28c402d3b8",
          "topics": [
            "0x238399d427b947898edb290f5ff0f9109849b1c3ba196a42e35f00c50a54b98b"
          ],
          "data": "0x0000000000000000000000000000000000000000000000000000000000009ca60000000000000000000000002809443f5ec9d648e9127fe7ffe7ea28c402d3b8",
          "blockHash": "0x51f8d00d854e85e4a74114e7ff68ae0f7c0c45cc75f068d5c1f90a81a0a5d755",
          "blockNumber": "0x14c2917",
          "transactionHash": "0xc5563f7d42e4a139c8dd0ccb28af22fa04846f03caec9a6d66c05a8313b3060a",
          "transactionIndex": "0x29",
          "logIndex": "0x61",
          "removed": false
        }
      ],
      "logsBloom": "0x00000000000000000000000000400000000000000000000000000000000000000000000000000000000000000000000000000000000000000800000000000000000000000000000000000000000000000000000000000000000000000000000000000000000000000000000000000000000000000000000000000000000000000002000000000000000000000000000000040000000000000000000000000000000000000000000000000000000000000000000000000000000002000000000000000000000000000000000000000000000000000000000000040000000000000000000000000000000000000000000000000000000000000000000000000000",
      "type": "0x2",
      "transactionHash": "0xc5563f7d42e4a139c8dd0ccb28af22fa04846f03caec9a6d66c05a8313b3060a",
      "transactionIndex": "0x29",
      "blockHash": "0x51f8d00d854e85e4a74114e7ff68ae0f7c0c45cc75f068d5c1f90a81a0a5d755",
      "blockNumber": "0x14c2917",
      "gasUsed": "0xba79",
      "effectiveGasPrice": "0xc4f0",
      "from": "0x5f5c3548f96c7da33a18e5f2f2f13519e1c8bd0d",
      "to": "0x2809443f5ec9d648e9127fe7ffe7ea28c402d3b8",
      "contractAddress": null,
      "l1BaseFeeScalar": "0x44d",
      "l1BlobBaseFee": "0x1",
      "l1BlobBaseFeeScalar": "0xa118b",
      "l1Fee": "0xcc6120f5",
      "l1GasPrice": "0x7404e9a4",
      "l1GasUsed": "0x640"
    },
    {
      "status": "0x1",
      "cumulativeGasUsed": "0x77caea",
      "logs": [
        {
          "address": "0x2809443f5ec9d648e9127fe7ffe7ea28c402d3b8",
          "topics": [
            "0x238399d427b947898edb290f5ff0f9109849b1c3ba196a42e35f00c50a54b98b"
          ],
          "data": "0x0000000000000000000000000000000000000000000000000000000000009d270000000000000000000000002809443f5ec9d648e9127fe7ffe7ea28c402d3b8",
          "blockHash": "0x42373ff4748a453de695494ddeb1dd38fc896db726561e0d3a69b572d7b3ef63",
          "blockNumber": "0x14c2919",
          "transactionHash": "0x4cd5351fa2d054c3235616f406fd79c1a2e211c725e2ed6be6bf033b26d0d4c4",
          "transactionIndex": "0x2f",
          "logIndex": "0x5f",
          "removed": false
        }
      ],
      "logsBloom": "0x00000000000000000000000000400000000000000000000000000000000000000000000000000000000000000000000000000000000000000800000000000000000000000000000000000000000000000000000000000000000000000000000000000000000000000000000000000000000000000000000000000000000000000002000000000000000000000000000000040000000000000000000000000000000000000000000000000000000000000000000000000000000002000000000000000000000000000000000000000000000000000000000000040000000000000000000000000000000000000000000000000000000000000000000000000000",
      "type": "0x2",
      "transactionHash": "0x4cd5351fa2d054c3235616f406fd79c1a2e211c725e2ed6be6bf033b26d0d4c4",
      "transactionIndex": "0x2f",
      "blockHash": "0x42373ff4748a453de695494ddeb1dd38fc896db726561e0d3a69b572d7b3ef63",
      "blockNumber": "0x14c2919",
      "gasUsed": "0xba79",
      "effectiveGasPrice": "0xc4ef",
      "from": "0x5f5c3548f96c7da33a18e5f2f2f13519e1c8bd0d",
      "to": "0x2809443f5ec9d648e9127fe7ffe7ea28c402d3b8",
      "contractAddress": null,
      "l1BaseFeeScalar": "0x44d",
      "l1BlobBaseFee": "0x1",
      "l1BlobBaseFeeScalar": "0xa118b",
      "l1Fee": "0xc109febc",
      "l1GasPrice": "0x6d94e730",
      "l1GasUsed": "0x640"
    },
    {
      "status": "0x1",
      "cumulativeGasUsed": "0x43c780",
      "logs": [
        {
          "address": "0x2809443f5ec9d648e9127fe7ffe7ea28c402d3b8",
          "topics": [
            "0x238399d427b947898edb290f5ff0f9109849b1c3ba196a42e35f00c50a54b98b"
          ],
          "data": "0x0000000000000000000000000000000000000000000000000000000000009ce10000000000000000000000002809443f5ec9d648e9127fe7ffe7ea28c402d3b8",
          "blockHash": "0xf97e3463226cd3e090d027837b45c605d78f822d92f414dab910a792e4501d28",
          "blockNumber": "0x14c291a",
          "transactionHash": "0x4ae11b1620d8dab9d29f478a9a076524424c286e7a7b14498887731db817ff48",
          "transactionIndex": "0x1f",
          "logIndex": "0x54",
          "removed": false
        }
      ],
      "logsBloom": "0x00000000000000000000000000400000000000000000000000000000000000000000000000000000000000000000000000000000000000000800000000000000000000000000000000000000000000000000000000000000000000000000000000000000000000000000000000000000000000000000000000000000000000000002000000000000000000000000000000040000000000000000000000000000000000000000000000000000000000000000000000000000000002000000000000000000000000000000000000000000000000000000000000040000000000000000000000000000000000000000000000000000000000000000000000000000",
      "type": "0x2",
      "transactionHash": "0x4ae11b1620d8dab9d29f478a9a076524424c286e7a7b14498887731db817ff48",
      "transactionIndex": "0x1f",
      "blockHash": "0xf97e3463226cd3e090d027837b45c605d78f822d92f414dab910a792e4501d28",
      "blockNumber": "0x14c291a",
      "gasUsed": "0xba79",
      "effectiveGasPrice": "0xc4ef",
      "from": "0x5f5c3548f96c7da33a18e5f2f2f13519e1c8bd0d",
      "to": "0x2809443f5ec9d648e9127fe7ffe7ea28c402d3b8",
      "contractAddress": null,
      "l1BaseFeeScalar": "0x44d",
      "l1BlobBaseFee": "0x1",
      "l1BlobBaseFeeScalar": "0xa118b",
      "l1Fee": "0xc109febc",
      "l1GasPrice": "0x6d94e730",
      "l1GasUsed": "0x640"
    },
    {
      "status": "0x1",
      "cumulativeGasUsed": "0x5d043e",
      "logs": [
        {
          "address": "0x2809443f5ec9d648e9127fe7ffe7ea28c402d3b8",
          "topics": [
            "0x238399d427b947898edb290f5ff0f9109849b1c3ba196a42e35f00c50a54b98b"
          ],
          "data": "0x0000000000000000000000000000000000000000000000000000000000009d350000000000000000000000002809443f5ec9d648e9127fe7ffe7ea28c402d3b8",
          "blockHash": "0x17a832158576805e7ce62d7b46e472b06795bd450a0480cad12c7d544d95bc15",
          "blockNumber": "0x14c291b",
          "transactionHash": "0xdf42d06d0324b62167f4bd09c1cccfd40fda4df7c67e035755a6831bb372e9d5",
          "transactionIndex": "0x31",
          "logIndex": "0x7c",
          "removed": false
        }
      ],
      "logsBloom": "0x00000000000000000000000000400000000000000000000000000000000000000000000000000000000000000000000000000000000000000800000000000000000000000000000000000000000000000000000000000000000000000000000000000000000000000000000000000000000000000000000000000000000000000002000000000000000000000000000000040000000000000000000000000000000000000000000000000000000000000000000000000000000002000000000000000000000000000000000000000000000000000000000000040000000000000000000000000000000000000000000000000000000000000000000000000000",
      "type": "0x2",
      "transactionHash": "0xdf42d06d0324b62167f4bd09c1cccfd40fda4df7c67e035755a6831bb372e9d5",
      "transactionIndex": "0x31",
      "blockHash": "0x17a832158576805e7ce62d7b46e472b06795bd450a0480cad12c7d544d95bc15",
      "blockNumber": "0x14c291b",
      "gasUsed": "0x6cbd",
      "effectiveGasPrice": "0xc4ef",
      "from": "0x5f5c3548f96c7da33a18e5f2f2f13519e1c8bd0d",
      "to": "0x2809443f5ec9d648e9127fe7ffe7ea28c402d3b8",
      "contractAddress": null,
      "l1BaseFeeScalar": "0x44d",
      "l1BlobBaseFee": "0x1",
      "l1BlobBaseFeeScalar": "0xa118b",
      "l1Fee": "0xc109febc",
      "l1GasPrice": "0x6d94e730",
      "l1GasUsed": "0x640"
    },
    {
      "status": "0x1",
      "cumulativeGasUsed": "0x522846",
      "logs": [
        {
          "address": "0x2809443f5ec9d648e9127fe7ffe7ea28c402d3b8",
          "topics": [
            "0x238399d427b947898edb290f5ff0f9109849b1c3ba196a42e35f00c50a54b98b"
          ],
          "data": "0x0000000000000000000000000000000000000000000000000000000000009ca60000000000000000000000002809443f5ec9d648e9127fe7ffe7ea28c402d3b8",
          "blockHash": "0xa69b79973a638bfbedae4a521353891bb7ce151f48da9403840b46d1e2675e77",
          "blockNumber": "0x14c291c",
          "transactionHash": "0x920aa2780c4d08f9986db43a9342f0dec97ccae833560500d32c1d3dc1f14394",
          "transactionIndex": "0x28",
          "logIndex": "0x6c",
          "removed": false
        }
      ],
      "logsBloom": "0x00000000000000000000000000400000000000000000000000000000000000000000000000000000000000000000000000000000000000000800000000000000000000000000000000000000000000000000000000000000000000000000000000000000000000000000000000000000000000000000000000000000000000000002000000000000000000000000000000040000000000000000000000000000000000000000000000000000000000000000000000000000000002000000000000000000000000000000000000000000000000000000000000040000000000000000000000000000000000000000000000000000000000000000000000000000",
      "type": "0x2",
      "transactionHash": "0x920aa2780c4d08f9986db43a9342f0dec97ccae833560500d32c1d3dc1f14394",
      "transactionIndex": "0x28",
      "blockHash": "0xa69b79973a638bfbedae4a521353891bb7ce151f48da9403840b46d1e2675e77",
      "blockNumber": "0x14c291c",
      "gasUsed": "0x6cbd",
      "effectiveGasPrice": "0xc4ef",
      "from": "0x5f5c3548f96c7da33a18e5f2f2f13519e1c8bd0d",
      "to": "0x2809443f5ec9d648e9127fe7ffe7ea28c402d3b8",
      "contractAddress": null,
      "l1BaseFeeScalar": "0x44d",
      "l1BlobBaseFee": "0x1",
      "l1BlobBaseFeeScalar": "0xa118b",
      "l1Fee": "0xc109febc",
      "l1GasPrice": "0x6d94e730",
      "l1GasUsed": "0x640"
    },
    {
      "status": "0x1",
      "cumulativeGasUsed": "0x162edf6",
      "logs": [
        {
          "address": "0x2809443f5ec9d648e9127fe7ffe7ea28c402d3b8",
          "topics": [
            "0x238399d427b947898edb290f5ff0f9109849b1c3ba196a42e35f00c50a54b98b"
          ],
          "data": "0x0000000000000000000000000000000000000000000000000000000000009d270000000000000000000000002809443f5ec9d648e9127fe7ffe7ea28c402d3b8",
          "blockHash": "0x73385beb71a2fe0ab6ca90e17f92355c4176b2c48c2e749fb1c445a7e1248cb2",
          "blockNumber": "0x14c291d",
          "transactionHash": "0x5b4ea28e290f571bda33ef7d4b5f894a72fbdecc5914d1c18e5bafc1b01daafb",
          "transactionIndex": "0x29",
          "logIndex": "0x60",
          "removed": false
        }
      ],
      "logsBloom": "0x00000000000000000000000000400000000000000000000000000000000000000000000000000000000000000000000000000000000000000800000000000000000000000000000000000000000000000000000000000000000000000000000000000000000000000000000000000000000000000000000000000000000000000002000000000000000000000000000000040000000000000000000000000000000000000000000000000000000000000000000000000000000002000000000000000000000000000000000000000000000000000000000000040000000000000000000000000000000000000000000000000000000000000000000000000000",
      "type": "0x2",
      "transactionHash": "0x5b4ea28e290f571bda33ef7d4b5f894a72fbdecc5914d1c18e5bafc1b01daafb",
      "transactionIndex": "0x29",
      "blockHash": "0x73385beb71a2fe0ab6ca90e17f92355c4176b2c48c2e749fb1c445a7e1248cb2",
      "blockNumber": "0x14c291d",
      "gasUsed": "0x6cbd",
      "effectiveGasPrice": "0xc4ef",
      "from": "0x5f5c3548f96c7da33a18e5f2f2f13519e1c8bd0d",
      "to": "0x2809443f5ec9d648e9127fe7ffe7ea28c402d3b8",
      "contractAddress": null,
      "l1BaseFeeScalar": "0x44d",
      "l1BlobBaseFee": "0x1",
      "l1BlobBaseFeeScalar": "0xa118b",
      "l1Fee": "0xc109febc",
      "l1GasPrice": "0x6d94e730",
      "l1GasUsed": "0x640"
    },
    {
      "status": "0x1",
      "cumulativeGasUsed": "0x446ef9",
      "logs": [
        {
          "address": "0x2809443f5ec9d648e9127fe7ffe7ea28c402d3b8",
          "topics": [
            "0x238399d427b947898edb290f5ff0f9109849b1c3ba196a42e35f00c50a54b98b"
          ],
          "data": "0x0000000000000000000000000000000000000000000000000000000000009ce10000000000000000000000002809443f5ec9d648e9127fe7ffe7ea28c402d3b8",
          "blockHash": "0x9125ab722c4f8062412da4d006579a37b293a91dd7ed041a3faa65975f2969ca",
          "blockNumber": "0x14c291f",
          "transactionHash": "0x7b94cda318232d2c5db1aeb6aea5c942c3fc58f25fb8c67257083c47abc142bb",
          "transactionIndex": "0x25",
          "logIndex": "0x57",
          "removed": false
        }
      ],
      "logsBloom": "0x00000000000000000000000000400000000000000000000000000000000000000000000000000000000000000000000000000000000000000800000000000000000000000000000000000000000000000000000000000000000000000000000000000000000000000000000000000000000000000000000000000000000000000002000000000000000000000000000000040000000000000000000000000000000000000000000000000000000000000000000000000000000002000000000000000000000000000000000000000000000000000000000000040000000000000000000000000000000000000000000000000000000000000000000000000000",
      "type": "0x2",
      "transactionHash": "0x7b94cda318232d2c5db1aeb6aea5c942c3fc58f25fb8c67257083c47abc142bb",
      "transactionIndex": "0x25",
      "blockHash": "0x9125ab722c4f8062412da4d006579a37b293a91dd7ed041a3faa65975f2969ca",
      "blockNumber": "0x14c291f",
      "gasUsed": "0x6cbd",
      "effectiveGasPrice": "0xc4f0",
      "from": "0x5f5c3548f96c7da33a18e5f2f2f13519e1c8bd0d",
      "to": "0x2809443f5ec9d648e9127fe7ffe7ea28c402d3b8",
      "contractAddress": null,
      "l1BaseFeeScalar": "0x44d",
      "l1BlobBaseFee": "0x1",
      "l1BlobBaseFeeScalar": "0xa118b",
      "l1Fee": "0xca2ec290",
      "l1GasPrice": "0x72c5acd9",
      "l1GasUsed": "0x640"
    },
    {
      "status": "0x1",
      "cumulativeGasUsed": "0x41bd01",
      "logs": [
        {
          "address": "0x2809443f5ec9d648e9127fe7ffe7ea28c402d3b8",
          "topics": [
            "0x238399d427b947898edb290f5ff0f9109849b1c3ba196a42e35f00c50a54b98b"
          ],
          "data": "0x0000000000000000000000000000000000000000000000000000000000009d4b0000000000000000000000002809443f5ec9d648e9127fe7ffe7ea28c402d3b8",
          "blockHash": "0xf0e564e7f67ab4e09e53efc451e72a58a69c0ff5571f14d718ce5385e6d72a95",
          "blockNumber": "0x14c2921",
          "transactionHash": "0x64890b12a7c63e9ca296390f3778169ea002f7999f9171e6397081abd31a0ef1",
          "transactionIndex": "0x22",
          "logIndex": "0x50",
          "removed": false
        }
      ],
      "logsBloom": "0x00000000000000000000000000400000000000000000000000000000000000000000000000000000000000000000000000000000000000000800000000000000000000000000000000000000000000000000000000000000000000000000000000000000000000000000000000000000000000000000000000000000000000000002000000000000000000000000000000040000000000000000000000000000000000000000000000000000000000000000000000000000000002000000000000000000000000000000000000000000000000000000000000040000000000000000000000000000000000000000000000000000000000000000000000000000",
      "type": "0x2",
      "transactionHash": "0x64890b12a7c63e9ca296390f3778169ea002f7999f9171e6397081abd31a0ef1",
      "transactionIndex": "0x22",
      "blockHash": "0xf0e564e7f67ab4e09e53efc451e72a58a69c0ff5571f14d718ce5385e6d72a95",
      "blockNumber": "0x14c2921",
      "gasUsed": "0x6cbd",
      "effectiveGasPrice": "0xc4ef",
      "from": "0x5f5c3548f96c7da33a18e5f2f2f13519e1c8bd0d",
      "to": "0x2809443f5ec9d648e9127fe7ffe7ea28c402d3b8",
      "contractAddress": null,
      "l1BaseFeeScalar": "0x44d",
      "l1BlobBaseFee": "0x1",
      "l1BlobBaseFeeScalar": "0xa118b",
      "l1Fee": "0xca2ec290",
      "l1GasPrice": "0x72c5acd9",
      "l1GasUsed": "0x640"
    },
    {
      "status": "0x1",
      "cumulativeGasUsed": "0x5181c1",
      "logs": [
        {
          "address": "0x2809443f5ec9d648e9127fe7ffe7ea28c402d3b8",
          "topics": [
            "0x238399d427b947898edb290f5ff0f9109849b1c3ba196a42e35f00c50a54b98b"
          ],
          "data": "0x0000000000000000000000000000000000000000000000000000000000009ca60000000000000000000000002809443f5ec9d648e9127fe7ffe7ea28c402d3b8",
          "blockHash": "0xb6fd9324d85089e755091c8f8fddd41afaa5fef4d73cfbd43210296bab400f13",
          "blockNumber": "0x14c2923",
          "transactionHash": "0xd71264d1f2b23d89d9c61f40bda429b7f084199fea03a588a20d43be6faf3992",
          "transactionIndex": "0x2b",
          "logIndex": "0x67",
          "removed": false
        }
      ],
      "logsBloom": "0x00000000000000000000000000400000000000000000000000000000000000000000000000000000000000000000000000000000000000000800000000000000000000000000000000000000000000000000000000000000000000000000000000000000000000000000000000000000000000000000000000000000000000000002000000000000000000000000000000040000000000000000000000000000000000000000000000000000000000000000000000000000000002000000000000000000000000000000000000000000000000000000000000040000000000000000000000000000000000000000000000000000000000000000000000000000",
      "type": "0x2",
      "transactionHash": "0xd71264d1f2b23d89d9c61f40bda429b7f084199fea03a588a20d43be6faf3992",
      "transactionIndex": "0x2b",
      "blockHash": "0xb6fd9324d85089e755091c8f8fddd41afaa5fef4d73cfbd43210296bab400f13",
      "blockNumber": "0x14c2923",
      "gasUsed": "0x6cbd",
      "effectiveGasPrice": "0xc4ee",
      "from": "0x5f5c3548f96c7da33a18e5f2f2f13519e1c8bd0d",
      "to": "0x2809443f5ec9d648e9127fe7ffe7ea28c402d3b8",
      "contractAddress": null,
      "l1BaseFeeScalar": "0x44d",
      "l1BlobBaseFee": "0x1",
      "l1BlobBaseFeeScalar": "0xa118b",
      "l1Fee": "0xca2ec290",
      "l1GasPrice": "0x72c5acd9",
      "l1GasUsed": "0x640"
    },
    {
      "status": "0x1",
      "cumulativeGasUsed": "0x5bb923",
      "logs": [
        {
          "address": "0x2809443f5ec9d648e9127fe7ffe7ea28c402d3b8",
          "topics": [
            "0x238399d427b947898edb290f5ff0f9109849b1c3ba196a42e35f00c50a54b98b"
          ],
          "data": "0x0000000000000000000000000000000000000000000000000000000000009d270000000000000000000000002809443f5ec9d648e9127fe7ffe7ea28c402d3b8",
          "blockHash": "0x44ee5e443e61324c62d2cd04e481242008b43ab0b09ddf1d85f1d6055585b2cb",
          "blockNumber": "0x14c2925",
          "transactionHash": "0xf06875d066e5b759c56c9aab3d8d08ffffa2a797595b02ed622b55aa6a61a5e8",
          "transactionIndex": "0x2a",
          "logIndex": "0x74",
          "removed": false
        }
      ],
      "logsBloom": "0x00000000000000000000000000400000000000000000000000000000000000000000000000000000000000000000000000000000000000000800000000000000000000000000000000000000000000000000000000000000000000000000000000000000000000000000000000000000000000000000000000000000000000000002000000000000000000000000000000040000000000000000000000000000000000000000000000000000000000000000000000000000000002000000000000000000000000000000000000000000000000000000000000040000000000000000000000000000000000000000000000000000000000000000000000000000",
      "type": "0x2",
      "transactionHash": "0xf06875d066e5b759c56c9aab3d8d08ffffa2a797595b02ed622b55aa6a61a5e8",
      "transactionIndex": "0x2a",
      "blockHash": "0x44ee5e443e61324c62d2cd04e481242008b43ab0b09ddf1d85f1d6055585b2cb",
      "blockNumber": "0x14c2925",
      "gasUsed": "0x6cbd",
      "effectiveGasPrice": "0xc4ee",
      "from": "0x5f5c3548f96c7da33a18e5f2f2f13519e1c8bd0d",
      "to": "0x2809443f5ec9d648e9127fe7ffe7ea28c402d3b8",
      "contractAddress": null,
      "l1BaseFeeScalar": "0x44d",
      "l1BlobBaseFee": "0x1",
      "l1BlobBaseFeeScalar": "0xa118b",
      "l1Fee": "0xc03a6f7c",
      "l1GasPrice": "0x6d1f1420",
      "l1GasUsed": "0x640"
    },
    {
      "status": "0x1",
      "cumulativeGasUsed": "0x7f4ef6",
      "logs": [
        {
          "address": "0x2809443f5ec9d648e9127fe7ffe7ea28c402d3b8",
          "topics": [
            "0x238399d427b947898edb290f5ff0f9109849b1c3ba196a42e35f00c50a54b98b"
          ],
          "data": "0x0000000000000000000000000000000000000000000000000000000000009ce10000000000000000000000002809443f5ec9d648e9127fe7ffe7ea28c402d3b8",
          "blockHash": "0x6a6d7ec33d46d1260d40040f5c23923d5591cbcf704aa965997c86535584d4bf",
          "blockNumber": "0x14c2927",
          "transactionHash": "0x227251fb05731cdc1afa017c87b561ab480e60afa4f60a60ea3d14ec8bbc788c",
          "transactionIndex": "0x33",
          "logIndex": "0x163",
          "removed": false
        }
      ],
      "logsBloom": "0x00000000000000000000000000400000000000000000000000000000000000000000000000000000000000000000000000000000000000000800000000000000000000000000000000000000000000000000000000000000000000000000000000000000000000000000000000000000000000000000000000000000000000000002000000000000000000000000000000040000000000000000000000000000000000000000000000000000000000000000000000000000000002000000000000000000000000000000000000000000000000000000000000040000000000000000000000000000000000000000000000000000000000000000000000000000",
      "type": "0x2",
      "transactionHash": "0x227251fb05731cdc1afa017c87b561ab480e60afa4f60a60ea3d14ec8bbc788c",
      "transactionIndex": "0x33",
      "blockHash": "0x6a6d7ec33d46d1260d40040f5c23923d5591cbcf704aa965997c86535584d4bf",
      "blockNumber": "0x14c2927",
      "gasUsed": "0x6cbd",
      "effectiveGasPrice": "0xc4ee",
      "from": "0x5f5c3548f96c7da33a18e5f2f2f13519e1c8bd0d",
      "to": "0x2809443f5ec9d648e9127fe7ffe7ea28c402d3b8",
      "contractAddress": null,
      "l1BaseFeeScalar": "0x44d",
      "l1BlobBaseFee": "0x1",
      "l1BlobBaseFeeScalar": "0xa118b",
      "l1Fee": "0xc03a6f7c",
      "l1GasPrice": "0x6d1f1420",
      "l1GasUsed": "0x640"
    },
    {
      "status": "0x1",
      "cumulativeGasUsed": "0x464526",
      "logs": [
        {
          "address": "0x2809443f5ec9d648e9127fe7ffe7ea28c402d3b8",
          "topics": [
            "0x238399d427b947898edb290f5ff0f9109849b1c3ba196a42e35f00c50a54b98b"
          ],
          "data": "0x0000000000000000000000000000000000000000000000000000000000009d4b0000000000000000000000002809443f5ec9d648e9127fe7ffe7ea28c402d3b8",
          "blockHash": "0x87c97a63afbf65121f255c9e70348608544c91a1bfd521b67c61d62b5a8ef0fc",
          "blockNumber": "0x14c2929",
          "transactionHash": "0x5532e97482f148b0194badb9c537bbbcf14c40b59e54884574965418c9addead",
          "transactionIndex": "0x24",
          "logIndex": "0x55",
          "removed": false
        }
      ],
      "logsBloom": "0x00000000000000000000000000400000000000000000000000000000000000000000000000000000000000000000000000000000000000000800000000000000000000000000000000000000000000000000000000000000000000000000000000000000000000000000000000000000000000000000000000000000000000000002000000000000000000000000000000040000000000000000000000000000000000000000000000000000000000000000000000000000000002000000000000000000000000000000000000000000000000000000000000040000000000000000000000000000000000000000000000000000000000000000000000000000",
      "type": "0x2",
      "transactionHash": "0x5532e97482f148b0194badb9c537bbbcf14c40b59e54884574965418c9addead",
      "transactionIndex": "0x24",
      "blockHash": "0x87c97a63afbf65121f255c9e70348608544c91a1bfd521b67c61d62b5a8ef0fc",
      "blockNumber": "0x14c2929",
      "gasUsed": "0x6cbd",
      "effectiveGasPrice": "0xc4ee",
      "from": "0x5f5c3548f96c7da33a18e5f2f2f13519e1c8bd0d",
      "to": "0x2809443f5ec9d648e9127fe7ffe7ea28c402d3b8",
      "contractAddress": null,
      "l1BaseFeeScalar": "0x44d",
      "l1BlobBaseFee": "0x1",
      "l1BlobBaseFeeScalar": "0xa118b",
      "l1Fee": "0xc03a6f7c",
      "l1GasPrice": "0x6d1f1420",
      "l1GasUsed": "0x640"
    },
    {
      "status": "0x1",
      "cumulativeGasUsed": "0x44f5ed",
      "logs": [
        {
          "address": "0x2809443f5ec9d648e9127fe7ffe7ea28c402d3b8",
          "topics": [
            "0x238399d427b947898edb290f5ff0f9109849b1c3ba196a42e35f00c50a54b98b"
          ],
          "data": "0x0000000000000000000000000000000000000000000000000000000000009d350000000000000000000000002809443f5ec9d648e9127fe7ffe7ea28c402d3b8",
          "blockHash": "0x7cc1a8f89be69e2f7a6602c529b6c31d60a09b047bc4b03cb596086560150282",
          "blockNumber": "0x14c292b",
          "transactionHash": "0x845973a651f46883f9d07571c389852fde4dbf5616f6691a65986e18bf9591aa",
          "transactionIndex": "0x29",
          "logIndex": "0x5a",
          "removed": false
        }
      ],
      "logsBloom": "0x00000000000000000000000000400000000000000000000000000000000000000000000000000000000000000000000000000000000000000800000000000000000000000000000000000000000000000000000000000000000000000000000000000000000000000000000000000000000000000000000000000000000000000002000000000000000000000000000000040000000000000000000000000000000000000000000000000000000000000000000000000000000002000000000000000000000000000000000000000000000000000000000000040000000000000000000000000000000000000000000000000000000000000000000000000000",
      "type": "0x2",
      "transactionHash": "0x845973a651f46883f9d07571c389852fde4dbf5616f6691a65986e18bf9591aa",
      "transactionIndex": "0x29",
      "blockHash": "0x7cc1a8f89be69e2f7a6602c529b6c31d60a09b047bc4b03cb596086560150282",
      "blockNumber": "0x14c292b",
      "gasUsed": "0x6cbd",
      "effectiveGasPrice": "0xc4ed",
      "from": "0x5f5c3548f96c7da33a18e5f2f2f13519e1c8bd0d",
      "to": "0x2809443f5ec9d648e9127fe7ffe7ea28c402d3b8",
      "contractAddress": null,
      "l1BaseFeeScalar": "0x44d",
      "l1BlobBaseFee": "0x1",
      "l1BlobBaseFeeScalar": "0xa118b",
      "l1Fee": "0xc5da6b3d",
      "l1GasPrice": "0x70508205",
      "l1GasUsed": "0x640"
    },
    {
      "status": "0x1",
      "cumulativeGasUsed": "0x515cf3",
      "logs": [
        {
          "address": "0x2809443f5ec9d648e9127fe7ffe7ea28c402d3b8",
          "topics": [
            "0x238399d427b947898edb290f5ff0f9109849b1c3ba196a42e35f00c50a54b98b"
          ],
          "data": "0x0000000000000000000000000000000000000000000000000000000000009d270000000000000000000000002809443f5ec9d648e9127fe7ffe7ea28c402d3b8",
          "blockHash": "0x5b48d4b1b28b74b5236f4fd54fa8e6c1b0df9d2a9396d9a15d1bb0d2fac303dd",
          "blockNumber": "0x14c292c",
          "transactionHash": "0x594a992f6ab8c0741781f97deff3e284ac7acada9ae2ffaf2566ec860aebf675",
          "transactionIndex": "0x28",
          "logIndex": "0x5f",
          "removed": false
        }
      ],
      "logsBloom": "0x00000000000000000000000000400000000000000000000000000000000000000000000000000000000000000000000000000000000000000800000000000000000000000000000000000000000000000000000000000000000000000000000000000000000000000000000000000000000000000000000000000000000000000002000000000000000000000000000000040000000000000000000000000000000000000000000000000000000000000000000000000000000002000000000000000000000000000000000000000000000000000000000000040000000000000000000000000000000000000000000000000000000000000000000000000000",
      "type": "0x2",
      "transactionHash": "0x594a992f6ab8c0741781f97deff3e284ac7acada9ae2ffaf2566ec860aebf675",
      "transactionIndex": "0x28",
      "blockHash": "0x5b48d4b1b28b74b5236f4fd54fa8e6c1b0df9d2a9396d9a15d1bb0d2fac303dd",
      "blockNumber": "0x14c292c",
      "gasUsed": "0x6cbd",
      "effectiveGasPrice": "0xc4ed",
      "from": "0x5f5c3548f96c7da33a18e5f2f2f13519e1c8bd0d",
      "to": "0x2809443f5ec9d648e9127fe7ffe7ea28c402d3b8",
      "contractAddress": null,
      "l1BaseFeeScalar": "0x44d",
      "l1BlobBaseFee": "0x1",
      "l1BlobBaseFeeScalar": "0xa118b",
      "l1Fee": "0xc5da6b3d",
      "l1GasPrice": "0x70508205",
      "l1GasUsed": "0x640"
    },
    {
      "status": "0x1",
      "cumulativeGasUsed": "0x4451a0",
      "logs": [
        {
          "address": "0x2809443f5ec9d648e9127fe7ffe7ea28c402d3b8",
          "topics": [
            "0x238399d427b947898edb290f5ff0f9109849b1c3ba196a42e35f00c50a54b98b"
          ],
          "data": "0x0000000000000000000000000000000000000000000000000000000000009ce10000000000000000000000002809443f5ec9d648e9127fe7ffe7ea28c402d3b8",
          "blockHash": "0xc8e3a4c545b9fc9e451c2628a933e9a4d4bd445e52fb04299429b1eb871b4866",
          "blockNumber": "0x14c292e",
          "transactionHash": "0x460d8dea674d366f377d34345e9da82c7eafa0aa55d45e47b2adbc347aeed193",
          "transactionIndex": "0x27",
          "logIndex": "0x62",
          "removed": false
        }
      ],
      "logsBloom": "0x00000000000000000000000000400000000000000000000000000000000000000000000000000000000000000000000000000000000000000800000000000000000000000000000000000000000000000000000000000000000000000000000000000000000000000000000000000000000000000000000000000000000000000002000000000000000000000000000000040000000000000000000000000000000000000000000000000000000000000000000000000000000002000000000000000000000000000000000000000000000000000000000000040000000000000000000000000000000000000000000000000000000000000000000000000000",
      "type": "0x2",
      "transactionHash": "0x460d8dea674d366f377d34345e9da82c7eafa0aa55d45e47b2adbc347aeed193",
      "transactionIndex": "0x27",
      "blockHash": "0xc8e3a4c545b9fc9e451c2628a933e9a4d4bd445e52fb04299429b1eb871b4866",
      "blockNumber": "0x14c292e",
      "gasUsed": "0x6cbd",
      "effectiveGasPrice": "0xc4ed",
      "from": "0x5f5c3548f96c7da33a18e5f2f2f13519e1c8bd0d",
      "to": "0x2809443f5ec9d648e9127fe7ffe7ea28c402d3b8",
      "contractAddress": null,
      "l1BaseFeeScalar": "0x44d",
      "l1BlobBaseFee": "0x1",
      "l1BlobBaseFeeScalar": "0xa118b",
      "l1Fee": "0xc5da6b3d",
      "l1GasPrice": "0x70508205",
      "l1GasUsed": "0x640"
    },
    {
      "status": "0x1",
      "cumulativeGasUsed": "0x8dc9c9",
      "logs": [
        {
          "address": "0x2809443f5ec9d648e9127fe7ffe7ea28c402d3b8",
          "topics": [
            "0x238399d427b947898edb290f5ff0f9109849b1c3ba196a42e35f00c50a54b98b"
          ],
          "data": "0x0000000000000000000000000000000000000000000000000000000000009d4b0000000000000000000000002809443f5ec9d648e9127fe7ffe7ea28c402d3b8",
          "blockHash": "0xcdb7cabaac4b3b94028b951f04dd23f5702d110b9c9f6734febe143f541106b1",
          "blockNumber": "0x14c292f",
          "transactionHash": "0x4ee22972098677c768b74a92d4eece845084454d72481cbd7965d0982bdd96ce",
          "transactionIndex": "0x2e",
          "logIndex": "0x164",
          "removed": false
        }
      ],
      "logsBloom": "0x00000000000000000000000000400000000000000000000000000000000000000000000000000000000000000000000000000000000000000800000000000000000000000000000000000000000000000000000000000000000000000000000000000000000000000000000000000000000000000000000000000000000000000002000000000000000000000000000000040000000000000000000000000000000000000000000000000000000000000000000000000000000002000000000000000000000000000000000000000000000000000000000000040000000000000000000000000000000000000000000000000000000000000000000000000000",
      "type": "0x2",
      "transactionHash": "0x4ee22972098677c768b74a92d4eece845084454d72481cbd7965d0982bdd96ce",
      "transactionIndex": "0x2e",
      "blockHash": "0xcdb7cabaac4b3b94028b951f04dd23f5702d110b9c9f6734febe143f541106b1",
      "blockNumber": "0x14c292f",
      "gasUsed": "0x6cbd",
      "effectiveGasPrice": "0xc4ed",
      "from": "0x5f5c3548f96c7da33a18e5f2f2f13519e1c8bd0d",
      "to": "0x2809443f5ec9d648e9127fe7ffe7ea28c402d3b8",
      "contractAddress": null,
      "l1BaseFeeScalar": "0x44d",
      "l1BlobBaseFee": "0x1",
      "l1BlobBaseFeeScalar": "0xa118b",
      "l1Fee": "0xc5da6b3d",
      "l1GasPrice": "0x70508205",
      "l1GasUsed": "0x640"
    },
    {
      "status": "0x1",
      "cumulativeGasUsed": "0x4b56fe",
      "logs": [
        {
          "address": "0x2809443f5ec9d648e9127fe7ffe7ea28c402d3b8",
          "topics": [
            "0x238399d427b947898edb290f5ff0f9109849b1c3ba196a42e35f00c50a54b98b"
          ],
          "data": "0x0000000000000000000000000000000000000000000000000000000000009d350000000000000000000000002809443f5ec9d648e9127fe7ffe7ea28c402d3b8",
          "blockHash": "0x75b85f42ed303971ae59a68270da55f84164f2b89724418d9a71cf483c93df1e",
          "blockNumber": "0x14c2930",
          "transactionHash": "0x8c491b77d87cb51b7fb29424cf4808c3cdabc3ce9bcd17d93858faa999e32009",
          "transactionIndex": "0x26",
          "logIndex": "0x5d",
          "removed": false
        }
      ],
      "logsBloom": "0x00000000000000000000000000400000000000000000000000000000000000000000000000000000000000000000000000000000000000000800000000000000000000000000000000000000000000000000000000000000000000000000000000000000000000000000000000000000000000000000000000000000000000000002000000000000000000000000000000040000000000000000000000000000000000000000000000000000000000000000000000000000000002000000000000000000000000000000000000000000000000000000000000040000000000000000000000000000000000000000000000000000000000000000000000000000",
      "type": "0x2",
      "transactionHash": "0x8c491b77d87cb51b7fb29424cf4808c3cdabc3ce9bcd17d93858faa999e32009",
      "transactionIndex": "0x26",
      "blockHash": "0x75b85f42ed303971ae59a68270da55f84164f2b89724418d9a71cf483c93df1e",
      "blockNumber": "0x14c2930",
      "gasUsed": "0x6cbd",
      "effectiveGasPrice": "0xc4ed",
      "from": "0x5f5c3548f96c7da33a18e5f2f2f13519e1c8bd0d",
      "to": "0x2809443f5ec9d648e9127fe7ffe7ea28c402d3b8",
      "contractAddress": null,
      "l1BaseFeeScalar": "0x44d",
      "l1BlobBaseFee": "0x1",
      "l1BlobBaseFeeScalar": "0xa118b",
      "l1Fee": "0xbea921b4",
      "l1GasPrice": "0x6c3b45ad",
      "l1GasUsed": "0x640"
    },
    {
      "status": "0x1",
      "cumulativeGasUsed": "0x860c36",
      "logs": [
        {
          "address": "0x2809443f5ec9d648e9127fe7ffe7ea28c402d3b8",
          "topics": [
            "0x238399d427b947898edb290f5ff0f9109849b1c3ba196a42e35f00c50a54b98b"
          ],
          "data": "0x0000000000000000000000000000000000000000000000000000000000009ca60000000000000000000000002809443f5ec9d648e9127fe7ffe7ea28c402d3b8",
          "blockHash": "0x7c6cec4ae8f39b2c1c0c2e596a7cd6026af20b5336ec25f58638465c92e01a0d",
          "blockNumber": "0x14c2932",
          "transactionHash": "0x36827e7eeaef61b6196e1592e8c11fecaaaac4ab95ee1925a326297674a42b03",
          "transactionIndex": "0x3c",
          "logIndex": "0xad",
          "removed": false
        }
      ],
      "logsBloom": "0x00000000000000000000000000400000000000000000000000000000000000000000000000000000000000000000000000000000000000000800000000000000000000000000000000000000000000000000000000000000000000000000000000000000000000000000000000000000000000000000000000000000000000000002000000000000000000000000000000040000000000000000000000000000000000000000000000000000000000000000000000000000000002000000000000000000000000000000000000000000000000000000000000040000000000000000000000000000000000000000000000000000000000000000000000000000",
      "type": "0x2",
      "transactionHash": "0x36827e7eeaef61b6196e1592e8c11fecaaaac4ab95ee1925a326297674a42b03",
      "transactionIndex": "0x3c",
      "blockHash": "0x7c6cec4ae8f39b2c1c0c2e596a7cd6026af20b5336ec25f58638465c92e01a0d",
      "blockNumber": "0x14c2932",
      "gasUsed": "0x6cbd",
      "effectiveGasPrice": "0xc4ef",
      "from": "0x5f5c3548f96c7da33a18e5f2f2f13519e1c8bd0d",
      "to": "0x2809443f5ec9d648e9127fe7ffe7ea28c402d3b8",
      "contractAddress": null,
      "l1BaseFeeScalar": "0x44d",
      "l1BlobBaseFee": "0x1",
      "l1BlobBaseFeeScalar": "0xa118b",
      "l1Fee": "0xbea921b4",
      "l1GasPrice": "0x6c3b45ad",
      "l1GasUsed": "0x640"
    }
  ],
  "libraries": [],
  "pending": [],
  "returns": {},
  "timestamp": 1739305286,
  "chain": 84532,
  "commit": "e1d00a2"
}