{
  "transactions": [
    {
      "hash": "0xceaa82e594de675ea9be8000b00d90ac25527c819aa3dd5cac4f90f3c50d8d44",
      "transactionType": "CALL",
      "contractName": "GAINS",
      "contractAddress": "0x27ab1ef46295406d2190f7dbc4cdcfe6590ce076",
      "function": "setPeer(uint32,bytes32)",
      "arguments": [
        "40106",
        "0x00000000000000000000000027ab1ef46295406d2190f7dbc4cdcfe6590ce076"
      ],
      "transaction": {
        "from": "0x5f5c3548f96c7da33a18e5f2f2f13519e1c8bd0d",
        "to": "0x27ab1ef46295406d2190f7dbc4cdcfe6590ce076",
        "gas": "0x110b7",
        "value": "0x0",
        "input": "0x3400288b0000000000000000000000000000000000000000000000000000000000009caa00000000000000000000000027ab1ef46295406d2190f7dbc4cdcfe6590ce076",
        "nonce": "0x11c",
        "chainId": "0x14a34"
      },
      "additionalContracts": [],
      "isFixedGasLimit": false
    },
    {
      "hash": "0x17b12dcdacab3530cd1b83028b7e7d93a17ffeb344fdcc0e9f99bead7800425f",
      "transactionType": "CALL",
      "contractName": "GAINS",
      "contractAddress": "0x27ab1ef46295406d2190f7dbc4cdcfe6590ce076",
      "function": "setPeer(uint32,bytes32)",
      "arguments": [
        "40245",
        "0x00000000000000000000000027ab1ef46295406d2190f7dbc4cdcfe6590ce076"
      ],
      "transaction": {
        "from": "0x5f5c3548f96c7da33a18e5f2f2f13519e1c8bd0d",
        "to": "0x27ab1ef46295406d2190f7dbc4cdcfe6590ce076",
        "gas": "0x110b7",
        "value": "0x0",
        "input": "0x3400288b0000000000000000000000000000000000000000000000000000000000009d3500000000000000000000000027ab1ef46295406d2190f7dbc4cdcfe6590ce076",
        "nonce": "0x11d",
        "chainId": "0x14a34"
      },
      "additionalContracts": [],
      "isFixedGasLimit": false
    },
    {
      "hash": "0x5870d9104ab92637feb5241864a9df43b755a4d0ed32c54682b6b729be30bf06",
      "transactionType": "CALL",
      "contractName": "GAINS",
      "contractAddress": "0x27ab1ef46295406d2190f7dbc4cdcfe6590ce076",
      "function": "setPeer(uint32,bytes32)",
      "arguments": [
        "40102",
        "0x00000000000000000000000027ab1ef46295406d2190f7dbc4cdcfe6590ce076"
      ],
      "transaction": {
        "from": "0x5f5c3548f96c7da33a18e5f2f2f13519e1c8bd0d",
        "to": "0x27ab1ef46295406d2190f7dbc4cdcfe6590ce076",
        "gas": "0x110b7",
        "value": "0x0",
        "input": "0x3400288b0000000000000000000000000000000000000000000000000000000000009ca600000000000000000000000027ab1ef46295406d2190f7dbc4cdcfe6590ce076",
        "nonce": "0x11e",
        "chainId": "0x14a34"
      },
      "additionalContracts": [],
      "isFixedGasLimit": false
    },
    {
      "hash": "0x61125a3662a8e808489481730ba18e11eb06f31b19ffab48de8cd558724fdec3",
      "transactionType": "CALL",
      "contractName": "GAINS",
      "contractAddress": "0x27ab1ef46295406d2190f7dbc4cdcfe6590ce076",
      "function": "setPeer(uint32,bytes32)",
      "arguments": [
        "40161",
        "0x00000000000000000000000027ab1ef46295406d2190f7dbc4cdcfe6590ce076"
      ],
      "transaction": {
        "from": "0x5f5c3548f96c7da33a18e5f2f2f13519e1c8bd0d",
        "to": "0x27ab1ef46295406d2190f7dbc4cdcfe6590ce076",
        "gas": "0x110b7",
        "value": "0x0",
        "input": "0x3400288b0000000000000000000000000000000000000000000000000000000000009ce100000000000000000000000027ab1ef46295406d2190f7dbc4cdcfe6590ce076",
        "nonce": "0x11f",
        "chainId": "0x14a34"
      },
      "additionalContracts": [],
      "isFixedGasLimit": false
    },
    {
      "hash": "0xd3b99a843e1f493274815ca3dd57b933d5d4d56515588bf67ccc3e6dd2a56d57",
      "transactionType": "CALL",
      "contractName": "GAINS",
      "contractAddress": "0x27ab1ef46295406d2190f7dbc4cdcfe6590ce076",
      "function": "setPeer(uint32,bytes32)",
      "arguments": [
        "40245",
        "0x00000000000000000000000027ab1ef46295406d2190f7dbc4cdcfe6590ce076"
      ],
      "transaction": {
        "from": "0x5f5c3548f96c7da33a18e5f2f2f13519e1c8bd0d",
        "to": "0x27ab1ef46295406d2190f7dbc4cdcfe6590ce076",
        "gas": "0x9630",
        "value": "0x0",
        "input": "0x3400288b0000000000000000000000000000000000000000000000000000000000009d3500000000000000000000000027ab1ef46295406d2190f7dbc4cdcfe6590ce076",
        "nonce": "0x120",
        "chainId": "0x14a34"
      },
      "additionalContracts": [],
      "isFixedGasLimit": false
    },
    {
      "hash": "0xccf1af1f614b489690f1754b4c60e33f1b01ff923db3c9b7b442a1fdf4933b07",
      "transactionType": "CALL",
      "contractName": "GAINS",
      "contractAddress": "0x27ab1ef46295406d2190f7dbc4cdcfe6590ce076",
      "function": "setPeer(uint32,bytes32)",
      "arguments": [
        "40102",
        "0x00000000000000000000000027ab1ef46295406d2190f7dbc4cdcfe6590ce076"
      ],
      "transaction": {
        "from": "0x5f5c3548f96c7da33a18e5f2f2f13519e1c8bd0d",
        "to": "0x27ab1ef46295406d2190f7dbc4cdcfe6590ce076",
        "gas": "0x9630",
        "value": "0x0",
        "input": "0x3400288b0000000000000000000000000000000000000000000000000000000000009ca600000000000000000000000027ab1ef46295406d2190f7dbc4cdcfe6590ce076",
        "nonce": "0x121",
        "chainId": "0x14a34"
      },
      "additionalContracts": [],
      "isFixedGasLimit": false
    },
    {
      "hash": "0xd25369326a323799c3fbf9df4a088769281cda2d549bbd6dc4cd9e64f2c89db4",
      "transactionType": "CALL",
      "contractName": "GAINS",
      "contractAddress": "0x27ab1ef46295406d2190f7dbc4cdcfe6590ce076",
      "function": "setPeer(uint32,bytes32)",
      "arguments": [
        "40161",
        "0x00000000000000000000000027ab1ef46295406d2190f7dbc4cdcfe6590ce076"
      ],
      "transaction": {
        "from": "0x5f5c3548f96c7da33a18e5f2f2f13519e1c8bd0d",
        "to": "0x27ab1ef46295406d2190f7dbc4cdcfe6590ce076",
        "gas": "0x9630",
        "value": "0x0",
        "input": "0x3400288b0000000000000000000000000000000000000000000000000000000000009ce100000000000000000000000027ab1ef46295406d2190f7dbc4cdcfe6590ce076",
        "nonce": "0x122",
        "chainId": "0x14a34"
      },
      "additionalContracts": [],
      "isFixedGasLimit": false
    },
    {
      "hash": "0x4779827ee02f565dc92a229cc68ad3d0ff2306f6e0dc1fd6432c8d84f66fd2e5",
      "transactionType": "CALL",
      "contractName": "GAINS",
      "contractAddress": "0x27ab1ef46295406d2190f7dbc4cdcfe6590ce076",
      "function": "setPeer(uint32,bytes32)",
      "arguments": [
        "40106",
        "0x00000000000000000000000027ab1ef46295406d2190f7dbc4cdcfe6590ce076"
      ],
      "transaction": {
        "from": "0x5f5c3548f96c7da33a18e5f2f2f13519e1c8bd0d",
        "to": "0x27ab1ef46295406d2190f7dbc4cdcfe6590ce076",
        "gas": "0x9630",
        "value": "0x0",
        "input": "0x3400288b0000000000000000000000000000000000000000000000000000000000009caa00000000000000000000000027ab1ef46295406d2190f7dbc4cdcfe6590ce076",
        "nonce": "0x123",
        "chainId": "0x14a34"
      },
      "additionalContracts": [],
      "isFixedGasLimit": false
    },
    {
      "hash": "0xb5f1a94962f9d01f0af1a94b0703a85c9a9b6e28cc3c6e5a3047c400cbb494d9",
      "transactionType": "CALL",
      "contractName": "GAINS",
      "contractAddress": "0x27ab1ef46295406d2190f7dbc4cdcfe6590ce076",
      "function": "setPeer(uint32,bytes32)",
      "arguments": [
        "40102",
        "0x00000000000000000000000027ab1ef46295406d2190f7dbc4cdcfe6590ce076"
      ],
      "transaction": {
        "from": "0x5f5c3548f96c7da33a18e5f2f2f13519e1c8bd0d",
        "to": "0x27ab1ef46295406d2190f7dbc4cdcfe6590ce076",
        "gas": "0x9630",
        "value": "0x0",
        "input": "0x3400288b0000000000000000000000000000000000000000000000000000000000009ca600000000000000000000000027ab1ef46295406d2190f7dbc4cdcfe6590ce076",
        "nonce": "0x124",
        "chainId": "0x14a34"
      },
      "additionalContracts": [],
      "isFixedGasLimit": false
    },
    {
      "hash": "0x60a38ed10418d26f47cfcd7afe5387abd8d6105ad0ba463be55825bfe7d8061d",
      "transactionType": "CALL",
      "contractName": "GAINS",
      "contractAddress": "0x27ab1ef46295406d2190f7dbc4cdcfe6590ce076",
      "function": "setPeer(uint32,bytes32)",
      "arguments": [
        "40161",
        "0x00000000000000000000000027ab1ef46295406d2190f7dbc4cdcfe6590ce076"
      ],
      "transaction": {
        "from": "0x5f5c3548f96c7da33a18e5f2f2f13519e1c8bd0d",
        "to": "0x27ab1ef46295406d2190f7dbc4cdcfe6590ce076",
        "gas": "0x9630",
        "value": "0x0",
        "input": "0x3400288b0000000000000000000000000000000000000000000000000000000000009ce100000000000000000000000027ab1ef46295406d2190f7dbc4cdcfe6590ce076",
        "nonce": "0x125",
        "chainId": "0x14a34"
      },
      "additionalContracts": [],
      "isFixedGasLimit": false
    },
    {
      "hash": "0xdd8cf03ce7df5fa6e0de63ee3019e7579bd645be544fa8940989dc7669229dce",
      "transactionType": "CALL",
      "contractName": "GAINS",
      "contractAddress": "0x27ab1ef46295406d2190f7dbc4cdcfe6590ce076",
      "function": "setPeer(uint32,bytes32)",
      "arguments": [
        "40106",
        "0x00000000000000000000000027ab1ef46295406d2190f7dbc4cdcfe6590ce076"
      ],
      "transaction": {
        "from": "0x5f5c3548f96c7da33a18e5f2f2f13519e1c8bd0d",
        "to": "0x27ab1ef46295406d2190f7dbc4cdcfe6590ce076",
        "gas": "0x9630",
        "value": "0x0",
        "input": "0x3400288b0000000000000000000000000000000000000000000000000000000000009caa00000000000000000000000027ab1ef46295406d2190f7dbc4cdcfe6590ce076",
        "nonce": "0x126",
        "chainId": "0x14a34"
      },
      "additionalContracts": [],
      "isFixedGasLimit": false
    },
    {
      "hash": "0x976e14170703641355be45b61e99fb12584a9d2deab7ab66da1cd3082054ee1f",
      "transactionType": "CALL",
      "contractName": "GAINS",
      "contractAddress": "0x27ab1ef46295406d2190f7dbc4cdcfe6590ce076",
      "function": "setPeer(uint32,bytes32)",
      "arguments": [
        "40245",
        "0x00000000000000000000000027ab1ef46295406d2190f7dbc4cdcfe6590ce076"
      ],
      "transaction": {
        "from": "0x5f5c3548f96c7da33a18e5f2f2f13519e1c8bd0d",
        "to": "0x27ab1ef46295406d2190f7dbc4cdcfe6590ce076",
        "gas": "0x9630",
        "value": "0x0",
        "input": "0x3400288b0000000000000000000000000000000000000000000000000000000000009d3500000000000000000000000027ab1ef46295406d2190f7dbc4cdcfe6590ce076",
        "nonce": "0x127",
        "chainId": "0x14a34"
      },
      "additionalContracts": [],
      "isFixedGasLimit": false
    }
  ],
  "receipts": [
    {
      "status": "0x1",
      "cumulativeGasUsed": "0x3fea35",
      "logs": [
        {
          "address": "0x27ab1ef46295406d2190f7dbc4cdcfe6590ce076",
          "topics": [
            "0x238399d427b947898edb290f5ff0f9109849b1c3ba196a42e35f00c50a54b98b"
          ],
          "data": "0x0000000000000000000000000000000000000000000000000000000000009caa00000000000000000000000027ab1ef46295406d2190f7dbc4cdcfe6590ce076",
          "blockHash": "0xbad18b088d00b0eca27d16d19ad50451c77157e9b82fcb260f5af23d6621e1c4",
          "blockNumber": "0x13f8949",
          "transactionHash": "0xceaa82e594de675ea9be8000b00d90ac25527c819aa3dd5cac4f90f3c50d8d44",
          "transactionIndex": "0x27",
          "logIndex": "0x4c",
          "removed": false
        }
      ],
      "logsBloom": "0x00000000000000000000000000000000000000000000000000000000000000000000000000000000000000000000000000000000000000000800000000000000000000000000000000000000000000000000000000000000020000000000000000000000000000000000000000000000000000000000000000000000000000000000000000000000000000000000000000000000000000000000000000000000000000000000000000000000000000000000004000000000000002000000000000000000400000000000000000000000000000000000000000040000000000000000000000000000000000000000000000000000000000000000000000000000",
      "type": "0x2",
      "transactionHash": "0xceaa82e594de675ea9be8000b00d90ac25527c819aa3dd5cac4f90f3c50d8d44",
      "transactionIndex": "0x27",
      "blockHash": "0xbad18b088d00b0eca27d16d19ad50451c77157e9b82fcb260f5af23d6621e1c4",
      "blockNumber": "0x13f8949",
      "gasUsed": "0xba79",
      "effectiveGasPrice": "0x1470286",
      "from": "0x5f5c3548f96c7da33a18e5f2f2f13519e1c8bd0d",
      "to": "0x27ab1ef46295406d2190f7dbc4cdcfe6590ce076",
      "contractAddress": null,
      "l1BaseFeeScalar": "0x44d",
      "l1BlobBaseFee": "0x4dcd541",
      "l1BlobBaseFeeScalar": "0xa118b",
      "l1Fee": "0xe488aee75",
      "l1GasPrice": "0x7658d6024",
      "l1GasUsed": "0x640"
    },
    {
      "status": "0x1",
      "cumulativeGasUsed": "0x32417d",
      "logs": [
        {
          "address": "0x27ab1ef46295406d2190f7dbc4cdcfe6590ce076",
          "topics": [
            "0x238399d427b947898edb290f5ff0f9109849b1c3ba196a42e35f00c50a54b98b"
          ],
          "data": "0x0000000000000000000000000000000000000000000000000000000000009d3500000000000000000000000027ab1ef46295406d2190f7dbc4cdcfe6590ce076",
          "blockHash": "0x9735ab5a7e2e97259c884de7c4312cc46aacdd89c2f9b79283ee8597b31551ca",
          "blockNumber": "0x13f894a",
          "transactionHash": "0x17b12dcdacab3530cd1b83028b7e7d93a17ffeb344fdcc0e9f99bead7800425f",
          "transactionIndex": "0x21",
          "logIndex": "0x35",
          "removed": false
        }
      ],
      "logsBloom": "0x00000000000000000000000000000000000000000000000000000000000000000000000000000000000000000000000000000000000000000800000000000000000000000000000000000000000000000000000000000000020000000000000000000000000000000000000000000000000000000000000000000000000000000000000000000000000000000000000000000000000000000000000000000000000000000000000000000000000000000000004000000000000002000000000000000000400000000000000000000000000000000000000000040000000000000000000000000000000000000000000000000000000000000000000000000000",
      "type": "0x2",
      "transactionHash": "0x17b12dcdacab3530cd1b83028b7e7d93a17ffeb344fdcc0e9f99bead7800425f",
      "transactionIndex": "0x21",
      "blockHash": "0x9735ab5a7e2e97259c884de7c4312cc46aacdd89c2f9b79283ee8597b31551ca",
      "blockNumber": "0x13f894a",
      "gasUsed": "0xba79",
      "effectiveGasPrice": "0x146f835",
      "from": "0x5f5c3548f96c7da33a18e5f2f2f13519e1c8bd0d",
      "to": "0x27ab1ef46295406d2190f7dbc4cdcfe6590ce076",
      "contractAddress": null,
      "l1BaseFeeScalar": "0x44d",
      "l1BlobBaseFee": "0x45284aa",
      "l1BlobBaseFeeScalar": "0xa118b",
      "l1Fee": "0xcd29c3f75",
      "l1GasPrice": "0x6a5858a14",
      "l1GasUsed": "0x640"
    },
    {
      "status": "0x1",
      "cumulativeGasUsed": "0x340a0f",
      "logs": [
        {
          "address": "0x27ab1ef46295406d2190f7dbc4cdcfe6590ce076",
          "topics": [
            "0x238399d427b947898edb290f5ff0f9109849b1c3ba196a42e35f00c50a54b98b"
          ],
          "data": "0x0000000000000000000000000000000000000000000000000000000000009ca600000000000000000000000027ab1ef46295406d2190f7dbc4cdcfe6590ce076",
          "blockHash": "0x08b20cdd13006940536a00ae4aef39d235174b60b93ca0b4a95f6a82006fd2b8",
          "blockNumber": "0x13f894b",
          "transactionHash": "0x5870d9104ab92637feb5241864a9df43b755a4d0ed32c54682b6b729be30bf06",
          "transactionIndex": "0x1c",
          "logIndex": "0x38",
          "removed": false
        }
      ],
      "logsBloom": "0x00000000000000000000000000000000000000000000000000000000000000000000000000000000000000000000000000000000000000000800000000000000000000000000000000000000000000000000000000000000020000000000000000000000000000000000000000000000000000000000000000000000000000000000000000000000000000000000000000000000000000000000000000000000000000000000000000000000000000000000004000000000000002000000000000000000400000000000000000000000000000000000000000040000000000000000000000000000000000000000000000000000000000000000000000000000",
      "type": "0x2",
      "transactionHash": "0x5870d9104ab92637feb5241864a9df43b755a4d0ed32c54682b6b729be30bf06",
      "transactionIndex": "0x1c",
      "blockHash": "0x08b20cdd13006940536a00ae4aef39d235174b60b93ca0b4a95f6a82006fd2b8",
      "blockNumber": "0x13f894b",
      "gasUsed": "0xba79",
      "effectiveGasPrice": "0x146bc03",
      "from": "0x5f5c3548f96c7da33a18e5f2f2f13519e1c8bd0d",
      "to": "0x27ab1ef46295406d2190f7dbc4cdcfe6590ce076",
      "contractAddress": null,
      "l1BaseFeeScalar": "0x44d",
      "l1BlobBaseFee": "0x45284aa",
      "l1BlobBaseFeeScalar": "0xa118b",
      "l1Fee": "0xcd29c3f75",
      "l1GasPrice": "0x6a5858a14",
      "l1GasUsed": "0x640"
    },
    {
      "status": "0x1",
      "cumulativeGasUsed": "0x27d203",
      "logs": [
        {
          "address": "0x27ab1ef46295406d2190f7dbc4cdcfe6590ce076",
          "topics": [
            "0x238399d427b947898edb290f5ff0f9109849b1c3ba196a42e35f00c50a54b98b"
          ],
          "data": "0x0000000000000000000000000000000000000000000000000000000000009ce100000000000000000000000027ab1ef46295406d2190f7dbc4cdcfe6590ce076",
          "blockHash": "0x27d44c6d1600bd6f9f6d2728862e2121ce79416662fd72803d88ee39651c4d69",
          "blockNumber": "0x13f894c",
          "transactionHash": "0x61125a3662a8e808489481730ba18e11eb06f31b19ffab48de8cd558724fdec3",
          "transactionIndex": "0x15",
          "logIndex": "0x33",
          "removed": false
        }
      ],
      "logsBloom": "0x00000000000000000000000000000000000000000000000000000000000000000000000000000000000000000000000000000000000000000800000000000000000000000000000000000000000000000000000000000000020000000000000000000000000000000000000000000000000000000000000000000000000000000000000000000000000000000000000000000000000000000000000000000000000000000000000000000000000000000000004000000000000002000000000000000000400000000000000000000000000000000000000000040000000000000000000000000000000000000000000000000000000000000000000000000000",
      "type": "0x2",
      "transactionHash": "0x61125a3662a8e808489481730ba18e11eb06f31b19ffab48de8cd558724fdec3",
      "transactionIndex": "0x15",
      "blockHash": "0x27d44c6d1600bd6f9f6d2728862e2121ce79416662fd72803d88ee39651c4d69",
      "blockNumber": "0x13f894c",
      "gasUsed": "0xba79",
      "effectiveGasPrice": "0x1465187",
      "from": "0x5f5c3548f96c7da33a18e5f2f2f13519e1c8bd0d",
      "to": "0x27ab1ef46295406d2190f7dbc4cdcfe6590ce076",
      "contractAddress": null,
      "l1BaseFeeScalar": "0x44d",
      "l1BlobBaseFee": "0x45284aa",
      "l1BlobBaseFeeScalar": "0xa118b",
      "l1Fee": "0xcd29c3f75",
      "l1GasPrice": "0x6a5858a14",
      "l1GasUsed": "0x640"
    },
    {
      "status": "0x1",
      "cumulativeGasUsed": "0x35924d",
      "logs": [
        {
          "address": "0x27ab1ef46295406d2190f7dbc4cdcfe6590ce076",
          "topics": [
            "0x238399d427b947898edb290f5ff0f9109849b1c3ba196a42e35f00c50a54b98b"
          ],
          "data": "0x0000000000000000000000000000000000000000000000000000000000009d3500000000000000000000000027ab1ef46295406d2190f7dbc4cdcfe6590ce076",
          "blockHash": "0x47104277193245f1d0bcc6efe2532af58c852353a62e41570f223efad39cb17b",
          "blockNumber": "0x13f894e",
          "transactionHash": "0xd3b99a843e1f493274815ca3dd57b933d5d4d56515588bf67ccc3e6dd2a56d57",
          "transactionIndex": "0x19",
          "logIndex": "0x40",
          "removed": false
        }
      ],
      "logsBloom": "0x00000000000000000000000000000000000000000000000000000000000000000000000000000000000000000000000000000000000000000800000000000000000000000000000000000000000000000000000000000000020000000000000000000000000000000000000000000000000000000000000000000000000000000000000000000000000000000000000000000000000000000000000000000000000000000000000000000000000000000000004000000000000002000000000000000000400000000000000000000000000000000000000000040000000000000000000000000000000000000000000000000000000000000000000000000000",
      "type": "0x2",
      "transactionHash": "0xd3b99a843e1f493274815ca3dd57b933d5d4d56515588bf67ccc3e6dd2a56d57",
      "transactionIndex": "0x19",
      "blockHash": "0x47104277193245f1d0bcc6efe2532af58c852353a62e41570f223efad39cb17b",
      "blockNumber": "0x13f894e",
      "gasUsed": "0x6cbd",
      "effectiveGasPrice": "0x14540cd",
      "from": "0x5f5c3548f96c7da33a18e5f2f2f13519e1c8bd0d",
      "to": "0x27ab1ef46295406d2190f7dbc4cdcfe6590ce076",
      "contractAddress": null,
      "l1BaseFeeScalar": "0x44d",
      "l1BlobBaseFee": "0x45284aa",
      "l1BlobBaseFeeScalar": "0xa118b",
      "l1Fee": "0xcd29c3f75",
      "l1GasPrice": "0x6a5858a14",
      "l1GasUsed": "0x640"
    },
    {
      "status": "0x1",
      "cumulativeGasUsed": "0x5aa0c9",
      "logs": [
        {
          "address": "0x27ab1ef46295406d2190f7dbc4cdcfe6590ce076",
          "topics": [
            "0x238399d427b947898edb290f5ff0f9109849b1c3ba196a42e35f00c50a54b98b"
          ],
          "data": "0x0000000000000000000000000000000000000000000000000000000000009ca600000000000000000000000027ab1ef46295406d2190f7dbc4cdcfe6590ce076",
          "blockHash": "0x10f970027b0de4d0f967c66ee56f17f28c2ec94cb95bdde962e33bc571b5e42d",
          "blockNumber": "0x13f8950",
          "transactionHash": "0xccf1af1f614b489690f1754b4c60e33f1b01ff923db3c9b7b442a1fdf4933b07",
          "transactionIndex": "0x12",
          "logIndex": "0x67",
          "removed": false
        }
      ],
      "logsBloom": "0x00000000000000000000000000000000000000000000000000000000000000000000000000000000000000000000000000000000000000000800000000000000000000000000000000000000000000000000000000000000020000000000000000000000000000000000000000000000000000000000000000000000000000000000000000000000000000000000000000000000000000000000000000000000000000000000000000000000000000000000004000000000000002000000000000000000400000000000000000000000000000000000000000040000000000000000000000000000000000000000000000000000000000000000000000000000",
      "type": "0x2",
      "transactionHash": "0xccf1af1f614b489690f1754b4c60e33f1b01ff923db3c9b7b442a1fdf4933b07",
      "transactionIndex": "0x12",
      "blockHash": "0x10f970027b0de4d0f967c66ee56f17f28c2ec94cb95bdde962e33bc571b5e42d",
      "blockNumber": "0x13f8950",
      "gasUsed": "0x6cbd",
      "effectiveGasPrice": "0x1459b9f",
      "from": "0x5f5c3548f96c7da33a18e5f2f2f13519e1c8bd0d",
      "to": "0x27ab1ef46295406d2190f7dbc4cdcfe6590ce076",
      "contractAddress": null,
      "l1BaseFeeScalar": "0x44d",
      "l1BlobBaseFee": "0x47ed349",
      "l1BlobBaseFeeScalar": "0xa118b",
      "l1Fee": "0xe297cb08f",
      "l1GasPrice": "0x761ad963d",
      "l1GasUsed": "0x640"
    },
    {
      "status": "0x1",
      "cumulativeGasUsed": "0x36c561",
      "logs": [
        {
          "address": "0x27ab1ef46295406d2190f7dbc4cdcfe6590ce076",
          "topics": [
            "0x238399d427b947898edb290f5ff0f9109849b1c3ba196a42e35f00c50a54b98b"
          ],
          "data": "0x0000000000000000000000000000000000000000000000000000000000009ce100000000000000000000000027ab1ef46295406d2190f7dbc4cdcfe6590ce076",
          "blockHash": "0x523ceeb0db9f0ea3576809d2697ad718a63a0a4aad7f4bb4933f6816ab646251",
          "blockNumber": "0x13f8952",
          "transactionHash": "0xd25369326a323799c3fbf9df4a088769281cda2d549bbd6dc4cd9e64f2c89db4",
          "transactionIndex": "0x1c",
          "logIndex": "0x3c",
          "removed": false
        }
      ],
      "logsBloom": "0x00000000000000000000000000000000000000000000000000000000000000000000000000000000000000000000000000000000000000000800000000000000000000000000000000000000000000000000000000000000020000000000000000000000000000000000000000000000000000000000000000000000000000000000000000000000000000000000000000000000000000000000000000000000000000000000000000000000000000000000004000000000000002000000000000000000400000000000000000000000000000000000000000040000000000000000000000000000000000000000000000000000000000000000000000000000",
      "type": "0x2",
      "transactionHash": "0xd25369326a323799c3fbf9df4a088769281cda2d549bbd6dc4cd9e64f2c89db4",
      "transactionIndex": "0x1c",
      "blockHash": "0x523ceeb0db9f0ea3576809d2697ad718a63a0a4aad7f4bb4933f6816ab646251",
      "blockNumber": "0x13f8952",
      "gasUsed": "0x6cbd",
      "effectiveGasPrice": "0x1475db2",
      "from": "0x5f5c3548f96c7da33a18e5f2f2f13519e1c8bd0d",
      "to": "0x27ab1ef46295406d2190f7dbc4cdcfe6590ce076",
      "contractAddress": null,
      "l1BaseFeeScalar": "0x44d",
      "l1BlobBaseFee": "0x47ed349",
      "l1BlobBaseFeeScalar": "0xa118b",
      "l1Fee": "0xe297cb08f",
      "l1GasPrice": "0x761ad963d",
      "l1GasUsed": "0x640"
    },
    {
      "status": "0x1",
      "cumulativeGasUsed": "0x1e3272",
      "logs": [
        {
          "address": "0x27ab1ef46295406d2190f7dbc4cdcfe6590ce076",
          "topics": [
            "0x238399d427b947898edb290f5ff0f9109849b1c3ba196a42e35f00c50a54b98b"
          ],
          "data": "0x0000000000000000000000000000000000000000000000000000000000009caa00000000000000000000000027ab1ef46295406d2190f7dbc4cdcfe6590ce076",
          "blockHash": "0xe1b4d702add03ccceb06d66757ea08534ede42ba9bead1ceed9ec9ca03e96b36",
          "blockNumber": "0x13f8954",
          "transactionHash": "0x4779827ee02f565dc92a229cc68ad3d0ff2306f6e0dc1fd6432c8d84f66fd2e5",
          "transactionIndex": "0x12",
          "logIndex": "0x26",
          "removed": false
        }
      ],
      "logsBloom": "0x00000000000000000000000000000000000000000000000000000000000000000000000000000000000000000000000000000000000000000800000000000000000000000000000000000000000000000000000000000000020000000000000000000000000000000000000000000000000000000000000000000000000000000000000000000000000000000000000000000000000000000000000000000000000000000000000000000000000000000000004000000000000002000000000000000000400000000000000000000000000000000000000000040000000000000000000000000000000000000000000000000000000000000000000000000000",
      "type": "0x2",
      "transactionHash": "0x4779827ee02f565dc92a229cc68ad3d0ff2306f6e0dc1fd6432c8d84f66fd2e5",
      "transactionIndex": "0x12",
      "blockHash": "0xe1b4d702add03ccceb06d66757ea08534ede42ba9bead1ceed9ec9ca03e96b36",
      "blockNumber": "0x13f8954",
      "gasUsed": "0x6cbd",
      "effectiveGasPrice": "0x146843b",
      "from": "0x5f5c3548f96c7da33a18e5f2f2f13519e1c8bd0d",
      "to": "0x27ab1ef46295406d2190f7dbc4cdcfe6590ce076",
      "contractAddress": null,
      "l1BaseFeeScalar": "0x44d",
      "l1BlobBaseFee": "0x47ed349",
      "l1BlobBaseFeeScalar": "0xa118b",
      "l1Fee": "0xe297cb08f",
      "l1GasPrice": "0x761ad963d",
      "l1GasUsed": "0x640"
    },
    {
      "status": "0x1",
      "cumulativeGasUsed": "0x3794ce",
      "logs": [
        {
          "address": "0x27ab1ef46295406d2190f7dbc4cdcfe6590ce076",
          "topics": [
            "0x238399d427b947898edb290f5ff0f9109849b1c3ba196a42e35f00c50a54b98b"
          ],
          "data": "0x0000000000000000000000000000000000000000000000000000000000009ca600000000000000000000000027ab1ef46295406d2190f7dbc4cdcfe6590ce076",
          "blockHash": "0xa244c5e0da52825a8031015e1429006a15e7dfa451a9ae9b77b7cd4b39f78390",
          "blockNumber": "0x13f8956",
          "transactionHash": "0xb5f1a94962f9d01f0af1a94b0703a85c9a9b6e28cc3c6e5a3047c400cbb494d9",
          "transactionIndex": "0x12",
          "logIndex": "0x2f",
          "removed": false
        }
      ],
      "logsBloom": "0x00000000000000000000000000000000000000000000000000000000000000000000000000000000000000000000000000000000000000000800000000000000000000000000000000000000000000000000000000000000020000000000000000000000000000000000000000000000000000000000000000000000000000000000000000000000000000000000000000000000000000000000000000000000000000000000000000000000000000000000004000000000000002000000000000000000400000000000000000000000000000000000000000040000000000000000000000000000000000000000000000000000000000000000000000000000",
      "type": "0x2",
      "transactionHash": "0xb5f1a94962f9d01f0af1a94b0703a85c9a9b6e28cc3c6e5a3047c400cbb494d9",
      "transactionIndex": "0x12",
      "blockHash": "0xa244c5e0da52825a8031015e1429006a15e7dfa451a9ae9b77b7cd4b39f78390",
      "blockNumber": "0x13f8956",
      "gasUsed": "0x6cbd",
      "effectiveGasPrice": "0x1471adc",
      "from": "0x5f5c3548f96c7da33a18e5f2f2f13519e1c8bd0d",
      "to": "0x27ab1ef46295406d2190f7dbc4cdcfe6590ce076",
      "contractAddress": null,
      "l1BaseFeeScalar": "0x44d",
      "l1BlobBaseFee": "0x427eabd",
      "l1BlobBaseFeeScalar": "0xa118b",
      "l1Fee": "0xe75158b9d",
      "l1GasPrice": "0x7994ee8e0",
      "l1GasUsed": "0x640"
    },
    {
      "status": "0x1",
      "cumulativeGasUsed": "0x3c5e73",
      "logs": [
        {
          "address": "0x27ab1ef46295406d2190f7dbc4cdcfe6590ce076",
          "topics": [
            "0x238399d427b947898edb290f5ff0f9109849b1c3ba196a42e35f00c50a54b98b"
          ],
          "data": "0x0000000000000000000000000000000000000000000000000000000000009ce100000000000000000000000027ab1ef46295406d2190f7dbc4cdcfe6590ce076",
          "blockHash": "0x266d8ff5434a86e4011476b9db58eec658554f3406663fecc0755658b0059a3f",
          "blockNumber": "0x13f8958",
          "transactionHash": "0x60a38ed10418d26f47cfcd7afe5387abd8d6105ad0ba463be55825bfe7d8061d",
          "transactionIndex": "0x28",
          "logIndex": "0x46",
          "removed": false
        }
      ],
      "logsBloom": "0x00000000000000000000000000000000000000000000000000000000000000000000000000000000000000000000000000000000000000000800000000000000000000000000000000000000000000000000000000000000020000000000000000000000000000000000000000000000000000000000000000000000000000000000000000000000000000000000000000000000000000000000000000000000000000000000000000000000000000000000004000000000000002000000000000000000400000000000000000000000000000000000000000040000000000000000000000000000000000000000000000000000000000000000000000000000",
      "type": "0x2",
      "transactionHash": "0x60a38ed10418d26f47cfcd7afe5387abd8d6105ad0ba463be55825bfe7d8061d",
      "transactionIndex": "0x28",
      "blockHash": "0x266d8ff5434a86e4011476b9db58eec658554f3406663fecc0755658b0059a3f",
      "blockNumber": "0x13f8958",
      "gasUsed": "0x6cbd",
      "effectiveGasPrice": "0x1489e59",
      "from": "0x5f5c3548f96c7da33a18e5f2f2f13519e1c8bd0d",
      "to": "0x27ab1ef46295406d2190f7dbc4cdcfe6590ce076",
      "contractAddress": null,
      "l1BaseFeeScalar": "0x44d",
      "l1BlobBaseFee": "0x3d7925e",
      "l1BlobBaseFeeScalar": "0xa118b",
      "l1Fee": "0xe319812a6",
      "l1GasPrice": "0x77ec09be6",
      "l1GasUsed": "0x640"
    },
    {
      "status": "0x1",
      "cumulativeGasUsed": "0x92c6c9",
      "logs": [
        {
          "address": "0x27ab1ef46295406d2190f7dbc4cdcfe6590ce076",
          "topics": [
            "0x238399d427b947898edb290f5ff0f9109849b1c3ba196a42e35f00c50a54b98b"
          ],
          "data": "0x0000000000000000000000000000000000000000000000000000000000009caa00000000000000000000000027ab1ef46295406d2190f7dbc4cdcfe6590ce076",
          "blockHash": "0x3b2eaf4d39a9584026a7099523499f18e113631d7dd9145e01df5c5a4ef1aa3d",
          "blockNumber": "0x13f8959",
          "transactionHash": "0xdd8cf03ce7df5fa6e0de63ee3019e7579bd645be544fa8940989dc7669229dce",
          "transactionIndex": "0x1c",
          "logIndex": "0x7d",
          "removed": false
        }
      ],
      "logsBloom": "0x00000000000000000000000000000000000000000000000000000000000000000000000000000000000000000000000000000000000000000800000000000000000000000000000000000000000000000000000000000000020000000000000000000000000000000000000000000000000000000000000000000000000000000000000000000000000000000000000000000000000000000000000000000000000000000000000000000000000000000000004000000000000002000000000000000000400000000000000000000000000000000000000000040000000000000000000000000000000000000000000000000000000000000000000000000000",
      "type": "0x2",
      "transactionHash": "0xdd8cf03ce7df5fa6e0de63ee3019e7579bd645be544fa8940989dc7669229dce",
      "transactionIndex": "0x1c",
      "blockHash": "0x3b2eaf4d39a9584026a7099523499f18e113631d7dd9145e01df5c5a4ef1aa3d",
      "blockNumber": "0x13f8959",
      "gasUsed": "0x6cbd",
      "effectiveGasPrice": "0x14850ea",
      "from": "0x5f5c3548f96c7da33a18e5f2f2f13519e1c8bd0d",
      "to": "0x27ab1ef46295406d2190f7dbc4cdcfe6590ce076",
      "contractAddress": null,
      "l1BaseFeeScalar": "0x44d",
      "l1BlobBaseFee": "0x3d7925e",
      "l1BlobBaseFeeScalar": "0xa118b",
      "l1Fee": "0xe319812a6",
      "l1GasPrice": "0x77ec09be6",
      "l1GasUsed": "0x640"
    },
    {
      "status": "0x1",
      "cumulativeGasUsed": "0x47654f",
      "logs": [
        {
          "address": "0x27ab1ef46295406d2190f7dbc4cdcfe6590ce076",
          "topics": [
            "0x238399d427b947898edb290f5ff0f9109849b1c3ba196a42e35f00c50a54b98b"
          ],
          "data": "0x0000000000000000000000000000000000000000000000000000000000009d3500000000000000000000000027ab1ef46295406d2190f7dbc4cdcfe6590ce076",
          "blockHash": "0x6e01265de424ed09c681288460dbf229e0313f0a278a61837de63ee143edf22a",
          "blockNumber": "0x13f895a",
          "transactionHash": "0x976e14170703641355be45b61e99fb12584a9d2deab7ab66da1cd3082054ee1f",
          "transactionIndex": "0x22",
          "logIndex": "0x4e",
          "removed": false
        }
      ],
      "logsBloom": "0x00000000000000000000000000000000000000000000000000000000000000000000000000000000000000000000000000000000000000000800000000000000000000000000000000000000000000000000000000000000020000000000000000000000000000000000000000000000000000000000000000000000000000000000000000000000000000000000000000000000000000000000000000000000000000000000000000000000000000000000004000000000000002000000000000000000400000000000000000000000000000000000000000040000000000000000000000000000000000000000000000000000000000000000000000000000",
      "type": "0x2",
      "transactionHash": "0x976e14170703641355be45b61e99fb12584a9d2deab7ab66da1cd3082054ee1f",
      "transactionIndex": "0x22",
      "blockHash": "0x6e01265de424ed09c681288460dbf229e0313f0a278a61837de63ee143edf22a",
      "blockNumber": "0x13f895a",
      "gasUsed": "0x6cbd",
      "effectiveGasPrice": "0x1492715",
      "from": "0x5f5c3548f96c7da33a18e5f2f2f13519e1c8bd0d",
      "to": "0x27ab1ef46295406d2190f7dbc4cdcfe6590ce076",
      "contractAddress": null,
      "l1BaseFeeScalar": "0x44d",
      "l1BlobBaseFee": "0x3d7925e",
      "l1BlobBaseFeeScalar": "0xa118b",
      "l1Fee": "0xe319812a6",
      "l1GasPrice": "0x77ec09be6",
      "l1GasUsed": "0x640"
    }
  ],
  "libraries": [],
  "pending": [],
  "returns": {},
  "timestamp": 1737650581,
  "chain": 84532,
  "commit": "d42b421"
}