{
  "transactions": [
    {
      "hash": "0x25de624436ed248de16cbbd57cf86cfc3329d65982a517dc1efc707a172da1d0",
      "transactionType": "CALL",
      "contractName": null,
      "contractAddress": "0x354b7deb6f6aa08a683461d5a6451e22458b17ee",
      "function": "setPeer(uint32,bytes32)",
      "arguments": [
        "40245",
        "0x000000000000000000000000354b7deb6f6aa08a683461d5a6451e22458b17ee"
      ],
      "transaction": {
        "from": "0x5f5c3548f96c7da33a18e5f2f2f13519e1c8bd0d",
        "to": "0x354b7deb6f6aa08a683461d5a6451e22458b17ee",
        "gas": "0x110b7",
        "value": "0x0",
        "input": "0x3400288b0000000000000000000000000000000000000000000000000000000000009d35000000000000000000000000354b7deb6f6aa08a683461d5a6451e22458b17ee",
        "nonce": "0x114",
        "chainId": "0x14a34"
      },
      "additionalContracts": [],
      "isFixedGasLimit": false
    },
    {
      "hash": "0x3cd8323c5a13772a76bee4a096449c77c11e55bdb36b15afab66bceb596ef316",
      "transactionType": "CALL",
      "contractName": null,
      "contractAddress": "0x354b7deb6f6aa08a683461d5a6451e22458b17ee",
      "function": "setPeer(uint32,bytes32)",
      "arguments": [
        "40161",
        "0x000000000000000000000000354b7deb6f6aa08a683461d5a6451e22458b17ee"
      ],
      "transaction": {
        "from": "0x5f5c3548f96c7da33a18e5f2f2f13519e1c8bd0d",
        "to": "0x354b7deb6f6aa08a683461d5a6451e22458b17ee",
        "gas": "0x110b7",
        "value": "0x0",
        "input": "0x3400288b0000000000000000000000000000000000000000000000000000000000009ce1000000000000000000000000354b7deb6f6aa08a683461d5a6451e22458b17ee",
        "nonce": "0x115",
        "chainId": "0x14a34"
      },
      "additionalContracts": [],
      "isFixedGasLimit": false
    }
  ],
  "receipts": [
    {
      "status": "0x1",
      "cumulativeGasUsed": "0x150691",
      "logs": [
        {
          "address": "0x354b7deb6f6aa08a683461d5a6451e22458b17ee",
          "topics": [
            "0x238399d427b947898edb290f5ff0f9109849b1c3ba196a42e35f00c50a54b98b"
          ],
          "data": "0x0000000000000000000000000000000000000000000000000000000000009d35000000000000000000000000354b7deb6f6aa08a683461d5a6451e22458b17ee",
          "blockHash": "0xf655835d051f65c4d58014d193ea0651e58fcda54f66892dc4df32e5a1f3b31f",
          "blockNumber": "0x13bbd05",
          "transactionHash": "0x25de624436ed248de16cbbd57cf86cfc3329d65982a517dc1efc707a172da1d0",
          "transactionIndex": "0xf",
          "logIndex": "0x1b",
          "removed": false
        }
      ],
      "logsBloom": "0x00000000000000000000000000000000000000000000000000000000000000000000000000000000000000000000000000000000000000000800000000000000000000000000000000000000000000000000000000000000000000000000000000000000000000000000000000000000000000000000000000000000000000000000000000000000000000000000000000000000000000000000000000000000000000000000000000004000000000000004000000000000000002000000000000000000000000000000000000000000008000000000000000040000000000000000000000000000000000000000000000000000000000000000000000000000",
      "type": "0x2",
      "transactionHash": "0x25de624436ed248de16cbbd57cf86cfc3329d65982a517dc1efc707a172da1d0",
      "transactionIndex": "0xf",
      "blockHash": "0xf655835d051f65c4d58014d193ea0651e58fcda54f66892dc4df32e5a1f3b31f",
      "blockNumber": "0x13bbd05",
      "gasUsed": "0xba79",
      "effectiveGasPrice": "0x4036de4c",
      "from": "0x5f5c3548f96c7da33a18e5f2f2f13519e1c8bd0d",
      "to": "0x354b7deb6f6aa08a683461d5a6451e22458b17ee",
      "contractAddress": null,
      "l1BaseFeeScalar": "0x44d",
      "l1BlobBaseFee": "0x1",
      "l1BlobBaseFeeScalar": "0xa118b",
      "l1Fee": "0x624cb0a7",
      "l1GasPrice": "0x37cd21de",
      "l1GasUsed": "0x640"
    },
    {
      "status": "0x1",
      "cumulativeGasUsed": "0x15c10a",
      "logs": [
        {
          "address": "0x354b7deb6f6aa08a683461d5a6451e22458b17ee",
          "topics": [
            "0x238399d427b947898edb290f5ff0f9109849b1c3ba196a42e35f00c50a54b98b"
          ],
          "data": "0x0000000000000000000000000000000000000000000000000000000000009ce1000000000000000000000000354b7deb6f6aa08a683461d5a6451e22458b17ee",
          "blockHash": "0xf655835d051f65c4d58014d193ea0651e58fcda54f66892dc4df32e5a1f3b31f",
          "blockNumber": "0x13bbd05",
          "transactionHash": "0x3cd8323c5a13772a76bee4a096449c77c11e55bdb36b15afab66bceb596ef316",
          "transactionIndex": "0x10",
          "logIndex": "0x1c",
          "removed": false
        }
      ],
      "logsBloom": "0x00000000000000000000000000000000000000000000000000000000000000000000000000000000000000000000000000000000000000000800000000000000000000000000000000000000000000000000000000000000000000000000000000000000000000000000000000000000000000000000000000000000000000000000000000000000000000000000000000000000000000000000000000000000000000000000000000004000000000000004000000000000000002000000000000000000000000000000000000000000008000000000000000040000000000000000000000000000000000000000000000000000000000000000000000000000",
      "type": "0x2",
      "transactionHash": "0x3cd8323c5a13772a76bee4a096449c77c11e55bdb36b15afab66bceb596ef316",
      "transactionIndex": "0x10",
      "blockHash": "0xf655835d051f65c4d58014d193ea0651e58fcda54f66892dc4df32e5a1f3b31f",
      "blockNumber": "0x13bbd05",
      "gasUsed": "0xba79",
      "effectiveGasPrice": "0x4036de4c",
      "from": "0x5f5c3548f96c7da33a18e5f2f2f13519e1c8bd0d",
      "to": "0x354b7deb6f6aa08a683461d5a6451e22458b17ee",
      "contractAddress": null,
      "l1BaseFeeScalar": "0x44d",
      "l1BlobBaseFee": "0x1",
      "l1BlobBaseFeeScalar": "0xa118b",
      "l1Fee": "0x624cb0a7",
      "l1GasPrice": "0x37cd21de",
      "l1GasUsed": "0x640"
    }
  ],
  "libraries": [],
  "pending": [],
  "returns": {},
  "timestamp": 1737152752,
  "chain": 84532,
  "commit": "95f2893"
}