{
  "transactions": [
    {
      "hash": "0x7999de744c011f0d41d9b4ee068b31bb4f2d2edf7c9aafec15f9f2a01cfc205e",
      "transactionType": "CREATE2",
      "contractName": "MigrateHLGToGAINS",
      "contractAddress": "0x34a9498da854d19aef6391f9bc4c71ba933b72ae",
      "function": null,
      "arguments": [
        "0x5Ff07042d14E60EC1de7a860BBE968344431BaA1",
        "0x354B7DEb6f6aa08a683461d5a6451E22458b17Ee"
      ],
      "transaction": {
        "from": "0x5f5c3548f96c7da33a18e5f2f2f13519e1c8bd0d",
        "to": "0x4e59b44847b379578588920ca78fbf26c0b4956c",
        "gas": "0x51dd7",
        "value": "0x0",
        "input": "0xb79fb97836ff7f4eb06d11681372d6fadaba0e908192ee470dca05925a570bef60c034608a57601f61041838819003918201601f19168301916001600160401b03831184841017608e578084926040948552833981010312608a57604b602060458360a2565b920160a2565b6001600160a01b039182166080521660a05260405161036290816100b6823960805181818160fb015261018f015260a051818181608901526101e90152f35b5f80fd5b634e487b7160e01b5f52604160045260245ffd5b51906001600160a01b0382168203608a5756fe6080806040526004361015610012575f80fd5b5f905f3560e01c908163454b06081461011f5750806398d98cf7146100b05763ac653b291461003f575f80fd5b346100ad57807ffffffffffffffffffffffffffffffffffffffffffffffffffffffffffffffffc3601126100ad57602060405173ffffffffffffffffffffffffffffffffffffffff7f0000000000000000000000000000000000000000000000000000000000000000168152f35b80fd5b50346100ad57807ffffffffffffffffffffffffffffffffffffffffffffffffffffffffffffffffc3601126100ad57602060405173ffffffffffffffffffffffffffffffffffffffff7f0000000000000000000000000000000000000000000000000000000000000000168152f35b9050346102ac5760207ffffffffffffffffffffffffffffffffffffffffffffffffffffffffffffffffc3601126102ac577f79cc6790000000000000000000000000000000000000000000000000000000008152336004808301919091523560248201819052906020816044815f7f000000000000000000000000000000000000000000000000000000000000000073ffffffffffffffffffffffffffffffffffffffff165af180156102a1576102b0575b5073ffffffffffffffffffffffffffffffffffffffff7f000000000000000000000000000000000000000000000000000000000000000016803b156102ac576040517f780b552800000000000000000000000000000000000000000000000000000000815233600482015260248101839052905f908290604490829084905af180156102a15761028c575b506040519081527fbe23cfe531c8abbef2530817cad35e7424ac7ffbada01b9463d1509e1523b26860203392a280f35b6102999192505f906102e7565b5f905f61025c565b6040513d5f823e3d90fd5b5f80fd5b6020813d6020116102df575b816102c9602093836102e7565b810103126102ac575180151581146101d1575f80fd5b3d91506102bc565b90601f7fffffffffffffffffffffffffffffffffffffffffffffffffffffffffffffffe0910116810190811067ffffffffffffffff82111761032857604052565b7f4e487b71000000000000000000000000000000000000000000000000000000005f52604160045260245ffdfea164736f6c634300081a000a0000000000000000000000005ff07042d14e60ec1de7a860bbe968344431baa1000000000000000000000000354b7deb6f6aa08a683461d5a6451e22458b17ee",
        "nonce": "0x122",
        "chainId": "0xaa36a7"
      },
      "additionalContracts": [],
      "isFixedGasLimit": false
    },
    {
      "hash": "0x94de513e1daacc5f140ea62ddc98a86c5eb9262368b314cced4358a1145a1d4c",
      "transactionType": "CALL",
      "contractName": null,
      "contractAddress": "0x354b7deb6f6aa08a683461d5a6451e22458b17ee",
      "function": "setMigrationContract(address)",
      "arguments": [
        "0x34A9498DA854D19AEF6391F9Bc4C71BA933b72aE"
      ],
      "transaction": {
        "from": "0x5f5c3548f96c7da33a18e5f2f2f13519e1c8bd0d",
        "to": "0x354b7deb6f6aa08a683461d5a6451e22458b17ee",
        "gas": "0xa7c8",
        "value": "0x0",
        "input": "0x88b79cec00000000000000000000000034a9498da854d19aef6391f9bc4c71ba933b72ae",
        "nonce": "0x123",
        "chainId": "0xaa36a7"
      },
      "additionalContracts": [],
      "isFixedGasLimit": false
    }
  ],
  "receipts": [
    {
      "status": "0x1",
      "cumulativeGasUsed": "0xe389d3",
      "logs": [],
      "logsBloom": "0x00000000000000000000000000000000000000000000000000000000000000000000000000000000000000000000000000000000000000000000000000000000000000000000000000000000000000000000000000000000000000000000000000000000000000000000000000000000000000000000000000000000000000000000000000000000000000000000000000000000000000000000000000000000000000000000000000000000000000000000000000000000000000000000000000000000000000000000000000000000000000000000000000000000000000000000000000000000000000000000000000000000000000000000000000000000",
      "type": "0x2",
      "transactionHash": "0x7999de744c011f0d41d9b4ee068b31bb4f2d2edf7c9aafec15f9f2a01cfc205e",
      "transactionIndex": "0x86",
      "blockHash": "0x88ddf5b23dfcc3901687086a1c099f6c674ffd368b736c6da3febf65c2b847d6",
      "blockNumber": "0x72a5b8",
      "gasUsed": "0x3b44e",
      "effectiveGasPrice": "0x471fc0cb",
      "from": "0x5f5c3548f96c7da33a18e5f2f2f13519e1c8bd0d",
      "to": "0x4e59b44847b379578588920ca78fbf26c0b4956c",
      "contractAddress": "0x34a9498da854d19aef6391f9bc4c71ba933b72ae"
    },
    {
      "status": "0x1",
      "cumulativeGasUsed": "0xe3fc8c",
      "logs": [],
      "logsBloom": "0x00000000000000000000000000000000000000000000000000000000000000000000000000000000000000000000000000000000000000000000000000000000000000000000000000000000000000000000000000000000000000000000000000000000000000000000000000000000000000000000000000000000000000000000000000000000000000000000000000000000000000000000000000000000000000000000000000000000000000000000000000000000000000000000000000000000000000000000000000000000000000000000000000000000000000000000000000000000000000000000000000000000000000000000000000000000",
      "type": "0x2",
      "transactionHash": "0x94de513e1daacc5f140ea62ddc98a86c5eb9262368b314cced4358a1145a1d4c",
      "transactionIndex": "0x87",
      "blockHash": "0x88ddf5b23dfcc3901687086a1c099f6c674ffd368b736c6da3febf65c2b847d6",
      "blockNumber": "0x72a5b8",
      "gasUsed": "0x72b9",
      "effectiveGasPrice": "0x471fc0cb",
      "from": "0x5f5c3548f96c7da33a18e5f2f2f13519e1c8bd0d",
      "to": "0x354b7deb6f6aa08a683461d5a6451e22458b17ee",
      "contractAddress": null
    }
  ],
  "libraries": [],
  "pending": [],
  "returns": {},
  "timestamp": 1737145453,
  "chain": 11155111,
  "commit": "f5ff9a1"
}