{
  "transactions": [
    {
      "hash": "0xb9ff492a6be8f17da9fe8b249c695276f691d932963d21538e85bd9e819f861a",
      "transactionType": "CALL",
      "contractName": null,
      "contractAddress": "0x8eac6c56fc6da331c7d7c41dff825a9579272f2f",
      "function": "addToAllowlist(address)",
      "arguments": [
        "0x62f6572f783fFD3C02f0Fa1BC8EC89E8b9714048"
      ],
      "transaction": {
        "from": "0x5f5c3548f96c7da33a18e5f2f2f13519e1c8bd0d",
        "to": "0x8eac6c56fc6da331c7d7c41dff825a9579272f2f",
        "gas": "0xffb1",
        "value": "0x0",
        "input": "0xf8e86ece00000000000000000000000062f6572f783ffd3c02f0fa1bc8ec89e8b9714048",
        "nonce": "0x14b",
        "chainId": "0x14a34"
      },
      "additionalContracts": [],
      "isFixedGasLimit": false
    },
    {
      "hash": "0xb4011c55ea3aa4cdba0d355414975ba19d3fd0a24cff6360a469d6a191077508",
      "transactionType": "CALL",
      "contractName": null,
      "contractAddress": "0x8eac6c56fc6da331c7d7c41dff825a9579272f2f",
      "function": "addToAllowlist(address)",
      "arguments": [
        "0xD17e8cEe2EC7fEE30e9F9ECB82EaB918659872AF"
      ],
      "transaction": {
        "from": "0x5f5c3548f96c7da33a18e5f2f2f13519e1c8bd0d",
        "to": "0x8eac6c56fc6da331c7d7c41dff825a9579272f2f",
        "gas": "0xffb1",
        "value": "0x0",
        "input": "0xf8e86ece000000000000000000000000d17e8cee2ec7fee30e9f9ecb82eab918659872af",
        "nonce": "0x14c",
        "chainId": "0x14a34"
      },
      "additionalContracts": [],
      "isFixedGasLimit": false
    },
    {
      "hash": "0x020edda03953a2136fd3daca048839896b111c12639c378ddbe1bd26b2152211",
      "transactionType": "CALL",
      "contractName": null,
      "contractAddress": "0x8eac6c56fc6da331c7d7c41dff825a9579272f2f",
      "function": "addToAllowlist(address)",
      "arguments": [
        "0x1eF43B825f6D1c3BfA93B3951e711F5d64550BDA"
      ],
      "transaction": {
        "from": "0x5f5c3548f96c7da33a18e5f2f2f13519e1c8bd0d",
        "to": "0x8eac6c56fc6da331c7d7c41dff825a9579272f2f",
        "gas": "0xffb1",
        "value": "0x0",
        "input": "0xf8e86ece0000000000000000000000001ef43b825f6d1c3bfa93b3951e711f5d64550bda",
        "nonce": "0x14d",
        "chainId": "0x14a34"
      },
      "additionalContracts": [],
      "isFixedGasLimit": false
    },
    {
      "hash": "0x58e80c65060c7d1e093b0a850b2eee3499cdcf2859c4ef432924157bd0a25305",
      "transactionType": "CALL",
      "contractName": null,
      "contractAddress": "0x8eac6c56fc6da331c7d7c41dff825a9579272f2f",
      "function": "addToAllowlist(address)",
      "arguments": [
        "0x5f5C3548f96C7DA33A18E5F2F2f13519e1c8bD0d"
      ],
      "transaction": {
        "from": "0x5f5c3548f96c7da33a18e5f2f2f13519e1c8bd0d",
        "to": "0x8eac6c56fc6da331c7d7c41dff825a9579272f2f",
        "gas": "0xffb1",
        "value": "0x0",
        "input": "0xf8e86ece0000000000000000000000005f5c3548f96c7da33a18e5f2f2f13519e1c8bd0d",
        "nonce": "0x14e",
        "chainId": "0x14a34"
      },
      "additionalContracts": [],
      "isFixedGasLimit": false
    }
  ],
  "receipts": [
    {
      "status": "0x1",
      "cumulativeGasUsed": "0x7198e9",
      "logs": [
        {
          "address": "0x8eac6c56fc6da331c7d7c41dff825a9579272f2f",
          "topics": [
            "0xae6a58ee3666874547982a5c31620ca570592085a3e45d7bd52081fdd0082bc5",
            "0x00000000000000000000000062f6572f783ffd3c02f0fa1bc8ec89e8b9714048"
          ],
          "data": "0x",
          "blockHash": "0x334f9e2364a0677e0bbc2ad4d5e7ce6b2e3e0311728a86e7b7d3fc0950a46697",
          "blockNumber": "0x14c5647",
          "transactionHash": "0xb9ff492a6be8f17da9fe8b249c695276f691d932963d21538e85bd9e819f861a",
          "transactionIndex": "0x35",
          "logIndex": "0xad",
          "removed": false
        }
      ],
      "logsBloom": "0x00040080000000000000000000000000001000000000000000000000000000000000000000000000000000000000000000000000000000000000000000000000000000000000000000000000000000000000000000000000000000000000000000000000000000000000000000000000000000000000000000000000000000000040000000000000000000000000000000000000000000000000800000000000000000000000000040000000000000002000000000000010000000000000000000000000000000000000000000000000000000000000000000000000000000000000000000000000000000000000000000000000000010000000000000000000",
      "type": "0x2",
      "transactionHash": "0xb9ff492a6be8f17da9fe8b249c695276f691d932963d21538e85bd9e819f861a",
      "transactionIndex": "0x35",
      "blockHash": "0x334f9e2364a0677e0bbc2ad4d5e7ce6b2e3e0311728a86e7b7d3fc0950a46697",
      "blockNumber": "0x14c5647",
      "gasUsed": "0xb91f",
      "effectiveGasPrice": "0xefa38",
      "from": "0x5f5c3548f96c7da33a18e5f2f2f13519e1c8bd0d",
      "to": "0x8eac6c56fc6da331c7d7c41dff825a9579272f2f",
      "contractAddress": null,
      "l1BaseFeeScalar": "0x44d",
      "l1BlobBaseFee": "0x1",
      "l1BlobBaseFeeScalar": "0xa118b",
      "l1Fee": "0x8cc575d7",
      "l1GasPrice": "0x4fe93b4f",
      "l1GasUsed": "0x640"
    },
    {
      "status": "0x1",
      "cumulativeGasUsed": "0x725208",
      "logs": [
        {
          "address": "0x8eac6c56fc6da331c7d7c41dff825a9579272f2f",
          "topics": [
            "0xae6a58ee3666874547982a5c31620ca570592085a3e45d7bd52081fdd0082bc5",
            "0x000000000000000000000000d17e8cee2ec7fee30e9f9ecb82eab918659872af"
          ],
          "data": "0x",
          "blockHash": "0x334f9e2364a0677e0bbc2ad4d5e7ce6b2e3e0311728a86e7b7d3fc0950a46697",
          "blockNumber": "0x14c5647",
          "transactionHash": "0xb4011c55ea3aa4cdba0d355414975ba19d3fd0a24cff6360a469d6a191077508",
          "transactionIndex": "0x36",
          "logIndex": "0xae",
          "removed": false
        }
      ],
      "logsBloom": "0x00000080000000000000000000000000000000000000000000000000000000000000000000000000000000000000000000000000000000000000000000000000000000000000000000000000000000000000000000000000000000000000000000000000000000000000000000000000000000000000000000000000000000000040080000000000000000000000000000000000000000000000800000000000000000000000000000000000000000002000000000000010400008000000000000000000000000000000000000000000000000000000000000000000000000000000000000000000000000000000000000000000000010000000000000000000",
      "type": "0x2",
      "transactionHash": "0xb4011c55ea3aa4cdba0d355414975ba19d3fd0a24cff6360a469d6a191077508",
      "transactionIndex": "0x36",
      "blockHash": "0x334f9e2364a0677e0bbc2ad4d5e7ce6b2e3e0311728a86e7b7d3fc0950a46697",
      "blockNumber": "0x14c5647",
      "gasUsed": "0xb91f",
      "effectiveGasPrice": "0xefa38",
      "from": "0x5f5c3548f96c7da33a18e5f2f2f13519e1c8bd0d",
      "to": "0x8eac6c56fc6da331c7d7c41dff825a9579272f2f",
      "contractAddress": null,
      "l1BaseFeeScalar": "0x44d",
      "l1BlobBaseFee": "0x1",
      "l1BlobBaseFeeScalar": "0xa118b",
      "l1Fee": "0x8cc575d7",
      "l1GasPrice": "0x4fe93b4f",
      "l1GasUsed": "0x640"
    },
    {
      "status": "0x1",
      "cumulativeGasUsed": "0x730b27",
      "logs": [
        {
          "address": "0x8eac6c56fc6da331c7d7c41dff825a9579272f2f",
          "topics": [
            "0xae6a58ee3666874547982a5c31620ca570592085a3e45d7bd52081fdd0082bc5",
            "0x0000000000000000000000001ef43b825f6d1c3bfa93b3951e711f5d64550bda"
          ],
          "data": "0x",
          "blockHash": "0x334f9e2364a0677e0bbc2ad4d5e7ce6b2e3e0311728a86e7b7d3fc0950a46697",
          "blockNumber": "0x14c5647",
          "transactionHash": "0x020edda03953a2136fd3daca048839896b111c12639c378ddbe1bd26b2152211",
          "transactionIndex": "0x37",
          "logIndex": "0xaf",
          "removed": false
        }
      ],
      "logsBloom": "0x00000080000000000000000000000000000000000000000000000000000000000000000000000000000000000000000000000000000000000000000000000000000000000000000000000000000000000000000000000000000000000000000000000000000000000000000000000000008000000000000000000000000000000040000000000000000000000000000000000000000000000000800000000000000000000000000000000000000000002000000000000010000000000000000000000000000000020000000000000000000000000000000000000000000000000000800000000000000000000000000000000000000010000000000000000000",
      "type": "0x2",
      "transactionHash": "0x020edda03953a2136fd3daca048839896b111c12639c378ddbe1bd26b2152211",
      "transactionIndex": "0x37",
      "blockHash": "0x334f9e2364a0677e0bbc2ad4d5e7ce6b2e3e0311728a86e7b7d3fc0950a46697",
      "blockNumber": "0x14c5647",
      "gasUsed": "0xb91f",
      "effectiveGasPrice": "0xefa38",
      "from": "0x5f5c3548f96c7da33a18e5f2f2f13519e1c8bd0d",
      "to": "0x8eac6c56fc6da331c7d7c41dff825a9579272f2f",
      "contractAddress": null,
      "l1BaseFeeScalar": "0x44d",
      "l1BlobBaseFee": "0x1",
      "l1BlobBaseFeeScalar": "0xa118b",
      "l1Fee": "0x8cc575d7",
      "l1GasPrice": "0x4fe93b4f",
      "l1GasUsed": "0x640"
    },
    {
      "status": "0x1",
      "cumulativeGasUsed": "0x73c446",
      "logs": [
        {
          "address": "0x8eac6c56fc6da331c7d7c41dff825a9579272f2f",
          "topics": [
            "0xae6a58ee3666874547982a5c31620ca570592085a3e45d7bd52081fdd0082bc5",
            "0x0000000000000000000000005f5c3548f96c7da33a18e5f2f2f13519e1c8bd0d"
          ],
          "data": "0x",
          "blockHash": "0x334f9e2364a0677e0bbc2ad4d5e7ce6b2e3e0311728a86e7b7d3fc0950a46697",
          "blockNumber": "0x14c5647",
          "transactionHash": "0x58e80c65060c7d1e093b0a850b2eee3499cdcf2859c4ef432924157bd0a25305",
          "transactionIndex": "0x38",
          "logIndex": "0xb0",
          "removed": false
        }
      ],
      "logsBloom": "0x00000080000000000000000000000000000000000000000000000000000000000000000000000000000000000000000000000000000000000000000000000000000000000000000000000000000000000000000000000000000000000000000000000000000000000000000000000000000000000000000000000000000000000040000000000000000000000000000000000000000000000000800000000000000000000020000000000000000000002000002000000010000000000000800000000000000000000000000000000000000000000000000000000000000000000000000000000000000000000000000000000000000010000000000000000000",
      "type": "0x2",
      "transactionHash": "0x58e80c65060c7d1e093b0a850b2eee3499cdcf2859c4ef432924157bd0a25305",
      "transactionIndex": "0x38",
      "blockHash": "0x334f9e2364a0677e0bbc2ad4d5e7ce6b2e3e0311728a86e7b7d3fc0950a46697",
      "blockNumber": "0x14c5647",
      "gasUsed": "0xb91f",
      "effectiveGasPrice": "0xefa38",
      "from": "0x5f5c3548f96c7da33a18e5f2f2f13519e1c8bd0d",
      "to": "0x8eac6c56fc6da331c7d7c41dff825a9579272f2f",
      "contractAddress": null,
      "l1BaseFeeScalar": "0x44d",
      "l1BlobBaseFee": "0x1",
      "l1BlobBaseFeeScalar": "0xa118b",
      "l1Fee": "0x8cc575d7",
      "l1GasPrice": "0x4fe93b4f",
      "l1GasUsed": "0x640"
    }
  ],
  "libraries": [],
  "pending": [],
  "returns": {},
  "timestamp": 1739328367,
  "chain": 84532,
  "commit": "27783ec"
}