{
  "transactions": [
    {
      "hash": "0x88289e4987c133690ab693071f253fa8ab754cb7b6f7e730a2112b6534f3340a",
      "transactionType": "CALL",
      "contractName": null,
      "contractAddress": "0x354b7deb6f6aa08a683461d5a6451e22458b17ee",
      "function": "approve(address,uint256)",
      "arguments": [
        "0x354B7DEb6f6aa08a683461d5a6451E22458b17Ee",
        "1000000000000000000"
      ],
      "transaction": {
        "from": "0x5f5c3548f96c7da33a18e5f2f2f13519e1c8bd0d",
        "to": "0x354b7deb6f6aa08a683461d5a6451e22458b17ee",
        "gas": "0x10691",
        "value": "0x0",
        "input": "0x095ea7b3000000000000000000000000354b7deb6f6aa08a683461d5a6451e22458b17ee0000000000000000000000000000000000000000000000000de0b6b3a7640000",
        "nonce": "0x126",
        "chainId": "0xaa36a7"
      },
      "additionalContracts": [],
      "isFixedGasLimit": false
    }
  ],
  "receipts": [
    {
      "status": "0x1",
      "cumulativeGasUsed": "0xe784b4",
      "logs": [
        {
          "address": "0x354b7deb6f6aa08a683461d5a6451e22458b17ee",
          "topics": [
            "0x8c5be1e5ebec7d5bd14f71427d1e84f3dd0314c0f7b2291e5b200ac8c7c3b925",
            "0x0000000000000000000000005f5c3548f96c7da33a18e5f2f2f13519e1c8bd0d",
            "0x000000000000000000000000354b7deb6f6aa08a683461d5a6451e22458b17ee"
          ],
          "data": "0x0000000000000000000000000000000000000000000000000de0b6b3a7640000",
          "blockHash": "0x8c8316523c20a3317e0cc3ad2b49b8ccbc54caca1c357ccd0dce78b3946342f3",
          "blockNumber": "0x72a75e",
          "transactionHash": "0x88289e4987c133690ab693071f253fa8ab754cb7b6f7e730a2112b6534f3340a",
          "transactionIndex": "0x79",
          "logIndex": "0xa0",
          "removed": false
        }
      ],
      "logsBloom": "0x00000000000000000000000000000000000000000000000000000000000000000000000000000000000000000000000000000000000000000000000000200000000000000000000008000000000000000000000000000000000000000000000000000000000000000000000000000000000000000000000000000000000000000000000000000000000000000000000100000000020000000000000000000000020000000020000000004000000000000004002000000000000000000000800000000000000000000000000000000000008000000000000000000000000000000010000000000000000000000000000000000000000000000000000000000000",
      "type": "0x2",
      "transactionHash": "0x88289e4987c133690ab693071f253fa8ab754cb7b6f7e730a2112b6534f3340a",
      "transactionIndex": "0x79",
      "blockHash": "0x8c8316523c20a3317e0cc3ad2b49b8ccbc54caca1c357ccd0dce78b3946342f3",
      "blockNumber": "0x72a75e",
      "gasUsed": "0xb389",
      "effectiveGasPrice": "0x42ce910f",
      "from": "0x5f5c3548f96c7da33a18e5f2f2f13519e1c8bd0d",
      "to": "0x354b7deb6f6aa08a683461d5a6451e22458b17ee",
      "contractAddress": null
    }
  ],
  "libraries": [],
  "pending": [],
  "returns": {},
  "timestamp": 1737150554,
  "chain": 11155111,
  "commit": "f5ff9a1"
}