{
  "transactions": [
    {
      "hash": "0x73b3eb87a0140595edf7465a6ca1a1fb54263da9319cc2599b0da0c7902a204b",
      "transactionType": "CALL",
      "contractName": null,
      "contractAddress": "0x27ab1ef46295406d2190f7dbc4cdcfe6590ce076",
      "function": "setPeer(uint32,bytes32)",
      "arguments": [
        "40245",
        "0x00000000000000000000000027ab1ef46295406d2190f7dbc4cdcfe6590ce076"
      ],
      "transaction": {
        "from": "0x5f5c3548f96c7da33a18e5f2f2f13519e1c8bd0d",
        "to": "0x27ab1ef46295406d2190f7dbc4cdcfe6590ce076",
        "gas": "0x9630",
        "value": "0x0",
        "input": "0x3400288b0000000000000000000000000000000000000000000000000000000000009d3500000000000000000000000027ab1ef46295406d2190f7dbc4cdcfe6590ce076",
        "nonce": "0x149",
        "chainId": "0xaa36a7"
      },
      "additionalContracts": [],
      "isFixedGasLimit": false
    },
    {
      "hash": "0xf9b5825e24f50d88703a824ac3c92e2c65154f9579735e9fd4462b3955ceba2c",
      "transactionType": "CALL",
      "contractName": null,
      "contractAddress": "0x27ab1ef46295406d2190f7dbc4cdcfe6590ce076",
      "function": "setPeer(uint32,bytes32)",
      "arguments": [
        "40161",
        "0x00000000000000000000000027ab1ef46295406d2190f7dbc4cdcfe6590ce076"
      ],
      "transaction": {
        "from": "0x5f5c3548f96c7da33a18e5f2f2f13519e1c8bd0d",
        "to": "0x27ab1ef46295406d2190f7dbc4cdcfe6590ce076",
        "gas": "0x9630",
        "value": "0x0",
        "input": "0x3400288b0000000000000000000000000000000000000000000000000000000000009ce100000000000000000000000027ab1ef46295406d2190f7dbc4cdcfe6590ce076",
        "nonce": "0x14a",
        "chainId": "0xaa36a7"
      },
      "additionalContracts": [],
      "isFixedGasLimit": false
    },
    {
      "hash": "0x31b924270e5b4606411956bdedd026b70859461973876835d2e0daa780e59f03",
      "transactionType": "CALL",
      "contractName": null,
      "contractAddress": "0x27ab1ef46295406d2190f7dbc4cdcfe6590ce076",
      "function": "approve(address,uint256)",
      "arguments": [
        "0x27ab1eF46295406d2190f7DbC4cDCFe6590CE076",
        "1000000000000000000"
      ],
      "transaction": {
        "from": "0x5f5c3548f96c7da33a18e5f2f2f13519e1c8bd0d",
        "to": "0x27ab1ef46295406d2190f7dbc4cdcfe6590ce076",
        "gas": "0x10691",
        "value": "0x0",
        "input": "0x095ea7b300000000000000000000000027ab1ef46295406d2190f7dbc4cdcfe6590ce0760000000000000000000000000000000000000000000000000de0b6b3a7640000",
        "nonce": "0x14b",
        "chainId": "0xaa36a7"
      },
      "additionalContracts": [],
      "isFixedGasLimit": false
    },
    {
      "hash": "0xf83c2d1b07469c2e67aeadc5ba1632c39c390519b42e8a757006e76d4a07a4c0",
      "transactionType": "CALL",
      "contractName": null,
      "contractAddress": "0x27ab1ef46295406d2190f7dbc4cdcfe6590ce076",
      "function": "send((uint32,bytes32,uint256,uint256,bytes,bytes,bytes),(uint256,uint256),address)",
      "arguments": [
        "(40245, 0x0000000000000000000000005f5c3548f96c7da33a18e5f2f2f13519e1c8bd0d, 1000000000000000000, 900000000000000000, 0x0003010011010000000000000000000000000000fde8, 0x, 0x)",
        "(70409426487664, 0)",
        "0x5f5C3548f96C7DA33A18E5F2F2f13519e1c8bD0d"
      ],
      "transaction": {
        "from": "0x5f5c3548f96c7da33a18e5f2f2f13519e1c8bd0d",
        "to": "0x27ab1ef46295406d2190f7dbc4cdcfe6590ce076",
        "gas": "0x55867",
        "value": "0x400978dac970",
        "input": "0xc7c7f5b300000000000000000000000000000000000000000000000000000000000000800000000000000000000000000000000000000000000000000000400978dac97000000000000000000000000000000000000000000000000000000000000000000000000000000000000000005f5c3548f96c7da33a18e5f2f2f13519e1c8bd0d0000000000000000000000000000000000000000000000000000000000009d350000000000000000000000005f5c3548f96c7da33a18e5f2f2f13519e1c8bd0d0000000000000000000000000000000000000000000000000de0b6b3a76400000000000000000000000000000000000000000000000000000c7d713b49da000000000000000000000000000000000000000000000000000000000000000000e00000000000000000000000000000000000000000000000000000000000000120000000000000000000000000000000000000000000000000000000000000014000000000000000000000000000000000000000000000000000000000000000160003010011010000000000000000000000000000fde80000000000000000000000000000000000000000000000000000000000000000000000000000000000000000000000000000000000000000000000000000000000000000000000000000",
        "nonce": "0x14c",
        "chainId": "0xaa36a7"
      },
      "additionalContracts": [],
      "isFixedGasLimit": false
    }
  ],
  "receipts": [
    {
      "status": "0x1",
      "cumulativeGasUsed": "0xb9be9d",
      "logs": [
        {
          "address": "0x27ab1ef46295406d2190f7dbc4cdcfe6590ce076",
          "topics": [
            "0x238399d427b947898edb290f5ff0f9109849b1c3ba196a42e35f00c50a54b98b"
          ],
          "data": "0x0000000000000000000000000000000000000000000000000000000000009d3500000000000000000000000027ab1ef46295406d2190f7dbc4cdcfe6590ce076",
          "blockHash": "0x3c7346089a0146d3c862362bb23c3579470c964a72c3d8cda2fd0c3116284efb",
          "blockNumber": "0x734905",
          "transactionHash": "0x73b3eb87a0140595edf7465a6ca1a1fb54263da9319cc2599b0da0c7902a204b",
          "transactionIndex": "0x96",
          "logIndex": "0xb7",
          "removed": false
        }
      ],
      "logsBloom": "0x00000000000000000000000000000000000000000000000000000000000000000000000000000000000000000000000000000000000000000800000000000000000000000000000000000000000000000000000000000000020000000000000000000000000000000000000000000000000000000000000000000000000000000000000000000000000000000000000000000000000000000000000000000000000000000000000000000000000000000000004000000000000002000000000000000000400000000000000000000000000000000000000000040000000000000000000000000000000000000000000000000000000000000000000000000000",
      "type": "0x2",
      "transactionHash": "0x73b3eb87a0140595edf7465a6ca1a1fb54263da9319cc2599b0da0c7902a204b",
      "transactionIndex": "0x96",
      "blockHash": "0x3c7346089a0146d3c862362bb23c3579470c964a72c3d8cda2fd0c3116284efb",
      "blockNumber": "0x734905",
      "gasUsed": "0x6cbd",
      "effectiveGasPrice": "0xa07cb5904",
      "from": "0x5f5c3548f96c7da33a18e5f2f2f13519e1c8bd0d",
      "to": "0x27ab1ef46295406d2190f7dbc4cdcfe6590ce076",
      "contractAddress": null
    },
    {
      "status": "0x1",
      "cumulativeGasUsed": "0xba2b5a",
      "logs": [
        {
          "address": "0x27ab1ef46295406d2190f7dbc4cdcfe6590ce076",
          "topics": [
            "0x238399d427b947898edb290f5ff0f9109849b1c3ba196a42e35f00c50a54b98b"
          ],
          "data": "0x0000000000000000000000000000000000000000000000000000000000009ce100000000000000000000000027ab1ef46295406d2190f7dbc4cdcfe6590ce076",
          "blockHash": "0x3c7346089a0146d3c862362bb23c3579470c964a72c3d8cda2fd0c3116284efb",
          "blockNumber": "0x734905",
          "transactionHash": "0xf9b5825e24f50d88703a824ac3c92e2c65154f9579735e9fd4462b3955ceba2c",
          "transactionIndex": "0x97",
          "logIndex": "0xb8",
          "removed": false
        }
      ],
      "logsBloom": "0x00000000000000000000000000000000000000000000000000000000000000000000000000000000000000000000000000000000000000000800000000000000000000000000000000000000000000000000000000000000020000000000000000000000000000000000000000000000000000000000000000000000000000000000000000000000000000000000000000000000000000000000000000000000000000000000000000000000000000000000004000000000000002000000000000000000400000000000000000000000000000000000000000040000000000000000000000000000000000000000000000000000000000000000000000000000",
      "type": "0x2",
      "transactionHash": "0xf9b5825e24f50d88703a824ac3c92e2c65154f9579735e9fd4462b3955ceba2c",
      "transactionIndex": "0x97",
      "blockHash": "0x3c7346089a0146d3c862362bb23c3579470c964a72c3d8cda2fd0c3116284efb",
      "blockNumber": "0x734905",
      "gasUsed": "0x6cbd",
      "effectiveGasPrice": "0xa07cb5904",
      "from": "0x5f5c3548f96c7da33a18e5f2f2f13519e1c8bd0d",
      "to": "0x27ab1ef46295406d2190f7dbc4cdcfe6590ce076",
      "contractAddress": null
    },
    {
      "status": "0x1",
      "cumulativeGasUsed": "0xbadee3",
      "logs": [
        {
          "address": "0x27ab1ef46295406d2190f7dbc4cdcfe6590ce076",
          "topics": [
            "0x8c5be1e5ebec7d5bd14f71427d1e84f3dd0314c0f7b2291e5b200ac8c7c3b925",
            "0x0000000000000000000000005f5c3548f96c7da33a18e5f2f2f13519e1c8bd0d",
            "0x00000000000000000000000027ab1ef46295406d2190f7dbc4cdcfe6590ce076"
          ],
          "data": "0x0000000000000000000000000000000000000000000000000de0b6b3a7640000",
          "blockHash": "0x3c7346089a0146d3c862362bb23c3579470c964a72c3d8cda2fd0c3116284efb",
          "blockNumber": "0x734905",
          "transactionHash": "0x31b924270e5b4606411956bdedd026b70859461973876835d2e0daa780e59f03",
          "transactionIndex": "0x98",
          "logIndex": "0xb9",
          "removed": false
        }
      ],
      "logsBloom": "0x00000000000000000000000000000000000000000000000000000000000000000000000000000000000000000800000000000100000000000000000000200000000000000000000000000000000000000000000000000000020000000000000000000000000000000000000000000000000000000000000000000000000000000000000000000000080000000000000000000000000000000000000000000000020000000020000000000000000000000000006000000000000000000000800000000000400000000000000000000000000000000000000000000000000000000010000000000000000000000000000000000000000000000000000000000000",
      "type": "0x2",
      "transactionHash": "0x31b924270e5b4606411956bdedd026b70859461973876835d2e0daa780e59f03",
      "transactionIndex": "0x98",
      "blockHash": "0x3c7346089a0146d3c862362bb23c3579470c964a72c3d8cda2fd0c3116284efb",
      "blockNumber": "0x734905",
      "gasUsed": "0xb389",
      "effectiveGasPrice": "0xa07cb5904",
      "from": "0x5f5c3548f96c7da33a18e5f2f2f13519e1c8bd0d",
      "to": "0x27ab1ef46295406d2190f7dbc4cdcfe6590ce076",
      "contractAddress": null
    },
    {
      "status": "0x1",
      "cumulativeGasUsed": "0xbe868c",
      "logs": [
        {
          "address": "0x27ab1ef46295406d2190f7dbc4cdcfe6590ce076",
          "topics": [
            "0xddf252ad1be2c89b69c2b068fc378daa952ba7f163c4a11628f55a4df523b3ef",
            "0x0000000000000000000000005f5c3548f96c7da33a18e5f2f2f13519e1c8bd0d",
            "0x0000000000000000000000000000000000000000000000000000000000000000"
          ],
          "data": "0x0000000000000000000000000000000000000000000000000de0b6b3a7640000",
          "blockHash": "0x3c7346089a0146d3c862362bb23c3579470c964a72c3d8cda2fd0c3116284efb",
          "blockNumber": "0x734905",
          "transactionHash": "0xf83c2d1b07469c2e67aeadc5ba1632c39c390519b42e8a757006e76d4a07a4c0",
          "transactionIndex": "0x99",
          "logIndex": "0xba",
          "removed": false
        },
        {
          "address": "0xcc1ae8cf5d3904cef3360a9532b477529b177cce",
          "topics": [
            "0x61ed099e74a97a1d7f8bb0952a88ca8b7b8ebd00c126ea04671f92a81213318a"
          ],
          "data": "0x000000000000000000000000718b92b5cb0a5552039b593faf724d182a881eda00000000000000000000000000000000000000000000000000003b8abeb6d529",
          "blockHash": "0x3c7346089a0146d3c862362bb23c3579470c964a72c3d8cda2fd0c3116284efb",
          "blockNumber": "0x734905",
          "transactionHash": "0xf83c2d1b07469c2e67aeadc5ba1632c39c390519b42e8a757006e76d4a07a4c0",
          "transactionIndex": "0x99",
          "logIndex": "0xbb",
          "removed": false
        },
        {
          "address": "0xcc1ae8cf5d3904cef3360a9532b477529b177cce",
          "topics": [
            "0x07ea52d82345d6e838192107d8fd7123d9c2ec8e916cd0aad13fd2b60db24644"
          ],
          "data": "0x000000000000000000000000000000000000000000000000000000000000006000000000000000000000000000000000000000000000000000000000000000a000000000000000000000000000000000000000000000000000000000000000c000000000000000000000000000000000000000000000000000000000000000010000000000000000000000008eebf8b423b73bfca51a1db4b7354aa0bfca9193000000000000000000000000000000000000000000000000000000000000000000000000000000000000000000000000000000000000000000000000000000010000000000000000000000000000000000000000000000000000047eba23f447",
          "blockHash": "0x3c7346089a0146d3c862362bb23c3579470c964a72c3d8cda2fd0c3116284efb",
          "blockNumber": "0x734905",
          "transactionHash": "0xf83c2d1b07469c2e67aeadc5ba1632c39c390519b42e8a757006e76d4a07a4c0",
          "transactionIndex": "0x99",
          "logIndex": "0xbc",
          "removed": false
        },
        {
          "address": "0x6edce65403992e310a62460808c4b910d972f10f",
          "topics": [
            "0x1ab700d4ced0c005b164c0f789fd09fcbb0156d4c2041b8a3bfbcd961cd1567f"
          ],
          "data": "0x00000000000000000000000000000000000000000000000000000000000000600000000000000000000000000000000000000000000000000000000000000120000000000000000000000000cc1ae8cf5d3904cef3360a9532b477529b177cce000000000000000000000000000000000000000000000000000000000000009901000000000000000100009ce100000000000000000000000027ab1ef46295406d2190f7dbc4cdcfe6590ce07600009d3500000000000000000000000027ab1ef46295406d2190f7dbc4cdcfe6590ce076bef72e13e27af391aceaa098ed17f535f38216bd7b8f796d2b95e396f1172f900000000000000000000000005f5c3548f96c7da33a18e5f2f2f13519e1c8bd0d00000000000f42400000000000000000000000000000000000000000000000000000000000000000000000000000160003010011010000000000000000000000000000fde800000000000000000000",
          "blockHash": "0x3c7346089a0146d3c862362bb23c3579470c964a72c3d8cda2fd0c3116284efb",
          "blockNumber": "0x734905",
          "transactionHash": "0xf83c2d1b07469c2e67aeadc5ba1632c39c390519b42e8a757006e76d4a07a4c0",
          "transactionIndex": "0x99",
          "logIndex": "0xbd",
          "removed": false
        },
        {
          "address": "0x27ab1ef46295406d2190f7dbc4cdcfe6590ce076",
          "topics": [
            "0x85496b760a4b7f8d66384b9df21b381f5d1b1e79f229a47aaf4c232edc2fe59a",
            "0xbef72e13e27af391aceaa098ed17f535f38216bd7b8f796d2b95e396f1172f90",
            "0x0000000000000000000000005f5c3548f96c7da33a18e5f2f2f13519e1c8bd0d"
          ],
          "data": "0x0000000000000000000000000000000000000000000000000000000000009d350000000000000000000000000000000000000000000000000de0b6b3a76400000000000000000000000000000000000000000000000000000de0b6b3a7640000",
          "blockHash": "0x3c7346089a0146d3c862362bb23c3579470c964a72c3d8cda2fd0c3116284efb",
          "blockNumber": "0x734905",
          "transactionHash": "0xf83c2d1b07469c2e67aeadc5ba1632c39c390519b42e8a757006e76d4a07a4c0",
          "transactionIndex": "0x99",
          "logIndex": "0xbe",
          "removed": false
        }
      ],
      "logsBloom": "0x00000000000000000000000000000000000000000000000000000000000100000000000000000000200000000000000000000000000000000000000000000000040002001000000000000008000000000000000000000000020000000000000000000000020000008200000000000800000000000000000000000010000000000000000000000020000000080000000000000000000000000000000000000000000000008020000000100000000000000000006000400000000440000000800000000002400000000000000080000000000000080000000000000000000020000000040010000000000000000000002000000000008000000000000000000020",
      "type": "0x2",
      "transactionHash": "0xf83c2d1b07469c2e67aeadc5ba1632c39c390519b42e8a757006e76d4a07a4c0",
      "transactionIndex": "0x99",
      "blockHash": "0x3c7346089a0146d3c862362bb23c3579470c964a72c3d8cda2fd0c3116284efb",
      "blockNumber": "0x734905",
      "gasUsed": "0x3a7a9",
      "effectiveGasPrice": "0xa07cb5904",
      "from": "0x5f5c3548f96c7da33a18e5f2f2f13519e1c8bd0d",
      "to": "0x27ab1ef46295406d2190f7dbc4cdcfe6590ce076",
      "contractAddress": null
    }
  ],
  "libraries": [],
  "pending": [],
  "returns": {},
  "timestamp": 1737652141,
  "chain": 11155111,
  "commit": "d42b421"
}