{
  "transactions": [
    {
      "hash": "0xd489e0fd464fba823de9428bbfa6290e7f2fdad394926886761d87d40fc71055",
      "transactionType": "CALL",
      "contractName": null,
      "contractAddress": "0x354b7deb6f6aa08a683461d5a6451e22458b17ee",
      "function": "setPeer(uint32,bytes32)",
      "arguments": [
        "40245",
        "0x000000000000000000000000354b7deb6f6aa08a683461d5a6451e22458b17ee"
      ],
      "transaction": {
        "from": "0x5f5c3548f96c7da33a18e5f2f2f13519e1c8bd0d",
        "to": "0x354b7deb6f6aa08a683461d5a6451e22458b17ee",
        "gas": "0x110b7",
        "value": "0x0",
        "input": "0x3400288b0000000000000000000000000000000000000000000000000000000000009d35000000000000000000000000354b7deb6f6aa08a683461d5a6451e22458b17ee",
        "nonce": "0x127",
        "chainId": "0xaa36a7"
      },
      "additionalContracts": [],
      "isFixedGasLimit": false
    },
    {
      "hash": "0x3e3ade43bc50945762690f1479447dc15c13d51a7fb22797ab2cc90439649f5f",
      "transactionType": "CALL",
      "contractName": null,
      "contractAddress": "0x354b7deb6f6aa08a683461d5a6451e22458b17ee",
      "function": "setPeer(uint32,bytes32)",
      "arguments": [
        "40161",
        "0x000000000000000000000000354b7deb6f6aa08a683461d5a6451e22458b17ee"
      ],
      "transaction": {
        "from": "0x5f5c3548f96c7da33a18e5f2f2f13519e1c8bd0d",
        "to": "0x354b7deb6f6aa08a683461d5a6451e22458b17ee",
        "gas": "0x110b7",
        "value": "0x0",
        "input": "0x3400288b0000000000000000000000000000000000000000000000000000000000009ce1000000000000000000000000354b7deb6f6aa08a683461d5a6451e22458b17ee",
        "nonce": "0x128",
        "chainId": "0xaa36a7"
      },
      "additionalContracts": [],
      "isFixedGasLimit": false
    },
    {
      "hash": "0xe7ad68914af1e96001ab1785da3a7d8e210e127f35455800f72502d2dbdd4856",
      "transactionType": "CALL",
      "contractName": null,
      "contractAddress": "0x354b7deb6f6aa08a683461d5a6451e22458b17ee",
      "function": "approve(address,uint256)",
      "arguments": [
        "0x354B7DEb6f6aa08a683461d5a6451E22458b17Ee",
        "1000000000000000000"
      ],
      "transaction": {
        "from": "0x5f5c3548f96c7da33a18e5f2f2f13519e1c8bd0d",
        "to": "0x354b7deb6f6aa08a683461d5a6451e22458b17ee",
        "gas": "0x8c9b",
        "value": "0x0",
        "input": "0x095ea7b3000000000000000000000000354b7deb6f6aa08a683461d5a6451e22458b17ee0000000000000000000000000000000000000000000000000de0b6b3a7640000",
        "nonce": "0x129",
        "chainId": "0xaa36a7"
      },
      "additionalContracts": [],
      "isFixedGasLimit": false
    },
    {
      "hash": "0xaaf040fea40c6b97f8dd4e06df3e262607feef3115b6bb0e85fce70bc2483161",
      "transactionType": "CALL",
      "contractName": null,
      "contractAddress": "0x354b7deb6f6aa08a683461d5a6451e22458b17ee",
      "function": "send((uint32,bytes32,uint256,uint256,bytes,bytes,bytes),(uint256,uint256),address)",
      "arguments": [
        "(40245, 0x0000000000000000000000005f5c3548f96c7da33a18e5f2f2f13519e1c8bd0d, 1000000000000000000, 900000000000000000, 0x0003010011010000000000000000000000000000fde8, 0x, 0x)",
        "(681183272852505, 0)",
        "0x5f5C3548f96C7DA33A18E5F2F2f13519e1c8bD0d"
      ],
      "transaction": {
        "from": "0x5f5c3548f96c7da33a18e5f2f2f13519e1c8bd0d",
        "to": "0x354b7deb6f6aa08a683461d5a6451e22458b17ee",
        "gas": "0x53d29",
        "value": "0x26b8857015c19",
        "input": "0xc7c7f5b3000000000000000000000000000000000000000000000000000000000000008000000000000000000000000000000000000000000000000000026b8857015c1900000000000000000000000000000000000000000000000000000000000000000000000000000000000000005f5c3548f96c7da33a18e5f2f2f13519e1c8bd0d0000000000000000000000000000000000000000000000000000000000009d350000000000000000000000005f5c3548f96c7da33a18e5f2f2f13519e1c8bd0d0000000000000000000000000000000000000000000000000de0b6b3a76400000000000000000000000000000000000000000000000000000c7d713b49da000000000000000000000000000000000000000000000000000000000000000000e00000000000000000000000000000000000000000000000000000000000000120000000000000000000000000000000000000000000000000000000000000014000000000000000000000000000000000000000000000000000000000000000160003010011010000000000000000000000000000fde80000000000000000000000000000000000000000000000000000000000000000000000000000000000000000000000000000000000000000000000000000000000000000000000000000",
        "nonce": "0x12a",
        "chainId": "0xaa36a7"
      },
      "additionalContracts": [],
      "isFixedGasLimit": false
    }
  ],
  "receipts": [
    {
      "status": "0x1",
      "cumulativeGasUsed": "0xd1c183",
      "logs": [
        {
          "address": "0x354b7deb6f6aa08a683461d5a6451e22458b17ee",
          "topics": [
            "0x238399d427b947898edb290f5ff0f9109849b1c3ba196a42e35f00c50a54b98b"
          ],
          "data": "0x0000000000000000000000000000000000000000000000000000000000009d35000000000000000000000000354b7deb6f6aa08a683461d5a6451e22458b17ee",
          "blockHash": "0xba8ca2105fcfc4e74b91a74c54ddad2f976a16e28cac29af2360322cda0d4abf",
          "blockNumber": "0x72a7a5",
          "transactionHash": "0xd489e0fd464fba823de9428bbfa6290e7f2fdad394926886761d87d40fc71055",
          "transactionIndex": "0x5a",
          "logIndex": "0x88",
          "removed": false
        }
      ],
      "logsBloom": "0x00000000000000000000000000000000000000000000000000000000000000000000000000000000000000000000000000000000000000000800000000000000000000000000000000000000000000000000000000000000000000000000000000000000000000000000000000000000000000000000000000000000000000000000000000000000000000000000000000000000000000000000000000000000000000000000000000004000000000000004000000000000000002000000000000000000000000000000000000000000008000000000000000040000000000000000000000000000000000000000000000000000000000000000000000000000",
      "type": "0x2",
      "transactionHash": "0xd489e0fd464fba823de9428bbfa6290e7f2fdad394926886761d87d40fc71055",
      "transactionIndex": "0x5a",
      "blockHash": "0xba8ca2105fcfc4e74b91a74c54ddad2f976a16e28cac29af2360322cda0d4abf",
      "blockNumber": "0x72a7a5",
      "gasUsed": "0xba79",
      "effectiveGasPrice": "0x4006a4e1",
      "from": "0x5f5c3548f96c7da33a18e5f2f2f13519e1c8bd0d",
      "to": "0x354b7deb6f6aa08a683461d5a6451e22458b17ee",
      "contractAddress": null
    },
    {
      "status": "0x1",
      "cumulativeGasUsed": "0xd27bfc",
      "logs": [
        {
          "address": "0x354b7deb6f6aa08a683461d5a6451e22458b17ee",
          "topics": [
            "0x238399d427b947898edb290f5ff0f9109849b1c3ba196a42e35f00c50a54b98b"
          ],
          "data": "0x0000000000000000000000000000000000000000000000000000000000009ce1000000000000000000000000354b7deb6f6aa08a683461d5a6451e22458b17ee",
          "blockHash": "0xba8ca2105fcfc4e74b91a74c54ddad2f976a16e28cac29af2360322cda0d4abf",
          "blockNumber": "0x72a7a5",
          "transactionHash": "0x3e3ade43bc50945762690f1479447dc15c13d51a7fb22797ab2cc90439649f5f",
          "transactionIndex": "0x5b",
          "logIndex": "0x89",
          "removed": false
        }
      ],
      "logsBloom": "0x00000000000000000000000000000000000000000000000000000000000000000000000000000000000000000000000000000000000000000800000000000000000000000000000000000000000000000000000000000000000000000000000000000000000000000000000000000000000000000000000000000000000000000000000000000000000000000000000000000000000000000000000000000000000000000000000000004000000000000004000000000000000002000000000000000000000000000000000000000000008000000000000000040000000000000000000000000000000000000000000000000000000000000000000000000000",
      "type": "0x2",
      "transactionHash": "0x3e3ade43bc50945762690f1479447dc15c13d51a7fb22797ab2cc90439649f5f",
      "transactionIndex": "0x5b",
      "blockHash": "0xba8ca2105fcfc4e74b91a74c54ddad2f976a16e28cac29af2360322cda0d4abf",
      "blockNumber": "0x72a7a5",
      "gasUsed": "0xba79",
      "effectiveGasPrice": "0x4006a4e1",
      "from": "0x5f5c3548f96c7da33a18e5f2f2f13519e1c8bd0d",
      "to": "0x354b7deb6f6aa08a683461d5a6451e22458b17ee",
      "contractAddress": null
    },
    {
      "status": "0x1",
      "cumulativeGasUsed": "0xd2e1c9",
      "logs": [
        {
          "address": "0x354b7deb6f6aa08a683461d5a6451e22458b17ee",
          "topics": [
            "0x8c5be1e5ebec7d5bd14f71427d1e84f3dd0314c0f7b2291e5b200ac8c7c3b925",
            "0x0000000000000000000000005f5c3548f96c7da33a18e5f2f2f13519e1c8bd0d",
            "0x000000000000000000000000354b7deb6f6aa08a683461d5a6451e22458b17ee"
          ],
          "data": "0x0000000000000000000000000000000000000000000000000de0b6b3a7640000",
          "blockHash": "0xba8ca2105fcfc4e74b91a74c54ddad2f976a16e28cac29af2360322cda0d4abf",
          "blockNumber": "0x72a7a5",
          "transactionHash": "0xe7ad68914af1e96001ab1785da3a7d8e210e127f35455800f72502d2dbdd4856",
          "transactionIndex": "0x5c",
          "logIndex": "0x8a",
          "removed": false
        }
      ],
      "logsBloom": "0x00000000000000000000000000000000000000000000000000000000000000000000000000000000000000000000000000000000000000000000000000200000000000000000000008000000000000000000000000000000000000000000000000000000000000000000000000000000000000000000000000000000000000000000000000000000000000000000000100000000020000000000000000000000020000000020000000004000000000000004002000000000000000000000800000000000000000000000000000000000008000000000000000000000000000000010000000000000000000000000000000000000000000000000000000000000",
      "type": "0x2",
      "transactionHash": "0xe7ad68914af1e96001ab1785da3a7d8e210e127f35455800f72502d2dbdd4856",
      "transactionIndex": "0x5c",
      "blockHash": "0xba8ca2105fcfc4e74b91a74c54ddad2f976a16e28cac29af2360322cda0d4abf",
      "blockNumber": "0x72a7a5",
      "gasUsed": "0x65cd",
      "effectiveGasPrice": "0x4006a4e1",
      "from": "0x5f5c3548f96c7da33a18e5f2f2f13519e1c8bd0d",
      "to": "0x354b7deb6f6aa08a683461d5a6451e22458b17ee",
      "contractAddress": null
    },
    {
      "status": "0x1",
      "cumulativeGasUsed": "0xd676d2",
      "logs": [
        {
          "address": "0x354b7deb6f6aa08a683461d5a6451e22458b17ee",
          "topics": [
            "0xddf252ad1be2c89b69c2b068fc378daa952ba7f163c4a11628f55a4df523b3ef",
            "0x0000000000000000000000005f5c3548f96c7da33a18e5f2f2f13519e1c8bd0d",
            "0x0000000000000000000000000000000000000000000000000000000000000000"
          ],
          "data": "0x0000000000000000000000000000000000000000000000000de0b6b3a7640000",
          "blockHash": "0xba8ca2105fcfc4e74b91a74c54ddad2f976a16e28cac29af2360322cda0d4abf",
          "blockNumber": "0x72a7a5",
          "transactionHash": "0xaaf040fea40c6b97f8dd4e06df3e262607feef3115b6bb0e85fce70bc2483161",
          "transactionIndex": "0x5d",
          "logIndex": "0x8b",
          "removed": false
        },
        {
          "address": "0xcc1ae8cf5d3904cef3360a9532b477529b177cce",
          "topics": [
            "0x61ed099e74a97a1d7f8bb0952a88ca8b7b8ebd00c126ea04671f92a81213318a"
          ],
          "data": "0x000000000000000000000000718b92b5cb0a5552039b593faf724d182a881eda000000000000000000000000000000000000000000000000000176f61cf5fa60",
          "blockHash": "0xba8ca2105fcfc4e74b91a74c54ddad2f976a16e28cac29af2360322cda0d4abf",
          "blockNumber": "0x72a7a5",
          "transactionHash": "0xaaf040fea40c6b97f8dd4e06df3e262607feef3115b6bb0e85fce70bc2483161",
          "transactionIndex": "0x5d",
          "logIndex": "0x8c",
          "removed": false
        },
        {
          "address": "0xcc1ae8cf5d3904cef3360a9532b477529b177cce",
          "topics": [
            "0x07ea52d82345d6e838192107d8fd7123d9c2ec8e916cd0aad13fd2b60db24644"
          ],
          "data": "0x000000000000000000000000000000000000000000000000000000000000006000000000000000000000000000000000000000000000000000000000000000a000000000000000000000000000000000000000000000000000000000000000c000000000000000000000000000000000000000000000000000000000000000010000000000000000000000008eebf8b423b73bfca51a1db4b7354aa0bfca9193000000000000000000000000000000000000000000000000000000000000000000000000000000000000000000000000000000000000000000000000000000010000000000000000000000000000000000000000000000000000f4923a0b61b9",
          "blockHash": "0xba8ca2105fcfc4e74b91a74c54ddad2f976a16e28cac29af2360322cda0d4abf",
          "blockNumber": "0x72a7a5",
          "transactionHash": "0xaaf040fea40c6b97f8dd4e06df3e262607feef3115b6bb0e85fce70bc2483161",
          "transactionIndex": "0x5d",
          "logIndex": "0x8d",
          "removed": false
        },
        {
          "address": "0x6edce65403992e310a62460808c4b910d972f10f",
          "topics": [
            "0x1ab700d4ced0c005b164c0f789fd09fcbb0156d4c2041b8a3bfbcd961cd1567f"
          ],
          "data": "0x00000000000000000000000000000000000000000000000000000000000000600000000000000000000000000000000000000000000000000000000000000120000000000000000000000000cc1ae8cf5d3904cef3360a9532b477529b177cce000000000000000000000000000000000000000000000000000000000000009901000000000000000100009ce1000000000000000000000000354b7deb6f6aa08a683461d5a6451e22458b17ee00009d35000000000000000000000000354b7deb6f6aa08a683461d5a6451e22458b17eed0f0c9e5eae1ca6568abc9e2983e7cc7854c5838395ea70905b96ab040e7393c0000000000000000000000005f5c3548f96c7da33a18e5f2f2f13519e1c8bd0d00000000000f42400000000000000000000000000000000000000000000000000000000000000000000000000000160003010011010000000000000000000000000000fde800000000000000000000",
          "blockHash": "0xba8ca2105fcfc4e74b91a74c54ddad2f976a16e28cac29af2360322cda0d4abf",
          "blockNumber": "0x72a7a5",
          "transactionHash": "0xaaf040fea40c6b97f8dd4e06df3e262607feef3115b6bb0e85fce70bc2483161",
          "transactionIndex": "0x5d",
          "logIndex": "0x8e",
          "removed": false
        },
        {
          "address": "0x354b7deb6f6aa08a683461d5a6451e22458b17ee",
          "topics": [
            "0x85496b760a4b7f8d66384b9df21b381f5d1b1e79f229a47aaf4c232edc2fe59a",
            "0xd0f0c9e5eae1ca6568abc9e2983e7cc7854c5838395ea70905b96ab040e7393c",
            "0x0000000000000000000000005f5c3548f96c7da33a18e5f2f2f13519e1c8bd0d"
          ],
          "data": "0x0000000000000000000000000000000000000000000000000000000000009d350000000000000000000000000000000000000000000000000de0b6b3a76400000000000000000000000000000000000000000000000000000de0b6b3a7640000",
          "blockHash": "0xba8ca2105fcfc4e74b91a74c54ddad2f976a16e28cac29af2360322cda0d4abf",
          "blockNumber": "0x72a7a5",
          "transactionHash": "0xaaf040fea40c6b97f8dd4e06df3e262607feef3115b6bb0e85fce70bc2483161",
          "transactionIndex": "0x5d",
          "logIndex": "0x8f",
          "removed": false
        }
      ],
      "logsBloom": "0x00000000000000000000000000000000000000000000000000000000000100000000000000000000200000000000000008000000000000000000000000000000000002000000000000000008000000000000000000000000001000000000000000000000020000008200000000000800000000000000000000000010000000000000000000000020000000080000000000000000000000000000000000000000000000008020000000104000000000000004002000400000000440000000800000000002000000000000000081000000008000080000000000000000000020000000040000000000000000000000002000000000008000000000000000000020",
      "type": "0x2",
      "transactionHash": "0xaaf040fea40c6b97f8dd4e06df3e262607feef3115b6bb0e85fce70bc2483161",
      "transactionIndex": "0x5d",
      "blockHash": "0xba8ca2105fcfc4e74b91a74c54ddad2f976a16e28cac29af2360322cda0d4abf",
      "blockNumber": "0x72a7a5",
      "gasUsed": "0x39509",
      "effectiveGasPrice": "0x4006a4e1",
      "from": "0x5f5c3548f96c7da33a18e5f2f2f13519e1c8bd0d",
      "to": "0x354b7deb6f6aa08a683461d5a6451e22458b17ee",
      "contractAddress": null
    }
  ],
  "libraries": [],
  "pending": [],
  "returns": {},
  "timestamp": 1737151410,
  "chain": 11155111,
  "commit": "f5ff9a1"
}