{
  "transactions": [
    {
      "hash": "0xfa999693c0a005140b49567ef431cee6ca8acd0065252f8a16acb0085d116be8",
      "transactionType": "CALL",
      "contractName": null,
      "contractAddress": "0x354b7deb6f6aa08a683461d5a6451e22458b17ee",
      "function": "setPeer(uint32,bytes32)",
      "arguments": [
        "40245",
        "0x000000000000000000000000354b7deb6f6aa08a683461d5a6451e22458b17ee"
      ],
      "transaction": {
        "from": "0x5f5c3548f96c7da33a18e5f2f2f13519e1c8bd0d",
        "to": "0x354b7deb6f6aa08a683461d5a6451e22458b17ee",
        "gas": "0x9630",
        "value": "0x0",
        "input": "0x3400288b0000000000000000000000000000000000000000000000000000000000009d35000000000000000000000000354b7deb6f6aa08a683461d5a6451e22458b17ee",
        "nonce": "0x12d",
        "chainId": "0xaa36a7"
      },
      "additionalContracts": [],
      "isFixedGasLimit": false
    },
    {
      "hash": "0x8c385edd0658c5f67fe4e342c50c9dd90c06bd284691dfab6db3660acb546411",
      "transactionType": "CALL",
      "contractName": null,
      "contractAddress": "0x354b7deb6f6aa08a683461d5a6451e22458b17ee",
      "function": "setPeer(uint32,bytes32)",
      "arguments": [
        "40161",
        "0x000000000000000000000000354b7deb6f6aa08a683461d5a6451e22458b17ee"
      ],
      "transaction": {
        "from": "0x5f5c3548f96c7da33a18e5f2f2f13519e1c8bd0d",
        "to": "0x354b7deb6f6aa08a683461d5a6451e22458b17ee",
        "gas": "0x9630",
        "value": "0x0",
        "input": "0x3400288b0000000000000000000000000000000000000000000000000000000000009ce1000000000000000000000000354b7deb6f6aa08a683461d5a6451e22458b17ee",
        "nonce": "0x12e",
        "chainId": "0xaa36a7"
      },
      "additionalContracts": [],
      "isFixedGasLimit": false
    }
  ],
  "receipts": [
    {
      "status": "0x1",
      "cumulativeGasUsed": "0xa4cc1b",
      "logs": [
        {
          "address": "0x354b7deb6f6aa08a683461d5a6451e22458b17ee",
          "topics": [
            "0x238399d427b947898edb290f5ff0f9109849b1c3ba196a42e35f00c50a54b98b"
          ],
          "data": "0x0000000000000000000000000000000000000000000000000000000000009d35000000000000000000000000354b7deb6f6aa08a683461d5a6451e22458b17ee",
          "blockHash": "0xb91181aa7032d52c815312024ee94058ec19fd3abc6b69c93a635e2001fb3a47",
          "blockNumber": "0x72f805",
          "transactionHash": "0xfa999693c0a005140b49567ef431cee6ca8acd0065252f8a16acb0085d116be8",
          "transactionIndex": "0x43",
          "logIndex": "0x93",
          "removed": false
        }
      ],
      "logsBloom": "0x00000000000000000000000000000000000000000000000000000000000000000000000000000000000000000000000000000000000000000800000000000000000000000000000000000000000000000000000000000000000000000000000000000000000000000000000000000000000000000000000000000000000000000000000000000000000000000000000000000000000000000000000000000000000000000000000000004000000000000004000000000000000002000000000000000000000000000000000000000000008000000000000000040000000000000000000000000000000000000000000000000000000000000000000000000000",
      "type": "0x2",
      "transactionHash": "0xfa999693c0a005140b49567ef431cee6ca8acd0065252f8a16acb0085d116be8",
      "transactionIndex": "0x43",
      "blockHash": "0xb91181aa7032d52c815312024ee94058ec19fd3abc6b69c93a635e2001fb3a47",
      "blockNumber": "0x72f805",
      "gasUsed": "0x6cbd",
      "effectiveGasPrice": "0x4347d257",
      "from": "0x5f5c3548f96c7da33a18e5f2f2f13519e1c8bd0d",
      "to": "0x354b7deb6f6aa08a683461d5a6451e22458b17ee",
      "contractAddress": null
    },
    {
      "status": "0x1",
      "cumulativeGasUsed": "0xa538d8",
      "logs": [
        {
          "address": "0x354b7deb6f6aa08a683461d5a6451e22458b17ee",
          "topics": [
            "0x238399d427b947898edb290f5ff0f9109849b1c3ba196a42e35f00c50a54b98b"
          ],
          "data": "0x0000000000000000000000000000000000000000000000000000000000009ce1000000000000000000000000354b7deb6f6aa08a683461d5a6451e22458b17ee",
          "blockHash": "0xb91181aa7032d52c815312024ee94058ec19fd3abc6b69c93a635e2001fb3a47",
          "blockNumber": "0x72f805",
          "transactionHash": "0x8c385edd0658c5f67fe4e342c50c9dd90c06bd284691dfab6db3660acb546411",
          "transactionIndex": "0x44",
          "logIndex": "0x94",
          "removed": false
        }
      ],
      "logsBloom": "0x00000000000000000000000000000000000000000000000000000000000000000000000000000000000000000000000000000000000000000800000000000000000000000000000000000000000000000000000000000000000000000000000000000000000000000000000000000000000000000000000000000000000000000000000000000000000000000000000000000000000000000000000000000000000000000000000000004000000000000004000000000000000002000000000000000000000000000000000000000000008000000000000000040000000000000000000000000000000000000000000000000000000000000000000000000000",
      "type": "0x2",
      "transactionHash": "0x8c385edd0658c5f67fe4e342c50c9dd90c06bd284691dfab6db3660acb546411",
      "transactionIndex": "0x44",
      "blockHash": "0xb91181aa7032d52c815312024ee94058ec19fd3abc6b69c93a635e2001fb3a47",
      "blockNumber": "0x72f805",
      "gasUsed": "0x6cbd",
      "effectiveGasPrice": "0x4347d257",
      "from": "0x5f5c3548f96c7da33a18e5f2f2f13519e1c8bd0d",
      "to": "0x354b7deb6f6aa08a683461d5a6451e22458b17ee",
      "contractAddress": null
    }
  ],
  "libraries": [],
  "pending": [],
  "returns": {},
  "timestamp": 1737399387,
  "chain": 11155111,
  "commit": "9c262ec"
}