{
  "transactions": [
    {
      "hash": "0x47afb518dc4a143512fe5d1abb32a7f3457853357316f68f3dc17b17faa33b5a",
      "transactionType": "CALL",
      "contractName": null,
      "contractAddress": "0x27ab1ef46295406d2190f7dbc4cdcfe6590ce076",
      "function": "setPeer(uint32,bytes32)",
      "arguments": [
        "40106",
        "0x00000000000000000000000027ab1ef46295406d2190f7dbc4cdcfe6590ce076"
      ],
      "transaction": {
        "from": "0x5f5c3548f96c7da33a18e5f2f2f13519e1c8bd0d",
        "to": "0x27ab1ef46295406d2190f7dbc4cdcfe6590ce076",
        "gas": "0x9630",
        "value": "0x0",
        "input": "0x3400288b0000000000000000000000000000000000000000000000000000000000009caa00000000000000000000000027ab1ef46295406d2190f7dbc4cdcfe6590ce076",
        "nonce": "0x138",
        "chainId": "0xaa36a7"
      },
      "additionalContracts": [],
      "isFixedGasLimit": false
    },
    {
      "hash": null,
      "transactionType": "CALL",
      "contractName": null,
      "contractAddress": "0x27ab1ef46295406d2190f7dbc4cdcfe6590ce076",
      "function": "setPeer(uint32,bytes32)",
      "arguments": [
        "40245",
        "0x00000000000000000000000027ab1ef46295406d2190f7dbc4cdcfe6590ce076"
      ],
      "transaction": {
        "from": "0x5f5c3548f96c7da33a18e5f2f2f13519e1c8bd0d",
        "to": "0x27ab1ef46295406d2190f7dbc4cdcfe6590ce076",
        "gas": "0x9630",
        "value": "0x0",
        "input": "0x3400288b0000000000000000000000000000000000000000000000000000000000009d3500000000000000000000000027ab1ef46295406d2190f7dbc4cdcfe6590ce076",
        "nonce": "0x139",
        "chainId": "0xaa36a7"
      },
      "additionalContracts": [],
      "isFixedGasLimit": false
    },
    {
      "hash": null,
      "transactionType": "CALL",
      "contractName": null,
      "contractAddress": "0x27ab1ef46295406d2190f7dbc4cdcfe6590ce076",
      "function": "setPeer(uint32,bytes32)",
      "arguments": [
        "40102",
        "0x00000000000000000000000027ab1ef46295406d2190f7dbc4cdcfe6590ce076"
      ],
      "transaction": {
        "from": "0x5f5c3548f96c7da33a18e5f2f2f13519e1c8bd0d",
        "to": "0x27ab1ef46295406d2190f7dbc4cdcfe6590ce076",
        "gas": "0x9630",
        "value": "0x0",
        "input": "0x3400288b0000000000000000000000000000000000000000000000000000000000009ca600000000000000000000000027ab1ef46295406d2190f7dbc4cdcfe6590ce076",
        "nonce": "0x13a",
        "chainId": "0xaa36a7"
      },
      "additionalContracts": [],
      "isFixedGasLimit": false
    },
    {
      "hash": null,
      "transactionType": "CALL",
      "contractName": null,
      "contractAddress": "0x27ab1ef46295406d2190f7dbc4cdcfe6590ce076",
      "function": "setPeer(uint32,bytes32)",
      "arguments": [
        "40161",
        "0x00000000000000000000000027ab1ef46295406d2190f7dbc4cdcfe6590ce076"
      ],
      "transaction": {
        "from": "0x5f5c3548f96c7da33a18e5f2f2f13519e1c8bd0d",
        "to": "0x27ab1ef46295406d2190f7dbc4cdcfe6590ce076",
        "gas": "0x9630",
        "value": "0x0",
        "input": "0x3400288b0000000000000000000000000000000000000000000000000000000000009ce100000000000000000000000027ab1ef46295406d2190f7dbc4cdcfe6590ce076",
        "nonce": "0x13b",
        "chainId": "0xaa36a7"
      },
      "additionalContracts": [],
      "isFixedGasLimit": false
    },
    {
      "hash": null,
      "transactionType": "CALL",
      "contractName": null,
      "contractAddress": "0x27ab1ef46295406d2190f7dbc4cdcfe6590ce076",
      "function": "setPeer(uint32,bytes32)",
      "arguments": [
        "40245",
        "0x00000000000000000000000027ab1ef46295406d2190f7dbc4cdcfe6590ce076"
      ],
      "transaction": {
        "from": "0x5f5c3548f96c7da33a18e5f2f2f13519e1c8bd0d",
        "to": "0x27ab1ef46295406d2190f7dbc4cdcfe6590ce076",
        "gas": "0x9630",
        "value": "0x0",
        "input": "0x3400288b0000000000000000000000000000000000000000000000000000000000009d3500000000000000000000000027ab1ef46295406d2190f7dbc4cdcfe6590ce076",
        "nonce": "0x13c",
        "chainId": "0xaa36a7"
      },
      "additionalContracts": [],
      "isFixedGasLimit": false
    },
    {
      "hash": null,
      "transactionType": "CALL",
      "contractName": null,
      "contractAddress": "0x27ab1ef46295406d2190f7dbc4cdcfe6590ce076",
      "function": "setPeer(uint32,bytes32)",
      "arguments": [
        "40102",
        "0x00000000000000000000000027ab1ef46295406d2190f7dbc4cdcfe6590ce076"
      ],
      "transaction": {
        "from": "0x5f5c3548f96c7da33a18e5f2f2f13519e1c8bd0d",
        "to": "0x27ab1ef46295406d2190f7dbc4cdcfe6590ce076",
        "gas": "0x9630",
        "value": "0x0",
        "input": "0x3400288b0000000000000000000000000000000000000000000000000000000000009ca600000000000000000000000027ab1ef46295406d2190f7dbc4cdcfe6590ce076",
        "nonce": "0x13d",
        "chainId": "0xaa36a7"
      },
      "additionalContracts": [],
      "isFixedGasLimit": false
    },
    {
      "hash": null,
      "transactionType": "CALL",
      "contractName": null,
      "contractAddress": "0x27ab1ef46295406d2190f7dbc4cdcfe6590ce076",
      "function": "setPeer(uint32,bytes32)",
      "arguments": [
        "40161",
        "0x00000000000000000000000027ab1ef46295406d2190f7dbc4cdcfe6590ce076"
      ],
      "transaction": {
        "from": "0x5f5c3548f96c7da33a18e5f2f2f13519e1c8bd0d",
        "to": "0x27ab1ef46295406d2190f7dbc4cdcfe6590ce076",
        "gas": "0x9630",
        "value": "0x0",
        "input": "0x3400288b0000000000000000000000000000000000000000000000000000000000009ce100000000000000000000000027ab1ef46295406d2190f7dbc4cdcfe6590ce076",
        "nonce": "0x13e",
        "chainId": "0xaa36a7"
      },
      "additionalContracts": [],
      "isFixedGasLimit": false
    },
    {
      "hash": null,
      "transactionType": "CALL",
      "contractName": null,
      "contractAddress": "0x27ab1ef46295406d2190f7dbc4cdcfe6590ce076",
      "function": "setPeer(uint32,bytes32)",
      "arguments": [
        "40106",
        "0x00000000000000000000000027ab1ef46295406d2190f7dbc4cdcfe6590ce076"
      ],
      "transaction": {
        "from": "0x5f5c3548f96c7da33a18e5f2f2f13519e1c8bd0d",
        "to": "0x27ab1ef46295406d2190f7dbc4cdcfe6590ce076",
        "gas": "0x9630",
        "value": "0x0",
        "input": "0x3400288b0000000000000000000000000000000000000000000000000000000000009caa00000000000000000000000027ab1ef46295406d2190f7dbc4cdcfe6590ce076",
        "nonce": "0x13f",
        "chainId": "0xaa36a7"
      },
      "additionalContracts": [],
      "isFixedGasLimit": false
    },
    {
      "hash": null,
      "transactionType": "CALL",
      "contractName": null,
      "contractAddress": "0x27ab1ef46295406d2190f7dbc4cdcfe6590ce076",
      "function": "setPeer(uint32,bytes32)",
      "arguments": [
        "40102",
        "0x00000000000000000000000027ab1ef46295406d2190f7dbc4cdcfe6590ce076"
      ],
      "transaction": {
        "from": "0x5f5c3548f96c7da33a18e5f2f2f13519e1c8bd0d",
        "to": "0x27ab1ef46295406d2190f7dbc4cdcfe6590ce076",
        "gas": "0x9630",
        "value": "0x0",
        "input": "0x3400288b0000000000000000000000000000000000000000000000000000000000009ca600000000000000000000000027ab1ef46295406d2190f7dbc4cdcfe6590ce076",
        "nonce": "0x140",
        "chainId": "0xaa36a7"
      },
      "additionalContracts": [],
      "isFixedGasLimit": false
    },
    {
      "hash": null,
      "transactionType": "CALL",
      "contractName": null,
      "contractAddress": "0x27ab1ef46295406d2190f7dbc4cdcfe6590ce076",
      "function": "setPeer(uint32,bytes32)",
      "arguments": [
        "40161",
        "0x00000000000000000000000027ab1ef46295406d2190f7dbc4cdcfe6590ce076"
      ],
      "transaction": {
        "from": "0x5f5c3548f96c7da33a18e5f2f2f13519e1c8bd0d",
        "to": "0x27ab1ef46295406d2190f7dbc4cdcfe6590ce076",
        "gas": "0x9630",
        "value": "0x0",
        "input": "0x3400288b0000000000000000000000000000000000000000000000000000000000009ce100000000000000000000000027ab1ef46295406d2190f7dbc4cdcfe6590ce076",
        "nonce": "0x141",
        "chainId": "0xaa36a7"
      },
      "additionalContracts": [],
      "isFixedGasLimit": false
    },
    {
      "hash": null,
      "transactionType": "CALL",
      "contractName": null,
      "contractAddress": "0x27ab1ef46295406d2190f7dbc4cdcfe6590ce076",
      "function": "setPeer(uint32,bytes32)",
      "arguments": [
        "40106",
        "0x00000000000000000000000027ab1ef46295406d2190f7dbc4cdcfe6590ce076"
      ],
      "transaction": {
        "from": "0x5f5c3548f96c7da33a18e5f2f2f13519e1c8bd0d",
        "to": "0x27ab1ef46295406d2190f7dbc4cdcfe6590ce076",
        "gas": "0x9630",
        "value": "0x0",
        "input": "0x3400288b0000000000000000000000000000000000000000000000000000000000009caa00000000000000000000000027ab1ef46295406d2190f7dbc4cdcfe6590ce076",
        "nonce": "0x142",
        "chainId": "0xaa36a7"
      },
      "additionalContracts": [],
      "isFixedGasLimit": false
    },
    {
      "hash": null,
      "transactionType": "CALL",
      "contractName": null,
      "contractAddress": "0x27ab1ef46295406d2190f7dbc4cdcfe6590ce076",
      "function": "setPeer(uint32,bytes32)",
      "arguments": [
        "40245",
        "0x00000000000000000000000027ab1ef46295406d2190f7dbc4cdcfe6590ce076"
      ],
      "transaction": {
        "from": "0x5f5c3548f96c7da33a18e5f2f2f13519e1c8bd0d",
        "to": "0x27ab1ef46295406d2190f7dbc4cdcfe6590ce076",
        "gas": "0x9630",
        "value": "0x0",
        "input": "0x3400288b0000000000000000000000000000000000000000000000000000000000009d3500000000000000000000000027ab1ef46295406d2190f7dbc4cdcfe6590ce076",
        "nonce": "0x143",
        "chainId": "0xaa36a7"
      },
      "additionalContracts": [],
      "isFixedGasLimit": false
    }
  ],
  "receipts": [
    {
      "status": "0x1",
      "cumulativeGasUsed": "0xce1ab3",
      "logs": [
        {
          "address": "0x27ab1ef46295406d2190f7dbc4cdcfe6590ce076",
          "topics": [
            "0x238399d427b947898edb290f5ff0f9109849b1c3ba196a42e35f00c50a54b98b"
          ],
          "data": "0x0000000000000000000000000000000000000000000000000000000000009caa00000000000000000000000027ab1ef46295406d2190f7dbc4cdcfe6590ce076",
          "blockHash": "0xa7a7bdebf0b9d500393ed86ec584bfb3bb4f363069898eba85d9abcb7f39ace3",
          "blockNumber": "0x734863",
          "transactionHash": "0x47afb518dc4a143512fe5d1abb32a7f3457853357316f68f3dc17b17faa33b5a",
          "transactionIndex": "0x68",
          "logIndex": "0xf8",
          "removed": false
        }
      ],
      "logsBloom": "0x00000000000000000000000000000000000000000000000000000000000000000000000000000000000000000000000000000000000000000800000000000000000000000000000000000000000000000000000000000000020000000000000000000000000000000000000000000000000000000000000000000000000000000000000000000000000000000000000000000000000000000000000000000000000000000000000000000000000000000000004000000000000002000000000000000000400000000000000000000000000000000000000000040000000000000000000000000000000000000000000000000000000000000000000000000000",
      "type": "0x2",
      "transactionHash": "0x47afb518dc4a143512fe5d1abb32a7f3457853357316f68f3dc17b17faa33b5a",
      "transactionIndex": "0x68",
      "blockHash": "0xa7a7bdebf0b9d500393ed86ec584bfb3bb4f363069898eba85d9abcb7f39ace3",
      "blockNumber": "0x734863",
      "gasUsed": "0x6cbd",
      "effectiveGasPrice": "0x6e198f536",
      "from": "0x5f5c3548f96c7da33a18e5f2f2f13519e1c8bd0d",
      "to": "0x27ab1ef46295406d2190f7dbc4cdcfe6590ce076",
      "contractAddress": null
    }
  ],
  "libraries": [],
  "pending": [],
  "returns": {},
  "timestamp": 1737650112,
  "chain": 11155111,
  "commit": "d42b421"
}