{
  "transactions": [
    {
      "hash": "0x1773219c78078433adba8f9b297051c35d1e7fbe3dea25329d427a937c4b2f30",
      "transactionType": "CALL",
      "contractName": null,
      "contractAddress": "0x27ab1ef46295406d2190f7dbc4cdcfe6590ce076",
      "function": "setPeer(uint32,bytes32)",
      "arguments": [
        "40106",
        "0x00000000000000000000000027ab1ef46295406d2190f7dbc4cdcfe6590ce076"
      ],
      "transaction": {
        "from": "0x5f5c3548f96c7da33a18e5f2f2f13519e1c8bd0d",
        "to": "0x27ab1ef46295406d2190f7dbc4cdcfe6590ce076",
        "gas": "0x9630",
        "value": "0x0",
        "input": "0x3400288b0000000000000000000000000000000000000000000000000000000000009caa00000000000000000000000027ab1ef46295406d2190f7dbc4cdcfe6590ce076",
        "nonce": "0x14e",
        "chainId": "0xaa36a7"
      },
      "additionalContracts": [],
      "isFixedGasLimit": false
    },
    {
      "hash": "0xa391c4bbaa2bcdffef22b54e73c2239af1a825c20af16e2e8dae85f4f773beb0",
      "transactionType": "CALL",
      "contractName": null,
      "contractAddress": "0x27ab1ef46295406d2190f7dbc4cdcfe6590ce076",
      "function": "setPeer(uint32,bytes32)",
      "arguments": [
        "40245",
        "0x00000000000000000000000027ab1ef46295406d2190f7dbc4cdcfe6590ce076"
      ],
      "transaction": {
        "from": "0x5f5c3548f96c7da33a18e5f2f2f13519e1c8bd0d",
        "to": "0x27ab1ef46295406d2190f7dbc4cdcfe6590ce076",
        "gas": "0x9630",
        "value": "0x0",
        "input": "0x3400288b0000000000000000000000000000000000000000000000000000000000009d3500000000000000000000000027ab1ef46295406d2190f7dbc4cdcfe6590ce076",
        "nonce": "0x14f",
        "chainId": "0xaa36a7"
      },
      "additionalContracts": [],
      "isFixedGasLimit": false
    },
    {
      "hash": "0xb46937b2ecb9bd5d010882ccddf01b51d72055c98e7b42a778bea557d56cad4a",
      "transactionType": "CALL",
      "contractName": null,
      "contractAddress": "0x27ab1ef46295406d2190f7dbc4cdcfe6590ce076",
      "function": "setPeer(uint32,bytes32)",
      "arguments": [
        "40102",
        "0x00000000000000000000000027ab1ef46295406d2190f7dbc4cdcfe6590ce076"
      ],
      "transaction": {
        "from": "0x5f5c3548f96c7da33a18e5f2f2f13519e1c8bd0d",
        "to": "0x27ab1ef46295406d2190f7dbc4cdcfe6590ce076",
        "gas": "0x9630",
        "value": "0x0",
        "input": "0x3400288b0000000000000000000000000000000000000000000000000000000000009ca600000000000000000000000027ab1ef46295406d2190f7dbc4cdcfe6590ce076",
        "nonce": "0x150",
        "chainId": "0xaa36a7"
      },
      "additionalContracts": [],
      "isFixedGasLimit": false
    },
    {
      "hash": "0x459d3aa451f167f6fbcfac870b0d907462e92adc64d59235af13c17f854ddb88",
      "transactionType": "CALL",
      "contractName": null,
      "contractAddress": "0x27ab1ef46295406d2190f7dbc4cdcfe6590ce076",
      "function": "setPeer(uint32,bytes32)",
      "arguments": [
        "40231",
        "0x00000000000000000000000027ab1ef46295406d2190f7dbc4cdcfe6590ce076"
      ],
      "transaction": {
        "from": "0x5f5c3548f96c7da33a18e5f2f2f13519e1c8bd0d",
        "to": "0x27ab1ef46295406d2190f7dbc4cdcfe6590ce076",
        "gas": "0x110b7",
        "value": "0x0",
        "input": "0x3400288b0000000000000000000000000000000000000000000000000000000000009d2700000000000000000000000027ab1ef46295406d2190f7dbc4cdcfe6590ce076",
        "nonce": "0x151",
        "chainId": "0xaa36a7"
      },
      "additionalContracts": [],
      "isFixedGasLimit": false
    },
    {
      "hash": "0xf21db33b1af679bc0008a41a9b3d0971e739b8b562d916b35d4cd7276ce2b68d",
      "transactionType": "CALL",
      "contractName": null,
      "contractAddress": "0x27ab1ef46295406d2190f7dbc4cdcfe6590ce076",
      "function": "setPeer(uint32,bytes32)",
      "arguments": [
        "40161",
        "0x00000000000000000000000027ab1ef46295406d2190f7dbc4cdcfe6590ce076"
      ],
      "transaction": {
        "from": "0x5f5c3548f96c7da33a18e5f2f2f13519e1c8bd0d",
        "to": "0x27ab1ef46295406d2190f7dbc4cdcfe6590ce076",
        "gas": "0x9630",
        "value": "0x0",
        "input": "0x3400288b0000000000000000000000000000000000000000000000000000000000009ce100000000000000000000000027ab1ef46295406d2190f7dbc4cdcfe6590ce076",
        "nonce": "0x152",
        "chainId": "0xaa36a7"
      },
      "additionalContracts": [],
      "isFixedGasLimit": false
    },
    {
      "hash": "0x3688654831052e925538ab0dfd0564fc4c739d100a701ef6786fe7bc1d1141cb",
      "transactionType": "CALL",
      "contractName": null,
      "contractAddress": "0x27ab1ef46295406d2190f7dbc4cdcfe6590ce076",
      "function": "setPeer(uint32,bytes32)",
      "arguments": [
        "40245",
        "0x00000000000000000000000027ab1ef46295406d2190f7dbc4cdcfe6590ce076"
      ],
      "transaction": {
        "from": "0x5f5c3548f96c7da33a18e5f2f2f13519e1c8bd0d",
        "to": "0x27ab1ef46295406d2190f7dbc4cdcfe6590ce076",
        "gas": "0x9630",
        "value": "0x0",
        "input": "0x3400288b0000000000000000000000000000000000000000000000000000000000009d3500000000000000000000000027ab1ef46295406d2190f7dbc4cdcfe6590ce076",
        "nonce": "0x153",
        "chainId": "0xaa36a7"
      },
      "additionalContracts": [],
      "isFixedGasLimit": false
    },
    {
      "hash": "0x3c8fb4393577e2188048623eb79a744ab2dd1da28e8d289d4603bbf6bddc3733",
      "transactionType": "CALL",
      "contractName": null,
      "contractAddress": "0x27ab1ef46295406d2190f7dbc4cdcfe6590ce076",
      "function": "setPeer(uint32,bytes32)",
      "arguments": [
        "40102",
        "0x00000000000000000000000027ab1ef46295406d2190f7dbc4cdcfe6590ce076"
      ],
      "transaction": {
        "from": "0x5f5c3548f96c7da33a18e5f2f2f13519e1c8bd0d",
        "to": "0x27ab1ef46295406d2190f7dbc4cdcfe6590ce076",
        "gas": "0x9630",
        "value": "0x0",
        "input": "0x3400288b0000000000000000000000000000000000000000000000000000000000009ca600000000000000000000000027ab1ef46295406d2190f7dbc4cdcfe6590ce076",
        "nonce": "0x154",
        "chainId": "0xaa36a7"
      },
      "additionalContracts": [],
      "isFixedGasLimit": false
    },
    {
      "hash": "0x2b6cc11ab006259005972e6d7504949f01887981d2137acceb6d54720322f4f1",
      "transactionType": "CALL",
      "contractName": null,
      "contractAddress": "0x27ab1ef46295406d2190f7dbc4cdcfe6590ce076",
      "function": "setPeer(uint32,bytes32)",
      "arguments": [
        "40231",
        "0x00000000000000000000000027ab1ef46295406d2190f7dbc4cdcfe6590ce076"
      ],
      "transaction": {
        "from": "0x5f5c3548f96c7da33a18e5f2f2f13519e1c8bd0d",
        "to": "0x27ab1ef46295406d2190f7dbc4cdcfe6590ce076",
        "gas": "0x9630",
        "value": "0x0",
        "input": "0x3400288b0000000000000000000000000000000000000000000000000000000000009d2700000000000000000000000027ab1ef46295406d2190f7dbc4cdcfe6590ce076",
        "nonce": "0x155",
        "chainId": "0xaa36a7"
      },
      "additionalContracts": [],
      "isFixedGasLimit": false
    },
    {
      "hash": "0x29fbad7f3e7d27fbf3c3a73c29b90e79320db5f8ad2b8fab3f25fa20b9ffd812",
      "transactionType": "CALL",
      "contractName": null,
      "contractAddress": "0x27ab1ef46295406d2190f7dbc4cdcfe6590ce076",
      "function": "setPeer(uint32,bytes32)",
      "arguments": [
        "40161",
        "0x00000000000000000000000027ab1ef46295406d2190f7dbc4cdcfe6590ce076"
      ],
      "transaction": {
        "from": "0x5f5c3548f96c7da33a18e5f2f2f13519e1c8bd0d",
        "to": "0x27ab1ef46295406d2190f7dbc4cdcfe6590ce076",
        "gas": "0x9630",
        "value": "0x0",
        "input": "0x3400288b0000000000000000000000000000000000000000000000000000000000009ce100000000000000000000000027ab1ef46295406d2190f7dbc4cdcfe6590ce076",
        "nonce": "0x156",
        "chainId": "0xaa36a7"
      },
      "additionalContracts": [],
      "isFixedGasLimit": false
    },
    {
      "hash": "0x080bbda207efd1d9c5590a72a45b65955800c7c6fede5c98cc4874b35beb0cc8",
      "transactionType": "CALL",
      "contractName": null,
      "contractAddress": "0x27ab1ef46295406d2190f7dbc4cdcfe6590ce076",
      "function": "setPeer(uint32,bytes32)",
      "arguments": [
        "40106",
        "0x00000000000000000000000027ab1ef46295406d2190f7dbc4cdcfe6590ce076"
      ],
      "transaction": {
        "from": "0x5f5c3548f96c7da33a18e5f2f2f13519e1c8bd0d",
        "to": "0x27ab1ef46295406d2190f7dbc4cdcfe6590ce076",
        "gas": "0x9630",
        "value": "0x0",
        "input": "0x3400288b0000000000000000000000000000000000000000000000000000000000009caa00000000000000000000000027ab1ef46295406d2190f7dbc4cdcfe6590ce076",
        "nonce": "0x157",
        "chainId": "0xaa36a7"
      },
      "additionalContracts": [],
      "isFixedGasLimit": false
    },
    {
      "hash": "0x74e20fc0e60984ba31f58fe5be04b70a896608a57f8b40294685fe04f5679cfe",
      "transactionType": "CALL",
      "contractName": null,
      "contractAddress": "0x27ab1ef46295406d2190f7dbc4cdcfe6590ce076",
      "function": "setPeer(uint32,bytes32)",
      "arguments": [
        "40102",
        "0x00000000000000000000000027ab1ef46295406d2190f7dbc4cdcfe6590ce076"
      ],
      "transaction": {
        "from": "0x5f5c3548f96c7da33a18e5f2f2f13519e1c8bd0d",
        "to": "0x27ab1ef46295406d2190f7dbc4cdcfe6590ce076",
        "gas": "0x9630",
        "value": "0x0",
        "input": "0x3400288b0000000000000000000000000000000000000000000000000000000000009ca600000000000000000000000027ab1ef46295406d2190f7dbc4cdcfe6590ce076",
        "nonce": "0x158",
        "chainId": "0xaa36a7"
      },
      "additionalContracts": [],
      "isFixedGasLimit": false
    },
    {
      "hash": "0x05e82017de64f3fcdaf7db88dfee961b539d81bb768044865288cbf19b6e8cf3",
      "transactionType": "CALL",
      "contractName": null,
      "contractAddress": "0x27ab1ef46295406d2190f7dbc4cdcfe6590ce076",
      "function": "setPeer(uint32,bytes32)",
      "arguments": [
        "40231",
        "0x00000000000000000000000027ab1ef46295406d2190f7dbc4cdcfe6590ce076"
      ],
      "transaction": {
        "from": "0x5f5c3548f96c7da33a18e5f2f2f13519e1c8bd0d",
        "to": "0x27ab1ef46295406d2190f7dbc4cdcfe6590ce076",
        "gas": "0x9630",
        "value": "0x0",
        "input": "0x3400288b0000000000000000000000000000000000000000000000000000000000009d2700000000000000000000000027ab1ef46295406d2190f7dbc4cdcfe6590ce076",
        "nonce": "0x159",
        "chainId": "0xaa36a7"
      },
      "additionalContracts": [],
      "isFixedGasLimit": false
    },
    {
      "hash": "0x30ade90d2206df0b75f8571590f9d7dce5a53a8bac715946b0f1899664573025",
      "transactionType": "CALL",
      "contractName": null,
      "contractAddress": "0x27ab1ef46295406d2190f7dbc4cdcfe6590ce076",
      "function": "setPeer(uint32,bytes32)",
      "arguments": [
        "40161",
        "0x00000000000000000000000027ab1ef46295406d2190f7dbc4cdcfe6590ce076"
      ],
      "transaction": {
        "from": "0x5f5c3548f96c7da33a18e5f2f2f13519e1c8bd0d",
        "to": "0x27ab1ef46295406d2190f7dbc4cdcfe6590ce076",
        "gas": "0x9630",
        "value": "0x0",
        "input": "0x3400288b0000000000000000000000000000000000000000000000000000000000009ce100000000000000000000000027ab1ef46295406d2190f7dbc4cdcfe6590ce076",
        "nonce": "0x15a",
        "chainId": "0xaa36a7"
      },
      "additionalContracts": [],
      "isFixedGasLimit": false
    },
    {
      "hash": "0xa01688c5a11aa224e437208107393188cb5367528c3efa74e2657f037a66a8ce",
      "transactionType": "CALL",
      "contractName": null,
      "contractAddress": "0x27ab1ef46295406d2190f7dbc4cdcfe6590ce076",
      "function": "setPeer(uint32,bytes32)",
      "arguments": [
        "40106",
        "0x00000000000000000000000027ab1ef46295406d2190f7dbc4cdcfe6590ce076"
      ],
      "transaction": {
        "from": "0x5f5c3548f96c7da33a18e5f2f2f13519e1c8bd0d",
        "to": "0x27ab1ef46295406d2190f7dbc4cdcfe6590ce076",
        "gas": "0x9630",
        "value": "0x0",
        "input": "0x3400288b0000000000000000000000000000000000000000000000000000000000009caa00000000000000000000000027ab1ef46295406d2190f7dbc4cdcfe6590ce076",
        "nonce": "0x15b",
        "chainId": "0xaa36a7"
      },
      "additionalContracts": [],
      "isFixedGasLimit": false
    },
    {
      "hash": "0x859076f59237327b5db94e2cea62161b7e04175dcf4809c83a02c15c31417f2b",
      "transactionType": "CALL",
      "contractName": null,
      "contractAddress": "0x27ab1ef46295406d2190f7dbc4cdcfe6590ce076",
      "function": "setPeer(uint32,bytes32)",
      "arguments": [
        "40245",
        "0x00000000000000000000000027ab1ef46295406d2190f7dbc4cdcfe6590ce076"
      ],
      "transaction": {
        "from": "0x5f5c3548f96c7da33a18e5f2f2f13519e1c8bd0d",
        "to": "0x27ab1ef46295406d2190f7dbc4cdcfe6590ce076",
        "gas": "0x9630",
        "value": "0x0",
        "input": "0x3400288b0000000000000000000000000000000000000000000000000000000000009d3500000000000000000000000027ab1ef46295406d2190f7dbc4cdcfe6590ce076",
        "nonce": "0x15c",
        "chainId": "0xaa36a7"
      },
      "additionalContracts": [],
      "isFixedGasLimit": false
    },
    {
      "hash": "0x25c50b4e66f1098f367e2f269dc192eb7b39cf5c4335a49852cbce4298dcb4c1",
      "transactionType": "CALL",
      "contractName": null,
      "contractAddress": "0x27ab1ef46295406d2190f7dbc4cdcfe6590ce076",
      "function": "setPeer(uint32,bytes32)",
      "arguments": [
        "40231",
        "0x00000000000000000000000027ab1ef46295406d2190f7dbc4cdcfe6590ce076"
      ],
      "transaction": {
        "from": "0x5f5c3548f96c7da33a18e5f2f2f13519e1c8bd0d",
        "to": "0x27ab1ef46295406d2190f7dbc4cdcfe6590ce076",
        "gas": "0x9630",
        "value": "0x0",
        "input": "0x3400288b0000000000000000000000000000000000000000000000000000000000009d2700000000000000000000000027ab1ef46295406d2190f7dbc4cdcfe6590ce076",
        "nonce": "0x15d",
        "chainId": "0xaa36a7"
      },
      "additionalContracts": [],
      "isFixedGasLimit": false
    },
    {
      "hash": "0x6059b18c5a73f3d18ba0b7822d54b548610d890d190d2660fc82cc6c5db3337e",
      "transactionType": "CALL",
      "contractName": null,
      "contractAddress": "0x27ab1ef46295406d2190f7dbc4cdcfe6590ce076",
      "function": "setPeer(uint32,bytes32)",
      "arguments": [
        "40161",
        "0x00000000000000000000000027ab1ef46295406d2190f7dbc4cdcfe6590ce076"
      ],
      "transaction": {
        "from": "0x5f5c3548f96c7da33a18e5f2f2f13519e1c8bd0d",
        "to": "0x27ab1ef46295406d2190f7dbc4cdcfe6590ce076",
        "gas": "0x9630",
        "value": "0x0",
        "input": "0x3400288b0000000000000000000000000000000000000000000000000000000000009ce100000000000000000000000027ab1ef46295406d2190f7dbc4cdcfe6590ce076",
        "nonce": "0x15e",
        "chainId": "0xaa36a7"
      },
      "additionalContracts": [],
      "isFixedGasLimit": false
    },
    {
      "hash": "0x05b22c8226cc99b741bad71eb8c83931b43efc14372f26ac34c6d1db908fc8e9",
      "transactionType": "CALL",
      "contractName": null,
      "contractAddress": "0x27ab1ef46295406d2190f7dbc4cdcfe6590ce076",
      "function": "setPeer(uint32,bytes32)",
      "arguments": [
        "40106",
        "0x00000000000000000000000027ab1ef46295406d2190f7dbc4cdcfe6590ce076"
      ],
      "transaction": {
        "from": "0x5f5c3548f96c7da33a18e5f2f2f13519e1c8bd0d",
        "to": "0x27ab1ef46295406d2190f7dbc4cdcfe6590ce076",
        "gas": "0x9630",
        "value": "0x0",
        "input": "0x3400288b0000000000000000000000000000000000000000000000000000000000009caa00000000000000000000000027ab1ef46295406d2190f7dbc4cdcfe6590ce076",
        "nonce": "0x15f",
        "chainId": "0xaa36a7"
      },
      "additionalContracts": [],
      "isFixedGasLimit": false
    },
    {
      "hash": "0x9149525ec4c7593a5b61a0dda8a7398ba7a880fefc31a89af76a737129dcdec2",
      "transactionType": "CALL",
      "contractName": null,
      "contractAddress": "0x27ab1ef46295406d2190f7dbc4cdcfe6590ce076",
      "function": "setPeer(uint32,bytes32)",
      "arguments": [
        "40245",
        "0x00000000000000000000000027ab1ef46295406d2190f7dbc4cdcfe6590ce076"
      ],
      "transaction": {
        "from": "0x5f5c3548f96c7da33a18e5f2f2f13519e1c8bd0d",
        "to": "0x27ab1ef46295406d2190f7dbc4cdcfe6590ce076",
        "gas": "0x9630",
        "value": "0x0",
        "input": "0x3400288b0000000000000000000000000000000000000000000000000000000000009d3500000000000000000000000027ab1ef46295406d2190f7dbc4cdcfe6590ce076",
        "nonce": "0x160",
        "chainId": "0xaa36a7"
      },
      "additionalContracts": [],
      "isFixedGasLimit": false
    },
    {
      "hash": "0x182fd28032bcdc8530d64125df637511e9471589db4fbd78bd721db1c6406d2f",
      "transactionType": "CALL",
      "contractName": null,
      "contractAddress": "0x27ab1ef46295406d2190f7dbc4cdcfe6590ce076",
      "function": "setPeer(uint32,bytes32)",
      "arguments": [
        "40102",
        "0x00000000000000000000000027ab1ef46295406d2190f7dbc4cdcfe6590ce076"
      ],
      "transaction": {
        "from": "0x5f5c3548f96c7da33a18e5f2f2f13519e1c8bd0d",
        "to": "0x27ab1ef46295406d2190f7dbc4cdcfe6590ce076",
        "gas": "0x9630",
        "value": "0x0",
        "input": "0x3400288b0000000000000000000000000000000000000000000000000000000000009ca600000000000000000000000027ab1ef46295406d2190f7dbc4cdcfe6590ce076",
        "nonce": "0x161",
        "chainId": "0xaa36a7"
      },
      "additionalContracts": [],
      "isFixedGasLimit": false
    }
  ],
  "receipts": [
    {
      "status": "0x1",
      "cumulativeGasUsed": "0x1454ec9",
      "logs": [
        {
          "address": "0x27ab1ef46295406d2190f7dbc4cdcfe6590ce076",
          "topics": [
            "0x238399d427b947898edb290f5ff0f9109849b1c3ba196a42e35f00c50a54b98b"
          ],
          "data": "0x0000000000000000000000000000000000000000000000000000000000009caa00000000000000000000000027ab1ef46295406d2190f7dbc4cdcfe6590ce076",
          "blockHash": "0x30a3dff52b4d5e49fe7e5b4a987f7795ae8c86f76bfd689a5fa89bbd2bbaaad3",
          "blockNumber": "0x747949",
          "transactionHash": "0x1773219c78078433adba8f9b297051c35d1e7fbe3dea25329d427a937c4b2f30",
          "transactionIndex": "0xa9",
          "logIndex": "0x1cb",
          "removed": false
        }
      ],
      "logsBloom": "0x00000000000000000000000000000000000000000000000000000000000000000000000000000000000000000000000000000000000000000800000000000000000000000000000000000000000000000000000000000000020000000000000000000000000000000000000000000000000000000000000000000000000000000000000000000000000000000000000000000000000000000000000000000000000000000000000000000000000000000000004000000000000002000000000000000000400000000000000000000000000000000000000000040000000000000000000000000000000000000000000000000000000000000000000000000000",
      "type": "0x2",
      "transactionHash": "0x1773219c78078433adba8f9b297051c35d1e7fbe3dea25329d427a937c4b2f30",
      "transactionIndex": "0xa9",
      "blockHash": "0x30a3dff52b4d5e49fe7e5b4a987f7795ae8c86f76bfd689a5fa89bbd2bbaaad3",
      "blockNumber": "0x747949",
      "gasUsed": "0x6cbd",
      "effectiveGasPrice": "0x22a5eba78",
      "from": "0x5f5c3548f96c7da33a18e5f2f2f13519e1c8bd0d",
      "to": "0x27ab1ef46295406d2190f7dbc4cdcfe6590ce076",
      "contractAddress": null
    },
    {
      "status": "0x1",
      "cumulativeGasUsed": "0x9638e2",
      "logs": [
        {
          "address": "0x27ab1ef46295406d2190f7dbc4cdcfe6590ce076",
          "topics": [
            "0x238399d427b947898edb290f5ff0f9109849b1c3ba196a42e35f00c50a54b98b"
          ],
          "data": "0x0000000000000000000000000000000000000000000000000000000000009d3500000000000000000000000027ab1ef46295406d2190f7dbc4cdcfe6590ce076",
          "blockHash": "0x272415b7f905208cdca23aa032f8cb9d9d928bf72dfc9ea4992f2f11648e5e4b",
          "blockNumber": "0x74794a",
          "transactionHash": "0xa391c4bbaa2bcdffef22b54e73c2239af1a825c20af16e2e8dae85f4f773beb0",
          "transactionIndex": "0x4d",
          "logIndex": "0x81",
          "removed": false
        }
      ],
      "logsBloom": "0x00000000000000000000000000000000000000000000000000000000000000000000000000000000000000000000000000000000000000000800000000000000000000000000000000000000000000000000000000000000020000000000000000000000000000000000000000000000000000000000000000000000000000000000000000000000000000000000000000000000000000000000000000000000000000000000000000000000000000000000004000000000000002000000000000000000400000000000000000000000000000000000000000040000000000000000000000000000000000000000000000000000000000000000000000000000",
      "type": "0x2",
      "transactionHash": "0xa391c4bbaa2bcdffef22b54e73c2239af1a825c20af16e2e8dae85f4f773beb0",
      "transactionIndex": "0x4d",
      "blockHash": "0x272415b7f905208cdca23aa032f8cb9d9d928bf72dfc9ea4992f2f11648e5e4b",
      "blockNumber": "0x74794a",
      "gasUsed": "0x6cbd",
      "effectiveGasPrice": "0x255425870",
      "from": "0x5f5c3548f96c7da33a18e5f2f2f13519e1c8bd0d",
      "to": "0x27ab1ef46295406d2190f7dbc4cdcfe6590ce076",
      "contractAddress": null
    },
    {
      "status": "0x1",
      "cumulativeGasUsed": "0xe87aa2",
      "logs": [
        {
          "address": "0x27ab1ef46295406d2190f7dbc4cdcfe6590ce076",
          "topics": [
            "0x238399d427b947898edb290f5ff0f9109849b1c3ba196a42e35f00c50a54b98b"
          ],
          "data": "0x0000000000000000000000000000000000000000000000000000000000009ca600000000000000000000000027ab1ef46295406d2190f7dbc4cdcfe6590ce076",
          "blockHash": "0x7cfbbfeead101ac99e39ac08bc44e009427657b3f3639c3c5ec25d8f41877076",
          "blockNumber": "0x74794c",
          "blockTimestamp": "0x67a1198c",
          "transactionHash": "0xb46937b2ecb9bd5d010882ccddf01b51d72055c98e7b42a778bea557d56cad4a",
          "transactionIndex": "0x71",
          "logIndex": "0x124",
          "removed": false
        }
      ],
      "logsBloom": "0x00000000000000000000000000000000000000000000000000000000000000000000000000000000000000000000000000000000000000000800000000000000000000000000000000000000000000000000000000000000020000000000000000000000000000000000000000000000000000000000000000000000000000000000000000000000000000000000000000000000000000000000000000000000000000000000000000000000000000000000004000000000000002000000000000000000400000000000000000000000000000000000000000040000000000000000000000000000000000000000000000000000000000000000000000000000",
      "type": "0x2",
      "transactionHash": "0xb46937b2ecb9bd5d010882ccddf01b51d72055c98e7b42a778bea557d56cad4a",
      "transactionIndex": "0x71",
      "blockHash": "0x7cfbbfeead101ac99e39ac08bc44e009427657b3f3639c3c5ec25d8f41877076",
      "blockNumber": "0x74794c",
      "gasUsed": "0x6cbd",
      "effectiveGasPrice": "0x23df9a218",
      "from": "0x5f5c3548f96c7da33a18e5f2f2f13519e1c8bd0d",
      "to": "0x27ab1ef46295406d2190f7dbc4cdcfe6590ce076",
      "contractAddress": null
    },
    {
      "status": "0x1",
      "cumulativeGasUsed": "0xb05d51",
      "logs": [
        {
          "address": "0x27ab1ef46295406d2190f7dbc4cdcfe6590ce076",
          "topics": [
            "0x238399d427b947898edb290f5ff0f9109849b1c3ba196a42e35f00c50a54b98b"
          ],
          "data": "0x0000000000000000000000000000000000000000000000000000000000009d2700000000000000000000000027ab1ef46295406d2190f7dbc4cdcfe6590ce076",
          "blockHash": "0xd296df26e953afa285668af2f19eee740dbff268e65d84c936c3d9280191b8fa",
          "blockNumber": "0x74794d",
          "transactionHash": "0x459d3aa451f167f6fbcfac870b0d907462e92adc64d59235af13c17f854ddb88",
          "transactionIndex": "0x52",
          "logIndex": "0x80",
          "removed": false
        }
      ],
      "logsBloom": "0x00000000000000000000000000000000000000000000000000000000000000000000000000000000000000000000000000000000000000000800000000000000000000000000000000000000000000000000000000000000020000000000000000000000000000000000000000000000000000000000000000000000000000000000000000000000000000000000000000000000000000000000000000000000000000000000000000000000000000000000004000000000000002000000000000000000400000000000000000000000000000000000000000040000000000000000000000000000000000000000000000000000000000000000000000000000",
      "type": "0x2",
      "transactionHash": "0x459d3aa451f167f6fbcfac870b0d907462e92adc64d59235af13c17f854ddb88",
      "transactionIndex": "0x52",
      "blockHash": "0xd296df26e953afa285668af2f19eee740dbff268e65d84c936c3d9280191b8fa",
      "blockNumber": "0x74794d",
      "gasUsed": "0xba79",
      "effectiveGasPrice": "0x23b947c32",
      "from": "0x5f5c3548f96c7da33a18e5f2f2f13519e1c8bd0d",
      "to": "0x27ab1ef46295406d2190f7dbc4cdcfe6590ce076",
      "contractAddress": null
    },
    {
      "status": "0x1",
      "cumulativeGasUsed": "0xedb7a3",
      "logs": [
        {
          "address": "0x27ab1ef46295406d2190f7dbc4cdcfe6590ce076",
          "topics": [
            "0x238399d427b947898edb290f5ff0f9109849b1c3ba196a42e35f00c50a54b98b"
          ],
          "data": "0x0000000000000000000000000000000000000000000000000000000000009ce100000000000000000000000027ab1ef46295406d2190f7dbc4cdcfe6590ce076",
          "blockHash": "0x4f66e037d320bf9c192bbd6f4f0f58bb290ed44cbe5019dbb779126e8312c8e8",
          "blockNumber": "0x74794e",
          "transactionHash": "0xf21db33b1af679bc0008a41a9b3d0971e739b8b562d916b35d4cd7276ce2b68d",
          "transactionIndex": "0x54",
          "logIndex": "0x185",
          "removed": false
        }
      ],
      "logsBloom": "0x00000000000000000000000000000000000000000000000000000000000000000000000000000000000000000000000000000000000000000800000000000000000000000000000000000000000000000000000000000000020000000000000000000000000000000000000000000000000000000000000000000000000000000000000000000000000000000000000000000000000000000000000000000000000000000000000000000000000000000000004000000000000002000000000000000000400000000000000000000000000000000000000000040000000000000000000000000000000000000000000000000000000000000000000000000000",
      "type": "0x2",
      "transactionHash": "0xf21db33b1af679bc0008a41a9b3d0971e739b8b562d916b35d4cd7276ce2b68d",
      "transactionIndex": "0x54",
      "blockHash": "0x4f66e037d320bf9c192bbd6f4f0f58bb290ed44cbe5019dbb779126e8312c8e8",
      "blockNumber": "0x74794e",
      "gasUsed": "0x6cbd",
      "effectiveGasPrice": "0x22c4f95c5",
      "from": "0x5f5c3548f96c7da33a18e5f2f2f13519e1c8bd0d",
      "to": "0x27ab1ef46295406d2190f7dbc4cdcfe6590ce076",
      "contractAddress": null
    },
    {
      "status": "0x1",
      "cumulativeGasUsed": "0xcd59ee",
      "logs": [
        {
          "address": "0x27ab1ef46295406d2190f7dbc4cdcfe6590ce076",
          "topics": [
            "0x238399d427b947898edb290f5ff0f9109849b1c3ba196a42e35f00c50a54b98b"
          ],
          "data": "0x0000000000000000000000000000000000000000000000000000000000009d3500000000000000000000000027ab1ef46295406d2190f7dbc4cdcfe6590ce076",
          "blockHash": "0xfc1e9d8b7d766808847864e12179f98ec4cd22aa11e7851f7ae00d7869064972",
          "blockNumber": "0x74794f",
          "transactionHash": "0x3688654831052e925538ab0dfd0564fc4c739d100a701ef6786fe7bc1d1141cb",
          "transactionIndex": "0xa1",
          "logIndex": "0xf6",
          "removed": false
        }
      ],
      "logsBloom": "0x00000000000000000000000000000000000000000000000000000000000000000000000000000000000000000000000000000000000000000800000000000000000000000000000000000000000000000000000000000000020000000000000000000000000000000000000000000000000000000000000000000000000000000000000000000000000000000000000000000000000000000000000000000000000000000000000000000000000000000000004000000000000002000000000000000000400000000000000000000000000000000000000000040000000000000000000000000000000000000000000000000000000000000000000000000000",
      "type": "0x2",
      "transactionHash": "0x3688654831052e925538ab0dfd0564fc4c739d100a701ef6786fe7bc1d1141cb",
      "transactionIndex": "0xa1",
      "blockHash": "0xfc1e9d8b7d766808847864e12179f98ec4cd22aa11e7851f7ae00d7869064972",
      "blockNumber": "0x74794f",
      "gasUsed": "0x6cbd",
      "effectiveGasPrice": "0x227e7dff7",
      "from": "0x5f5c3548f96c7da33a18e5f2f2f13519e1c8bd0d",
      "to": "0x27ab1ef46295406d2190f7dbc4cdcfe6590ce076",
      "contractAddress": null
    },
    {
      "status": "0x1",
      "cumulativeGasUsed": "0xd8e189",
      "logs": [
        {
          "address": "0x27ab1ef46295406d2190f7dbc4cdcfe6590ce076",
          "topics": [
            "0x238399d427b947898edb290f5ff0f9109849b1c3ba196a42e35f00c50a54b98b"
          ],
          "data": "0x0000000000000000000000000000000000000000000000000000000000009ca600000000000000000000000027ab1ef46295406d2190f7dbc4cdcfe6590ce076",
          "blockHash": "0xf75b64164bf174a7ee602fb001aa3aaee058e8ebcb5345f5bd633a0fab9e2a60",
          "blockNumber": "0x747950",
          "blockTimestamp": "0x67a119bc",
          "transactionHash": "0x3c8fb4393577e2188048623eb79a744ab2dd1da28e8d289d4603bbf6bddc3733",
          "transactionIndex": "0x44",
          "logIndex": "0x136",
          "removed": false
        }
      ],
      "logsBloom": "0x00000000000000000000000000000000000000000000000000000000000000000000000000000000000000000000000000000000000000000800000000000000000000000000000000000000000000000000000000000000020000000000000000000000000000000000000000000000000000000000000000000000000000000000000000000000000000000000000000000000000000000000000000000000000000000000000000000000000000000000004000000000000002000000000000000000400000000000000000000000000000000000000000040000000000000000000000000000000000000000000000000000000000000000000000000000",
      "type": "0x2",
      "transactionHash": "0x3c8fb4393577e2188048623eb79a744ab2dd1da28e8d289d4603bbf6bddc3733",
      "transactionIndex": "0x44",
      "blockHash": "0xf75b64164bf174a7ee602fb001aa3aaee058e8ebcb5345f5bd633a0fab9e2a60",
      "blockNumber": "0x747950",
      "gasUsed": "0x6cbd",
      "effectiveGasPrice": "0x2346aa675",
      "from": "0x5f5c3548f96c7da33a18e5f2f2f13519e1c8bd0d",
      "to": "0x27ab1ef46295406d2190f7dbc4cdcfe6590ce076",
      "contractAddress": null
    },
    {
      "status": "0x1",
      "cumulativeGasUsed": "0x740403",
      "logs": [
        {
          "address": "0x27ab1ef46295406d2190f7dbc4cdcfe6590ce076",
          "topics": [
            "0x238399d427b947898edb290f5ff0f9109849b1c3ba196a42e35f00c50a54b98b"
          ],
          "data": "0x0000000000000000000000000000000000000000000000000000000000009d2700000000000000000000000027ab1ef46295406d2190f7dbc4cdcfe6590ce076",
          "blockHash": "0x936bd7c1af78faf927ebdc86f915e605fc0a1f4753213db568ba38a6148e1a50",
          "blockNumber": "0x747951",
          "transactionHash": "0x2b6cc11ab006259005972e6d7504949f01887981d2137acceb6d54720322f4f1",
          "transactionIndex": "0x4c",
          "logIndex": "0x7c",
          "removed": false
        }
      ],
      "logsBloom": "0x00000000000000000000000000000000000000000000000000000000000000000000000000000000000000000000000000000000000000000800000000000000000000000000000000000000000000000000000000000000020000000000000000000000000000000000000000000000000000000000000000000000000000000000000000000000000000000000000000000000000000000000000000000000000000000000000000000000000000000000004000000000000002000000000000000000400000000000000000000000000000000000000000040000000000000000000000000000000000000000000000000000000000000000000000000000",
      "type": "0x2",
      "transactionHash": "0x2b6cc11ab006259005972e6d7504949f01887981d2137acceb6d54720322f4f1",
      "transactionIndex": "0x4c",
      "blockHash": "0x936bd7c1af78faf927ebdc86f915e605fc0a1f4753213db568ba38a6148e1a50",
      "blockNumber": "0x747951",
      "gasUsed": "0x6cbd",
      "effectiveGasPrice": "0x2426e1f15",
      "from": "0x5f5c3548f96c7da33a18e5f2f2f13519e1c8bd0d",
      "to": "0x27ab1ef46295406d2190f7dbc4cdcfe6590ce076",
      "contractAddress": null
    },
    {
      "status": "0x1",
      "cumulativeGasUsed": "0x5b568f",
      "logs": [
        {
          "address": "0x27ab1ef46295406d2190f7dbc4cdcfe6590ce076",
          "topics": [
            "0x238399d427b947898edb290f5ff0f9109849b1c3ba196a42e35f00c50a54b98b"
          ],
          "data": "0x0000000000000000000000000000000000000000000000000000000000009ce100000000000000000000000027ab1ef46295406d2190f7dbc4cdcfe6590ce076",
          "blockHash": "0x24e4fcf0e613e95274f0b6eb938e96a43ddd339137ba8912b6c3c391b05875e8",
          "blockNumber": "0x747952",
          "blockTimestamp": "0x67a119d4",
          "transactionHash": "0x29fbad7f3e7d27fbf3c3a73c29b90e79320db5f8ad2b8fab3f25fa20b9ffd812",
          "transactionIndex": "0x48",
          "logIndex": "0x66",
          "removed": false
        }
      ],
      "logsBloom": "0x00000000000000000000000000000000000000000000000000000000000000000000000000000000000000000000000000000000000000000800000000000000000000000000000000000000000000000000000000000000020000000000000000000000000000000000000000000000000000000000000000000000000000000000000000000000000000000000000000000000000000000000000000000000000000000000000000000000000000000000004000000000000002000000000000000000400000000000000000000000000000000000000000040000000000000000000000000000000000000000000000000000000000000000000000000000",
      "type": "0x2",
      "transactionHash": "0x29fbad7f3e7d27fbf3c3a73c29b90e79320db5f8ad2b8fab3f25fa20b9ffd812",
      "transactionIndex": "0x48",
      "blockHash": "0x24e4fcf0e613e95274f0b6eb938e96a43ddd339137ba8912b6c3c391b05875e8",
      "blockNumber": "0x747952",
      "gasUsed": "0x6cbd",
      "effectiveGasPrice": "0x2355ab36a",
      "from": "0x5f5c3548f96c7da33a18e5f2f2f13519e1c8bd0d",
      "to": "0x27ab1ef46295406d2190f7dbc4cdcfe6590ce076",
      "contractAddress": null
    },
    {
      "status": "0x1",
      "cumulativeGasUsed": "0x16782fe",
      "logs": [
        {
          "address": "0x27ab1ef46295406d2190f7dbc4cdcfe6590ce076",
          "topics": [
            "0x238399d427b947898edb290f5ff0f9109849b1c3ba196a42e35f00c50a54b98b"
          ],
          "data": "0x0000000000000000000000000000000000000000000000000000000000009caa00000000000000000000000027ab1ef46295406d2190f7dbc4cdcfe6590ce076",
          "blockHash": "0x08c1d4ae8fb95813a08fcf5759d7f1cd0ab53f5e7597f6c12107aff656996749",
          "blockNumber": "0x747955",
          "transactionHash": "0x080bbda207efd1d9c5590a72a45b65955800c7c6fede5c98cc4874b35beb0cc8",
          "transactionIndex": "0x6e",
          "logIndex": "0x1ef",
          "removed": false
        }
      ],
      "logsBloom": "0x00000000000000000000000000000000000000000000000000000000000000000000000000000000000000000000000000000000000000000800000000000000000000000000000000000000000000000000000000000000020000000000000000000000000000000000000000000000000000000000000000000000000000000000000000000000000000000000000000000000000000000000000000000000000000000000000000000000000000000000004000000000000002000000000000000000400000000000000000000000000000000000000000040000000000000000000000000000000000000000000000000000000000000000000000000000",
      "type": "0x2",
      "transactionHash": "0x080bbda207efd1d9c5590a72a45b65955800c7c6fede5c98cc4874b35beb0cc8",
      "transactionIndex": "0x6e",
      "blockHash": "0x08c1d4ae8fb95813a08fcf5759d7f1cd0ab53f5e7597f6c12107aff656996749",
      "blockNumber": "0x747955",
      "gasUsed": "0x6cbd",
      "effectiveGasPrice": "0x20349373d",
      "from": "0x5f5c3548f96c7da33a18e5f2f2f13519e1c8bd0d",
      "to": "0x27ab1ef46295406d2190f7dbc4cdcfe6590ce076",
      "contractAddress": null
    },
    {
      "status": "0x1",
      "cumulativeGasUsed": "0x765d4f",
      "logs": [
        {
          "address": "0x27ab1ef46295406d2190f7dbc4cdcfe6590ce076",
          "topics": [
            "0x238399d427b947898edb290f5ff0f9109849b1c3ba196a42e35f00c50a54b98b"
          ],
          "data": "0x0000000000000000000000000000000000000000000000000000000000009ca600000000000000000000000027ab1ef46295406d2190f7dbc4cdcfe6590ce076",
          "blockHash": "0xe24079aba8fe56b0b21f7b7bfd13769b492f6ba9f26c8a72750bcb2f7cf2b654",
          "blockNumber": "0x747956",
          "transactionHash": "0x74e20fc0e60984ba31f58fe5be04b70a896608a57f8b40294685fe04f5679cfe",
          "transactionIndex": "0x43",
          "logIndex": "0x66",
          "removed": false
        }
      ],
      "logsBloom": "0x00000000000000000000000000000000000000000000000000000000000000000000000000000000000000000000000000000000000000000800000000000000000000000000000000000000000000000000000000000000020000000000000000000000000000000000000000000000000000000000000000000000000000000000000000000000000000000000000000000000000000000000000000000000000000000000000000000000000000000000004000000000000002000000000000000000400000000000000000000000000000000000000000040000000000000000000000000000000000000000000000000000000000000000000000000000",
      "type": "0x2",
      "transactionHash": "0x74e20fc0e60984ba31f58fe5be04b70a896608a57f8b40294685fe04f5679cfe",
      "transactionIndex": "0x43",
      "blockHash": "0xe24079aba8fe56b0b21f7b7bfd13769b492f6ba9f26c8a72750bcb2f7cf2b654",
      "blockNumber": "0x747956",
      "gasUsed": "0x6cbd",
      "effectiveGasPrice": "0x241dcf9b4",
      "from": "0x5f5c3548f96c7da33a18e5f2f2f13519e1c8bd0d",
      "to": "0x27ab1ef46295406d2190f7dbc4cdcfe6590ce076",
      "contractAddress": null
    },
    {
      "status": "0x1",
      "cumulativeGasUsed": "0xdfda62",
      "logs": [
        {
          "address": "0x27ab1ef46295406d2190f7dbc4cdcfe6590ce076",
          "topics": [
            "0x238399d427b947898edb290f5ff0f9109849b1c3ba196a42e35f00c50a54b98b"
          ],
          "data": "0x0000000000000000000000000000000000000000000000000000000000009d2700000000000000000000000027ab1ef46295406d2190f7dbc4cdcfe6590ce076",
          "blockHash": "0x33f6fd17a94ed41c595a4cd38cc275fa368881a8fd1e9da3b790d8e149886759",
          "blockNumber": "0x747957",
          "blockTimestamp": "0x67a11a10",
          "transactionHash": "0x05e82017de64f3fcdaf7db88dfee961b539d81bb768044865288cbf19b6e8cf3",
          "transactionIndex": "0x54",
          "logIndex": "0x86",
          "removed": false
        }
      ],
      "logsBloom": "0x00000000000000000000000000000000000000000000000000000000000000000000000000000000000000000000000000000000000000000800000000000000000000000000000000000000000000000000000000000000020000000000000000000000000000000000000000000000000000000000000000000000000000000000000000000000000000000000000000000000000000000000000000000000000000000000000000000000000000000000004000000000000002000000000000000000400000000000000000000000000000000000000000040000000000000000000000000000000000000000000000000000000000000000000000000000",
      "type": "0x2",
      "transactionHash": "0x05e82017de64f3fcdaf7db88dfee961b539d81bb768044865288cbf19b6e8cf3",
      "transactionIndex": "0x54",
      "blockHash": "0x33f6fd17a94ed41c595a4cd38cc275fa368881a8fd1e9da3b790d8e149886759",
      "blockNumber": "0x747957",
      "gasUsed": "0x6cbd",
      "effectiveGasPrice": "0x236a6b563",
      "from": "0x5f5c3548f96c7da33a18e5f2f2f13519e1c8bd0d",
      "to": "0x27ab1ef46295406d2190f7dbc4cdcfe6590ce076",
      "contractAddress": null
    },
    {
      "status": "0x1",
      "cumulativeGasUsed": "0xd1d036",
      "logs": [
        {
          "address": "0x27ab1ef46295406d2190f7dbc4cdcfe6590ce076",
          "topics": [
            "0x238399d427b947898edb290f5ff0f9109849b1c3ba196a42e35f00c50a54b98b"
          ],
          "data": "0x0000000000000000000000000000000000000000000000000000000000009ce100000000000000000000000027ab1ef46295406d2190f7dbc4cdcfe6590ce076",
          "blockHash": "0x897119baea803de4a32aafdb1a12fec46aa67b007be846ae8262d1f8aa8a3977",
          "blockNumber": "0x747958",
          "blockTimestamp": "0x67a11a1c",
          "transactionHash": "0x30ade90d2206df0b75f8571590f9d7dce5a53a8bac715946b0f1899664573025",
          "transactionIndex": "0x49",
          "logIndex": "0x130",
          "removed": false
        }
      ],
      "logsBloom": "0x00000000000000000000000000000000000000000000000000000000000000000000000000000000000000000000000000000000000000000800000000000000000000000000000000000000000000000000000000000000020000000000000000000000000000000000000000000000000000000000000000000000000000000000000000000000000000000000000000000000000000000000000000000000000000000000000000000000000000000000004000000000000002000000000000000000400000000000000000000000000000000000000000040000000000000000000000000000000000000000000000000000000000000000000000000000",
      "type": "0x2",
      "transactionHash": "0x30ade90d2206df0b75f8571590f9d7dce5a53a8bac715946b0f1899664573025",
      "transactionIndex": "0x49",
      "blockHash": "0x897119baea803de4a32aafdb1a12fec46aa67b007be846ae8262d1f8aa8a3977",
      "blockNumber": "0x747958",
      "gasUsed": "0x6cbd",
      "effectiveGasPrice": "0x235b062bc",
      "from": "0x5f5c3548f96c7da33a18e5f2f2f13519e1c8bd0d",
      "to": "0x27ab1ef46295406d2190f7dbc4cdcfe6590ce076",
      "contractAddress": null
    },
    {
      "status": "0x1",
      "cumulativeGasUsed": "0x88de1f",
      "logs": [
        {
          "address": "0x27ab1ef46295406d2190f7dbc4cdcfe6590ce076",
          "topics": [
            "0x238399d427b947898edb290f5ff0f9109849b1c3ba196a42e35f00c50a54b98b"
          ],
          "data": "0x0000000000000000000000000000000000000000000000000000000000009caa00000000000000000000000027ab1ef46295406d2190f7dbc4cdcfe6590ce076",
          "blockHash": "0x18f1467f732fefa00f19e5034d2a8ce698fc3765ff3152cbc88c995d66ec2a8f",
          "blockNumber": "0x747959",
          "transactionHash": "0xa01688c5a11aa224e437208107393188cb5367528c3efa74e2657f037a66a8ce",
          "transactionIndex": "0x49",
          "logIndex": "0x96",
          "removed": false
        }
      ],
      "logsBloom": "0x00000000000000000000000000000000000000000000000000000000000000000000000000000000000000000000000000000000000000000800000000000000000000000000000000000000000000000000000000000000020000000000000000000000000000000000000000000000000000000000000000000000000000000000000000000000000000000000000000000000000000000000000000000000000000000000000000000000000000000000004000000000000002000000000000000000400000000000000000000000000000000000000000040000000000000000000000000000000000000000000000000000000000000000000000000000",
      "type": "0x2",
      "transactionHash": "0xa01688c5a11aa224e437208107393188cb5367528c3efa74e2657f037a66a8ce",
      "transactionIndex": "0x49",
      "blockHash": "0x18f1467f732fefa00f19e5034d2a8ce698fc3765ff3152cbc88c995d66ec2a8f",
      "blockNumber": "0x747959",
      "gasUsed": "0x6cbd",
      "effectiveGasPrice": "0x22c690740",
      "from": "0x5f5c3548f96c7da33a18e5f2f2f13519e1c8bd0d",
      "to": "0x27ab1ef46295406d2190f7dbc4cdcfe6590ce076",
      "contractAddress": null
    },
    {
      "status": "0x1",
      "cumulativeGasUsed": "0xe1f64d",
      "logs": [
        {
          "address": "0x27ab1ef46295406d2190f7dbc4cdcfe6590ce076",
          "topics": [
            "0x238399d427b947898edb290f5ff0f9109849b1c3ba196a42e35f00c50a54b98b"
          ],
          "data": "0x0000000000000000000000000000000000000000000000000000000000009d3500000000000000000000000027ab1ef46295406d2190f7dbc4cdcfe6590ce076",
          "blockHash": "0x8d99de987f8f4826795d78baad2a81f1e3b5b94ad4f8e03c384b365c81d5b8e7",
          "blockNumber": "0x74795a",
          "transactionHash": "0x859076f59237327b5db94e2cea62161b7e04175dcf4809c83a02c15c31417f2b",
          "transactionIndex": "0x4d",
          "logIndex": "0x14f",
          "removed": false
        }
      ],
      "logsBloom": "0x00000000000000000000000000000000000000000000000000000000000000000000000000000000000000000000000000000000000000000800000000000000000000000000000000000000000000000000000000000000020000000000000000000000000000000000000000000000000000000000000000000000000000000000000000000000000000000000000000000000000000000000000000000000000000000000000000000000000000000000004000000000000002000000000000000000400000000000000000000000000000000000000000040000000000000000000000000000000000000000000000000000000000000000000000000000",
      "type": "0x2",
      "transactionHash": "0x859076f59237327b5db94e2cea62161b7e04175dcf4809c83a02c15c31417f2b",
      "transactionIndex": "0x4d",
      "blockHash": "0x8d99de987f8f4826795d78baad2a81f1e3b5b94ad4f8e03c384b365c81d5b8e7",
      "blockNumber": "0x74795a",
      "gasUsed": "0x6cbd",
      "effectiveGasPrice": "0x21253293e",
      "from": "0x5f5c3548f96c7da33a18e5f2f2f13519e1c8bd0d",
      "to": "0x27ab1ef46295406d2190f7dbc4cdcfe6590ce076",
      "contractAddress": null
    },
    {
      "status": "0x1",
      "cumulativeGasUsed": "0xa87721",
      "logs": [
        {
          "address": "0x27ab1ef46295406d2190f7dbc4cdcfe6590ce076",
          "topics": [
            "0x238399d427b947898edb290f5ff0f9109849b1c3ba196a42e35f00c50a54b98b"
          ],
          "data": "0x0000000000000000000000000000000000000000000000000000000000009d2700000000000000000000000027ab1ef46295406d2190f7dbc4cdcfe6590ce076",
          "blockHash": "0xb4ebedfd3fa543feedf793043b59ec8ac2e92d962bd8282882abd4d98acf4fcd",
          "blockNumber": "0x74795b",
          "transactionHash": "0x25c50b4e66f1098f367e2f269dc192eb7b39cf5c4335a49852cbce4298dcb4c1",
          "transactionIndex": "0x63",
          "logIndex": "0xb2",
          "removed": false
        }
      ],
      "logsBloom": "0x00000000000000000000000000000000000000000000000000000000000000000000000000000000000000000000000000000000000000000800000000000000000000000000000000000000000000000000000000000000020000000000000000000000000000000000000000000000000000000000000000000000000000000000000000000000000000000000000000000000000000000000000000000000000000000000000000000000000000000000004000000000000002000000000000000000400000000000000000000000000000000000000000040000000000000000000000000000000000000000000000000000000000000000000000000000",
      "type": "0x2",
      "transactionHash": "0x25c50b4e66f1098f367e2f269dc192eb7b39cf5c4335a49852cbce4298dcb4c1",
      "transactionIndex": "0x63",
      "blockHash": "0xb4ebedfd3fa543feedf793043b59ec8ac2e92d962bd8282882abd4d98acf4fcd",
      "blockNumber": "0x74795b",
      "gasUsed": "0x6cbd",
      "effectiveGasPrice": "0x20d2c5631",
      "from": "0x5f5c3548f96c7da33a18e5f2f2f13519e1c8bd0d",
      "to": "0x27ab1ef46295406d2190f7dbc4cdcfe6590ce076",
      "contractAddress": null
    },
    {
      "status": "0x1",
      "cumulativeGasUsed": "0xebaa39",
      "logs": [
        {
          "address": "0x27ab1ef46295406d2190f7dbc4cdcfe6590ce076",
          "topics": [
            "0x238399d427b947898edb290f5ff0f9109849b1c3ba196a42e35f00c50a54b98b"
          ],
          "data": "0x0000000000000000000000000000000000000000000000000000000000009ce100000000000000000000000027ab1ef46295406d2190f7dbc4cdcfe6590ce076",
          "blockHash": "0x46f396a82c8776e3be7d60d981c3e8d8877f3b2a610004c3b3d212a7fa1e9ce8",
          "blockNumber": "0x74795c",
          "blockTimestamp": "0x67a11a4c",
          "transactionHash": "0x6059b18c5a73f3d18ba0b7822d54b548610d890d190d2660fc82cc6c5db3337e",
          "transactionIndex": "0x56",
          "logIndex": "0xb5",
          "removed": false
        }
      ],
      "logsBloom": "0x00000000000000000000000000000000000000000000000000000000000000000000000000000000000000000000000000000000000000000800000000000000000000000000000000000000000000000000000000000000020000000000000000000000000000000000000000000000000000000000000000000000000000000000000000000000000000000000000000000000000000000000000000000000000000000000000000000000000000000000004000000000000002000000000000000000400000000000000000000000000000000000000000040000000000000000000000000000000000000000000000000000000000000000000000000000",
      "type": "0x2",
      "transactionHash": "0x6059b18c5a73f3d18ba0b7822d54b548610d890d190d2660fc82cc6c5db3337e",
      "transactionIndex": "0x56",
      "blockHash": "0x46f396a82c8776e3be7d60d981c3e8d8877f3b2a610004c3b3d212a7fa1e9ce8",
      "blockNumber": "0x74795c",
      "gasUsed": "0x6cbd",
      "effectiveGasPrice": "0x1f9ed9240",
      "from": "0x5f5c3548f96c7da33a18e5f2f2f13519e1c8bd0d",
      "to": "0x27ab1ef46295406d2190f7dbc4cdcfe6590ce076",
      "contractAddress": null
    },
    {
      "status": "0x1",
      "cumulativeGasUsed": "0xf44bf6",
      "logs": [
        {
          "address": "0x27ab1ef46295406d2190f7dbc4cdcfe6590ce076",
          "topics": [
            "0x238399d427b947898edb290f5ff0f9109849b1c3ba196a42e35f00c50a54b98b"
          ],
          "data": "0x0000000000000000000000000000000000000000000000000000000000009caa00000000000000000000000027ab1ef46295406d2190f7dbc4cdcfe6590ce076",
          "blockHash": "0x2c8d7f59dd15caef120e5ce24c9a112bba783b51aa516504db714c9c2e6e92c7",
          "blockNumber": "0x74795d",
          "transactionHash": "0x05b22c8226cc99b741bad71eb8c83931b43efc14372f26ac34c6d1db908fc8e9",
          "transactionIndex": "0x54",
          "logIndex": "0x15c",
          "removed": false
        }
      ],
      "logsBloom": "0x00000000000000000000000000000000000000000000000000000000000000000000000000000000000000000000000000000000000000000800000000000000000000000000000000000000000000000000000000000000020000000000000000000000000000000000000000000000000000000000000000000000000000000000000000000000000000000000000000000000000000000000000000000000000000000000000000000000000000000000004000000000000002000000000000000000400000000000000000000000000000000000000000040000000000000000000000000000000000000000000000000000000000000000000000000000",
      "type": "0x2",
      "transactionHash": "0x05b22c8226cc99b741bad71eb8c83931b43efc14372f26ac34c6d1db908fc8e9",
      "transactionIndex": "0x54",
      "blockHash": "0x2c8d7f59dd15caef120e5ce24c9a112bba783b51aa516504db714c9c2e6e92c7",
      "blockNumber": "0x74795d",
      "gasUsed": "0x6cbd",
      "effectiveGasPrice": "0x207edc373",
      "from": "0x5f5c3548f96c7da33a18e5f2f2f13519e1c8bd0d",
      "to": "0x27ab1ef46295406d2190f7dbc4cdcfe6590ce076",
      "contractAddress": null
    },
    {
      "status": "0x1",
      "cumulativeGasUsed": "0x10dd731",
      "logs": [
        {
          "address": "0x27ab1ef46295406d2190f7dbc4cdcfe6590ce076",
          "topics": [
            "0x238399d427b947898edb290f5ff0f9109849b1c3ba196a42e35f00c50a54b98b"
          ],
          "data": "0x0000000000000000000000000000000000000000000000000000000000009d3500000000000000000000000027ab1ef46295406d2190f7dbc4cdcfe6590ce076",
          "blockHash": "0xbfd7c4ff7c7d42e558358575bc7a30c5351cd65473a4691c39a6055ccad977c5",
          "blockNumber": "0x74795f",
          "transactionHash": "0x9149525ec4c7593a5b61a0dda8a7398ba7a880fefc31a89af76a737129dcdec2",
          "transactionIndex": "0x50",
          "logIndex": "0x14b",
          "removed": false
        }
      ],
      "logsBloom": "0x00000000000000000000000000000000000000000000000000000000000000000000000000000000000000000000000000000000000000000800000000000000000000000000000000000000000000000000000000000000020000000000000000000000000000000000000000000000000000000000000000000000000000000000000000000000000000000000000000000000000000000000000000000000000000000000000000000000000000000000004000000000000002000000000000000000400000000000000000000000000000000000000000040000000000000000000000000000000000000000000000000000000000000000000000000000",
      "type": "0x2",
      "transactionHash": "0x9149525ec4c7593a5b61a0dda8a7398ba7a880fefc31a89af76a737129dcdec2",
      "transactionIndex": "0x50",
      "blockHash": "0xbfd7c4ff7c7d42e558358575bc7a30c5351cd65473a4691c39a6055ccad977c5",
      "blockNumber": "0x74795f",
      "gasUsed": "0x6cbd",
      "effectiveGasPrice": "0x1e919e28f",
      "from": "0x5f5c3548f96c7da33a18e5f2f2f13519e1c8bd0d",
      "to": "0x27ab1ef46295406d2190f7dbc4cdcfe6590ce076",
      "contractAddress": null
    },
    {
      "status": "0x1",
      "cumulativeGasUsed": "0x73fb6e",
      "logs": [
        {
          "address": "0x27ab1ef46295406d2190f7dbc4cdcfe6590ce076",
          "topics": [
            "0x238399d427b947898edb290f5ff0f9109849b1c3ba196a42e35f00c50a54b98b"
          ],
          "data": "0x0000000000000000000000000000000000000000000000000000000000009ca600000000000000000000000027ab1ef46295406d2190f7dbc4cdcfe6590ce076",
          "blockHash": "0xfbe512d0085642f95672ac4b0f717b51ab43cfe5f627999880b1f7704cdcd656",
          "blockNumber": "0x747960",
          "transactionHash": "0x182fd28032bcdc8530d64125df637511e9471589db4fbd78bd721db1c6406d2f",
          "transactionIndex": "0x46",
          "logIndex": "0x5e",
          "removed": false
        }
      ],
      "logsBloom": "0x00000000000000000000000000000000000000000000000000000000000000000000000000000000000000000000000000000000000000000800000000000000000000000000000000000000000000000000000000000000020000000000000000000000000000000000000000000000000000000000000000000000000000000000000000000000000000000000000000000000000000000000000000000000000000000000000000000000000000000000004000000000000002000000000000000000400000000000000000000000000000000000000000040000000000000000000000000000000000000000000000000000000000000000000000000000",
      "type": "0x2",
      "transactionHash": "0x182fd28032bcdc8530d64125df637511e9471589db4fbd78bd721db1c6406d2f",
      "transactionIndex": "0x46",
      "blockHash": "0xfbe512d0085642f95672ac4b0f717b51ab43cfe5f627999880b1f7704cdcd656",
      "blockNumber": "0x747960",
      "gasUsed": "0x6cbd",
      "effectiveGasPrice": "0x21855b729",
      "from": "0x5f5c3548f96c7da33a18e5f2f2f13519e1c8bd0d",
      "to": "0x27ab1ef46295406d2190f7dbc4cdcfe6590ce076",
      "contractAddress": null
    }
  ],
  "libraries": [],
  "pending": [],
  "returns": {},
  "timestamp": 1738611326,
  "chain": 11155111,
  "commit": "7feddfe"
}