{
  "transactions": [
    {
      "hash": "0x25aa210f73fce4db1a038db8a3944a6751623c8550b0f564a8d838b154e2d099",
      "transactionType": "CALL",
      "contractName": null,
      "contractAddress": "0x27ab1ef46295406d2190f7dbc4cdcfe6590ce076",
      "function": "setPeer(uint32,bytes32)",
      "arguments": [
        "40106",
        "0x00000000000000000000000027ab1ef46295406d2190f7dbc4cdcfe6590ce076"
      ],
      "transaction": {
        "from": "0x5f5c3548f96c7da33a18e5f2f2f13519e1c8bd0d",
        "to": "0x27ab1ef46295406d2190f7dbc4cdcfe6590ce076",
        "gas": "0x9630",
        "value": "0x0",
        "input": "0x3400288b0000000000000000000000000000000000000000000000000000000000009caa00000000000000000000000027ab1ef46295406d2190f7dbc4cdcfe6590ce076",
        "nonce": "0x13b",
        "chainId": "0xaa36a7"
      },
      "additionalContracts": [],
      "isFixedGasLimit": false
    },
    {
      "hash": "0x1059ec522455c0e21343fa6e221863884c2f8d005b7d31f5ac922451f8bee5b2",
      "transactionType": "CALL",
      "contractName": null,
      "contractAddress": "0x27ab1ef46295406d2190f7dbc4cdcfe6590ce076",
      "function": "setPeer(uint32,bytes32)",
      "arguments": [
        "40245",
        "0x00000000000000000000000027ab1ef46295406d2190f7dbc4cdcfe6590ce076"
      ],
      "transaction": {
        "from": "0x5f5c3548f96c7da33a18e5f2f2f13519e1c8bd0d",
        "to": "0x27ab1ef46295406d2190f7dbc4cdcfe6590ce076",
        "gas": "0x9630",
        "value": "0x0",
        "input": "0x3400288b0000000000000000000000000000000000000000000000000000000000009d3500000000000000000000000027ab1ef46295406d2190f7dbc4cdcfe6590ce076",
        "nonce": "0x13c",
        "chainId": "0xaa36a7"
      },
      "additionalContracts": [],
      "isFixedGasLimit": false
    },
    {
      "hash": "0x64c6a3e91033243d237017e08bfa47758b7553ccfe9d2576a6e07a234fe34080",
      "transactionType": "CALL",
      "contractName": null,
      "contractAddress": "0x27ab1ef46295406d2190f7dbc4cdcfe6590ce076",
      "function": "setPeer(uint32,bytes32)",
      "arguments": [
        "40102",
        "0x00000000000000000000000027ab1ef46295406d2190f7dbc4cdcfe6590ce076"
      ],
      "transaction": {
        "from": "0x5f5c3548f96c7da33a18e5f2f2f13519e1c8bd0d",
        "to": "0x27ab1ef46295406d2190f7dbc4cdcfe6590ce076",
        "gas": "0x9630",
        "value": "0x0",
        "input": "0x3400288b0000000000000000000000000000000000000000000000000000000000009ca600000000000000000000000027ab1ef46295406d2190f7dbc4cdcfe6590ce076",
        "nonce": "0x13d",
        "chainId": "0xaa36a7"
      },
      "additionalContracts": [],
      "isFixedGasLimit": false
    },
    {
      "hash": "0xfe5698eaf60120a81a43828d403bd98e11d1ec46eeeb98391267ede29c7eeede",
      "transactionType": "CALL",
      "contractName": null,
      "contractAddress": "0x27ab1ef46295406d2190f7dbc4cdcfe6590ce076",
      "function": "setPeer(uint32,bytes32)",
      "arguments": [
        "40161",
        "0x00000000000000000000000027ab1ef46295406d2190f7dbc4cdcfe6590ce076"
      ],
      "transaction": {
        "from": "0x5f5c3548f96c7da33a18e5f2f2f13519e1c8bd0d",
        "to": "0x27ab1ef46295406d2190f7dbc4cdcfe6590ce076",
        "gas": "0x9630",
        "value": "0x0",
        "input": "0x3400288b0000000000000000000000000000000000000000000000000000000000009ce100000000000000000000000027ab1ef46295406d2190f7dbc4cdcfe6590ce076",
        "nonce": "0x13e",
        "chainId": "0xaa36a7"
      },
      "additionalContracts": [],
      "isFixedGasLimit": false
    },
    {
      "hash": "0x716292459cd0fa4eddb4f4c922f834ae91504d578ef188773af9dd3815f3a06a",
      "transactionType": "CALL",
      "contractName": null,
      "contractAddress": "0x27ab1ef46295406d2190f7dbc4cdcfe6590ce076",
      "function": "setPeer(uint32,bytes32)",
      "arguments": [
        "40245",
        "0x00000000000000000000000027ab1ef46295406d2190f7dbc4cdcfe6590ce076"
      ],
      "transaction": {
        "from": "0x5f5c3548f96c7da33a18e5f2f2f13519e1c8bd0d",
        "to": "0x27ab1ef46295406d2190f7dbc4cdcfe6590ce076",
        "gas": "0x9630",
        "value": "0x0",
        "input": "0x3400288b0000000000000000000000000000000000000000000000000000000000009d3500000000000000000000000027ab1ef46295406d2190f7dbc4cdcfe6590ce076",
        "nonce": "0x13f",
        "chainId": "0xaa36a7"
      },
      "additionalContracts": [],
      "isFixedGasLimit": false
    },
    {
      "hash": "0x3151fb4ed674afb3fc1b63679a813cbd14e5ce0f462396c56f22d261813329c6",
      "transactionType": "CALL",
      "contractName": null,
      "contractAddress": "0x27ab1ef46295406d2190f7dbc4cdcfe6590ce076",
      "function": "setPeer(uint32,bytes32)",
      "arguments": [
        "40102",
        "0x00000000000000000000000027ab1ef46295406d2190f7dbc4cdcfe6590ce076"
      ],
      "transaction": {
        "from": "0x5f5c3548f96c7da33a18e5f2f2f13519e1c8bd0d",
        "to": "0x27ab1ef46295406d2190f7dbc4cdcfe6590ce076",
        "gas": "0x9630",
        "value": "0x0",
        "input": "0x3400288b0000000000000000000000000000000000000000000000000000000000009ca600000000000000000000000027ab1ef46295406d2190f7dbc4cdcfe6590ce076",
        "nonce": "0x140",
        "chainId": "0xaa36a7"
      },
      "additionalContracts": [],
      "isFixedGasLimit": false
    },
    {
      "hash": "0x2568c95e1434f204df1b1a2178a73aa6fcc837969e81e86dca56a6be0a9393d8",
      "transactionType": "CALL",
      "contractName": null,
      "contractAddress": "0x27ab1ef46295406d2190f7dbc4cdcfe6590ce076",
      "function": "setPeer(uint32,bytes32)",
      "arguments": [
        "40161",
        "0x00000000000000000000000027ab1ef46295406d2190f7dbc4cdcfe6590ce076"
      ],
      "transaction": {
        "from": "0x5f5c3548f96c7da33a18e5f2f2f13519e1c8bd0d",
        "to": "0x27ab1ef46295406d2190f7dbc4cdcfe6590ce076",
        "gas": "0x9630",
        "value": "0x0",
        "input": "0x3400288b0000000000000000000000000000000000000000000000000000000000009ce100000000000000000000000027ab1ef46295406d2190f7dbc4cdcfe6590ce076",
        "nonce": "0x141",
        "chainId": "0xaa36a7"
      },
      "additionalContracts": [],
      "isFixedGasLimit": false
    },
    {
      "hash": "0x7869fa7a8b080c35d12e263308e288db6b6b66ebfed336b1bb43a0ebef21d398",
      "transactionType": "CALL",
      "contractName": null,
      "contractAddress": "0x27ab1ef46295406d2190f7dbc4cdcfe6590ce076",
      "function": "setPeer(uint32,bytes32)",
      "arguments": [
        "40106",
        "0x00000000000000000000000027ab1ef46295406d2190f7dbc4cdcfe6590ce076"
      ],
      "transaction": {
        "from": "0x5f5c3548f96c7da33a18e5f2f2f13519e1c8bd0d",
        "to": "0x27ab1ef46295406d2190f7dbc4cdcfe6590ce076",
        "gas": "0x9630",
        "value": "0x0",
        "input": "0x3400288b0000000000000000000000000000000000000000000000000000000000009caa00000000000000000000000027ab1ef46295406d2190f7dbc4cdcfe6590ce076",
        "nonce": "0x142",
        "chainId": "0xaa36a7"
      },
      "additionalContracts": [],
      "isFixedGasLimit": false
    },
    {
      "hash": "0x57a1f4e65ead1fce6b0c0b5cef5b25efce1743d681c0c840a81f330d50b4f311",
      "transactionType": "CALL",
      "contractName": null,
      "contractAddress": "0x27ab1ef46295406d2190f7dbc4cdcfe6590ce076",
      "function": "setPeer(uint32,bytes32)",
      "arguments": [
        "40102",
        "0x00000000000000000000000027ab1ef46295406d2190f7dbc4cdcfe6590ce076"
      ],
      "transaction": {
        "from": "0x5f5c3548f96c7da33a18e5f2f2f13519e1c8bd0d",
        "to": "0x27ab1ef46295406d2190f7dbc4cdcfe6590ce076",
        "gas": "0x9630",
        "value": "0x0",
        "input": "0x3400288b0000000000000000000000000000000000000000000000000000000000009ca600000000000000000000000027ab1ef46295406d2190f7dbc4cdcfe6590ce076",
        "nonce": "0x143",
        "chainId": "0xaa36a7"
      },
      "additionalContracts": [],
      "isFixedGasLimit": false
    },
    {
      "hash": "0x036c3b90984d339509783e7aa1866a18f519f5a2fea4b7721db72cfd76eb1686",
      "transactionType": "CALL",
      "contractName": null,
      "contractAddress": "0x27ab1ef46295406d2190f7dbc4cdcfe6590ce076",
      "function": "setPeer(uint32,bytes32)",
      "arguments": [
        "40161",
        "0x00000000000000000000000027ab1ef46295406d2190f7dbc4cdcfe6590ce076"
      ],
      "transaction": {
        "from": "0x5f5c3548f96c7da33a18e5f2f2f13519e1c8bd0d",
        "to": "0x27ab1ef46295406d2190f7dbc4cdcfe6590ce076",
        "gas": "0x9630",
        "value": "0x0",
        "input": "0x3400288b0000000000000000000000000000000000000000000000000000000000009ce100000000000000000000000027ab1ef46295406d2190f7dbc4cdcfe6590ce076",
        "nonce": "0x144",
        "chainId": "0xaa36a7"
      },
      "additionalContracts": [],
      "isFixedGasLimit": false
    },
    {
      "hash": "0x26b4e2434b39a9dd70e8036b77698da02fa3e5c6bcfa84a497c094d44410ef27",
      "transactionType": "CALL",
      "contractName": null,
      "contractAddress": "0x27ab1ef46295406d2190f7dbc4cdcfe6590ce076",
      "function": "setPeer(uint32,bytes32)",
      "arguments": [
        "40106",
        "0x00000000000000000000000027ab1ef46295406d2190f7dbc4cdcfe6590ce076"
      ],
      "transaction": {
        "from": "0x5f5c3548f96c7da33a18e5f2f2f13519e1c8bd0d",
        "to": "0x27ab1ef46295406d2190f7dbc4cdcfe6590ce076",
        "gas": "0x9630",
        "value": "0x0",
        "input": "0x3400288b0000000000000000000000000000000000000000000000000000000000009caa00000000000000000000000027ab1ef46295406d2190f7dbc4cdcfe6590ce076",
        "nonce": "0x145",
        "chainId": "0xaa36a7"
      },
      "additionalContracts": [],
      "isFixedGasLimit": false
    },
    {
      "hash": "0x26cef114a1fb2c1791b7d895996034afe78c8f8596cef24173136ffc2dc18491",
      "transactionType": "CALL",
      "contractName": null,
      "contractAddress": "0x27ab1ef46295406d2190f7dbc4cdcfe6590ce076",
      "function": "setPeer(uint32,bytes32)",
      "arguments": [
        "40245",
        "0x00000000000000000000000027ab1ef46295406d2190f7dbc4cdcfe6590ce076"
      ],
      "transaction": {
        "from": "0x5f5c3548f96c7da33a18e5f2f2f13519e1c8bd0d",
        "to": "0x27ab1ef46295406d2190f7dbc4cdcfe6590ce076",
        "gas": "0x9630",
        "value": "0x0",
        "input": "0x3400288b0000000000000000000000000000000000000000000000000000000000009d3500000000000000000000000027ab1ef46295406d2190f7dbc4cdcfe6590ce076",
        "nonce": "0x146",
        "chainId": "0xaa36a7"
      },
      "additionalContracts": [],
      "isFixedGasLimit": false
    }
  ],
  "receipts": [
    {
      "status": "0x1",
      "cumulativeGasUsed": "0x1c04e88",
      "logs": [
        {
          "address": "0x27ab1ef46295406d2190f7dbc4cdcfe6590ce076",
          "topics": [
            "0x238399d427b947898edb290f5ff0f9109849b1c3ba196a42e35f00c50a54b98b"
          ],
          "data": "0x0000000000000000000000000000000000000000000000000000000000009caa00000000000000000000000027ab1ef46295406d2190f7dbc4cdcfe6590ce076",
          "blockHash": "0x9fdf52ecb4f8390458303fcacb99432ffe2c47bdf0fcafefaa13f6577c680161",
          "blockNumber": "0x734865",
          "transactionHash": "0x25aa210f73fce4db1a038db8a3944a6751623c8550b0f564a8d838b154e2d099",
          "transactionIndex": "0xc0",
          "logIndex": "0x19a",
          "removed": false
        }
      ],
      "logsBloom": "0x00000000000000000000000000000000000000000000000000000000000000000000000000000000000000000000000000000000000000000800000000000000000000000000000000000000000000000000000000000000020000000000000000000000000000000000000000000000000000000000000000000000000000000000000000000000000000000000000000000000000000000000000000000000000000000000000000000000000000000000004000000000000002000000000000000000400000000000000000000000000000000000000000040000000000000000000000000000000000000000000000000000000000000000000000000000",
      "type": "0x2",
      "transactionHash": "0x25aa210f73fce4db1a038db8a3944a6751623c8550b0f564a8d838b154e2d099",
      "transactionIndex": "0xc0",
      "blockHash": "0x9fdf52ecb4f8390458303fcacb99432ffe2c47bdf0fcafefaa13f6577c680161",
      "blockNumber": "0x734865",
      "gasUsed": "0x6cbd",
      "effectiveGasPrice": "0x6d41c4d6a",
      "from": "0x5f5c3548f96c7da33a18e5f2f2f13519e1c8bd0d",
      "to": "0x27ab1ef46295406d2190f7dbc4cdcfe6590ce076",
      "contractAddress": null
    },
    {
      "status": "0x1",
      "cumulativeGasUsed": "0x1435c66",
      "logs": [
        {
          "address": "0x27ab1ef46295406d2190f7dbc4cdcfe6590ce076",
          "topics": [
            "0x238399d427b947898edb290f5ff0f9109849b1c3ba196a42e35f00c50a54b98b"
          ],
          "data": "0x0000000000000000000000000000000000000000000000000000000000009d3500000000000000000000000027ab1ef46295406d2190f7dbc4cdcfe6590ce076",
          "blockHash": "0x6748790d15a8887167532faf3fc793d436c4582fc2397c9c27bd7ace50a30f56",
          "blockNumber": "0x734866",
          "transactionHash": "0x1059ec522455c0e21343fa6e221863884c2f8d005b7d31f5ac922451f8bee5b2",
          "transactionIndex": "0xb3",
          "logIndex": "0x199",
          "removed": false
        }
      ],
      "logsBloom": "0x00000000000000000000000000000000000000000000000000000000000000000000000000000000000000000000000000000000000000000800000000000000000000000000000000000000000000000000000000000000020000000000000000000000000000000000000000000000000000000000000000000000000000000000000000000000000000000000000000000000000000000000000000000000000000000000000000000000000000000000004000000000000002000000000000000000400000000000000000000000000000000000000000040000000000000000000000000000000000000000000000000000000000000000000000000000",
      "type": "0x2",
      "transactionHash": "0x1059ec522455c0e21343fa6e221863884c2f8d005b7d31f5ac922451f8bee5b2",
      "transactionIndex": "0xb3",
      "blockHash": "0x6748790d15a8887167532faf3fc793d436c4582fc2397c9c27bd7ace50a30f56",
      "blockNumber": "0x734866",
      "gasUsed": "0x6cbd",
      "effectiveGasPrice": "0x7a430b89c",
      "from": "0x5f5c3548f96c7da33a18e5f2f2f13519e1c8bd0d",
      "to": "0x27ab1ef46295406d2190f7dbc4cdcfe6590ce076",
      "contractAddress": null
    },
    {
      "status": "0x1",
      "cumulativeGasUsed": "0x9f7651",
      "logs": [
        {
          "address": "0x27ab1ef46295406d2190f7dbc4cdcfe6590ce076",
          "topics": [
            "0x238399d427b947898edb290f5ff0f9109849b1c3ba196a42e35f00c50a54b98b"
          ],
          "data": "0x0000000000000000000000000000000000000000000000000000000000009ca600000000000000000000000027ab1ef46295406d2190f7dbc4cdcfe6590ce076",
          "blockHash": "0x19b8fa671a80a6c8253ee388344879c6615cf522892c0e8da76c04ce07f4a20b",
          "blockNumber": "0x734867",
          "transactionHash": "0x64c6a3e91033243d237017e08bfa47758b7553ccfe9d2576a6e07a234fe34080",
          "transactionIndex": "0x59",
          "logIndex": "0x7c",
          "removed": false
        }
      ],
      "logsBloom": "0x00000000000000000000000000000000000000000000000000000000000000000000000000000000000000000000000000000000000000000800000000000000000000000000000000000000000000000000000000000000020000000000000000000000000000000000000000000000000000000000000000000000000000000000000000000000000000000000000000000000000000000000000000000000000000000000000000000000000000000000004000000000000002000000000000000000400000000000000000000000000000000000000000040000000000000000000000000000000000000000000000000000000000000000000000000000",
      "type": "0x2",
      "transactionHash": "0x64c6a3e91033243d237017e08bfa47758b7553ccfe9d2576a6e07a234fe34080",
      "transactionIndex": "0x59",
      "blockHash": "0x19b8fa671a80a6c8253ee388344879c6615cf522892c0e8da76c04ce07f4a20b",
      "blockNumber": "0x734867",
      "gasUsed": "0x6cbd",
      "effectiveGasPrice": "0x7d8984fca",
      "from": "0x5f5c3548f96c7da33a18e5f2f2f13519e1c8bd0d",
      "to": "0x27ab1ef46295406d2190f7dbc4cdcfe6590ce076",
      "contractAddress": null
    },
    {
      "status": "0x1",
      "cumulativeGasUsed": "0x96d277",
      "logs": [
        {
          "address": "0x27ab1ef46295406d2190f7dbc4cdcfe6590ce076",
          "topics": [
            "0x238399d427b947898edb290f5ff0f9109849b1c3ba196a42e35f00c50a54b98b"
          ],
          "data": "0x0000000000000000000000000000000000000000000000000000000000009ce100000000000000000000000027ab1ef46295406d2190f7dbc4cdcfe6590ce076",
          "blockHash": "0x28093b70323f794cc288128b6f681bc8e3e961fc7c1ba74515143919c253d2a9",
          "blockNumber": "0x734868",
          "transactionHash": "0xfe5698eaf60120a81a43828d403bd98e11d1ec46eeeb98391267ede29c7eeede",
          "transactionIndex": "0x5b",
          "logIndex": "0x76",
          "removed": false
        }
      ],
      "logsBloom": "0x00000000000000000000000000000000000000000000000000000000000000000000000000000000000000000000000000000000000000000800000000000000000000000000000000000000000000000000000000000000020000000000000000000000000000000000000000000000000000000000000000000000000000000000000000000000000000000000000000000000000000000000000000000000000000000000000000000000000000000000004000000000000002000000000000000000400000000000000000000000000000000000000000040000000000000000000000000000000000000000000000000000000000000000000000000000",
      "type": "0x2",
      "transactionHash": "0xfe5698eaf60120a81a43828d403bd98e11d1ec46eeeb98391267ede29c7eeede",
      "transactionIndex": "0x5b",
      "blockHash": "0x28093b70323f794cc288128b6f681bc8e3e961fc7c1ba74515143919c253d2a9",
      "blockNumber": "0x734868",
      "gasUsed": "0x6cbd",
      "effectiveGasPrice": "0x7e35f3cdb",
      "from": "0x5f5c3548f96c7da33a18e5f2f2f13519e1c8bd0d",
      "to": "0x27ab1ef46295406d2190f7dbc4cdcfe6590ce076",
      "contractAddress": null
    },
    {
      "status": "0x1",
      "cumulativeGasUsed": "0x1b03020",
      "logs": [
        {
          "address": "0x27ab1ef46295406d2190f7dbc4cdcfe6590ce076",
          "topics": [
            "0x238399d427b947898edb290f5ff0f9109849b1c3ba196a42e35f00c50a54b98b"
          ],
          "data": "0x0000000000000000000000000000000000000000000000000000000000009d3500000000000000000000000027ab1ef46295406d2190f7dbc4cdcfe6590ce076",
          "blockHash": "0xb1ae84168bcb51633a14aafb266024e70b4ab8d7395f58805561708cb48b3dcd",
          "blockNumber": "0x73486a",
          "transactionHash": "0x716292459cd0fa4eddb4f4c922f834ae91504d578ef188773af9dd3815f3a06a",
          "transactionIndex": "0xce",
          "logIndex": "0x1db",
          "removed": false
        }
      ],
      "logsBloom": "0x00000000000000000000000000000000000000000000000000000000000000000000000000000000000000000000000000000000000000000800000000000000000000000000000000000000000000000000000000000000020000000000000000000000000000000000000000000000000000000000000000000000000000000000000000000000000000000000000000000000000000000000000000000000000000000000000000000000000000000000004000000000000002000000000000000000400000000000000000000000000000000000000000040000000000000000000000000000000000000000000000000000000000000000000000000000",
      "type": "0x2",
      "transactionHash": "0x716292459cd0fa4eddb4f4c922f834ae91504d578ef188773af9dd3815f3a06a",
      "transactionIndex": "0xce",
      "blockHash": "0xb1ae84168bcb51633a14aafb266024e70b4ab8d7395f58805561708cb48b3dcd",
      "blockNumber": "0x73486a",
      "gasUsed": "0x6cbd",
      "effectiveGasPrice": "0x6e1205414",
      "from": "0x5f5c3548f96c7da33a18e5f2f2f13519e1c8bd0d",
      "to": "0x27ab1ef46295406d2190f7dbc4cdcfe6590ce076",
      "contractAddress": null
    },
    {
      "status": "0x1",
      "cumulativeGasUsed": "0xf8af9f",
      "logs": [
        {
          "address": "0x27ab1ef46295406d2190f7dbc4cdcfe6590ce076",
          "topics": [
            "0x238399d427b947898edb290f5ff0f9109849b1c3ba196a42e35f00c50a54b98b"
          ],
          "data": "0x0000000000000000000000000000000000000000000000000000000000009ca600000000000000000000000027ab1ef46295406d2190f7dbc4cdcfe6590ce076",
          "blockHash": "0x731ecc77e6b68c801749f5a5665b80ea594d52c8e26c8650105c85ecdec8ae2a",
          "blockNumber": "0x73486b",
          "transactionHash": "0x3151fb4ed674afb3fc1b63679a813cbd14e5ce0f462396c56f22d261813329c6",
          "transactionIndex": "0x6a",
          "logIndex": "0x116",
          "removed": false
        }
      ],
      "logsBloom": "0x00000000000000000000000000000000000000000000000000000000000000000000000000000000000000000000000000000000000000000800000000000000000000000000000000000000000000000000000000000000020000000000000000000000000000000000000000000000000000000000000000000000000000000000000000000000000000000000000000000000000000000000000000000000000000000000000000000000000000000000004000000000000002000000000000000000400000000000000000000000000000000000000000040000000000000000000000000000000000000000000000000000000000000000000000000000",
      "type": "0x2",
      "transactionHash": "0x3151fb4ed674afb3fc1b63679a813cbd14e5ce0f462396c56f22d261813329c6",
      "transactionIndex": "0x6a",
      "blockHash": "0x731ecc77e6b68c801749f5a5665b80ea594d52c8e26c8650105c85ecdec8ae2a",
      "blockNumber": "0x73486b",
      "gasUsed": "0x6cbd",
      "effectiveGasPrice": "0x79d48603d",
      "from": "0x5f5c3548f96c7da33a18e5f2f2f13519e1c8bd0d",
      "to": "0x27ab1ef46295406d2190f7dbc4cdcfe6590ce076",
      "contractAddress": null
    },
    {
      "status": "0x1",
      "cumulativeGasUsed": "0xc59a82",
      "logs": [
        {
          "address": "0x27ab1ef46295406d2190f7dbc4cdcfe6590ce076",
          "topics": [
            "0x238399d427b947898edb290f5ff0f9109849b1c3ba196a42e35f00c50a54b98b"
          ],
          "data": "0x0000000000000000000000000000000000000000000000000000000000009ce100000000000000000000000027ab1ef46295406d2190f7dbc4cdcfe6590ce076",
          "blockHash": "0x27415d9e33bcf582546351f6c0f72dfb43f8fb2aae061651ab27f79f8f2a5a17",
          "blockNumber": "0x73486c",
          "transactionHash": "0x2568c95e1434f204df1b1a2178a73aa6fcc837969e81e86dca56a6be0a9393d8",
          "transactionIndex": "0x53",
          "logIndex": "0x91",
          "removed": false
        }
      ],
      "logsBloom": "0x00000000000000000000000000000000000000000000000000000000000000000000000000000000000000000000000000000000000000000800000000000000000000000000000000000000000000000000000000000000020000000000000000000000000000000000000000000000000000000000000000000000000000000000000000000000000000000000000000000000000000000000000000000000000000000000000000000000000000000000004000000000000002000000000000000000400000000000000000000000000000000000000000040000000000000000000000000000000000000000000000000000000000000000000000000000",
      "type": "0x2",
      "transactionHash": "0x2568c95e1434f204df1b1a2178a73aa6fcc837969e81e86dca56a6be0a9393d8",
      "transactionIndex": "0x53",
      "blockHash": "0x27415d9e33bcf582546351f6c0f72dfb43f8fb2aae061651ab27f79f8f2a5a17",
      "blockNumber": "0x73486c",
      "gasUsed": "0x6cbd",
      "effectiveGasPrice": "0x7d4e9b2e0",
      "from": "0x5f5c3548f96c7da33a18e5f2f2f13519e1c8bd0d",
      "to": "0x27ab1ef46295406d2190f7dbc4cdcfe6590ce076",
      "contractAddress": null
    },
    {
      "status": "0x1",
      "cumulativeGasUsed": "0x8fbd83",
      "logs": [
        {
          "address": "0x27ab1ef46295406d2190f7dbc4cdcfe6590ce076",
          "topics": [
            "0x238399d427b947898edb290f5ff0f9109849b1c3ba196a42e35f00c50a54b98b"
          ],
          "data": "0x0000000000000000000000000000000000000000000000000000000000009caa00000000000000000000000027ab1ef46295406d2190f7dbc4cdcfe6590ce076",
          "blockHash": "0xd4f9904b532ebf0c6a31d0bce888a1455ca858e752002963beac5a2dc49f17a6",
          "blockNumber": "0x73486d",
          "transactionHash": "0x7869fa7a8b080c35d12e263308e288db6b6b66ebfed336b1bb43a0ebef21d398",
          "transactionIndex": "0x66",
          "logIndex": "0x91",
          "removed": false
        }
      ],
      "logsBloom": "0x00000000000000000000000000000000000000000000000000000000000000000000000000000000000000000000000000000000000000000800000000000000000000000000000000000000000000000000000000000000020000000000000000000000000000000000000000000000000000000000000000000000000000000000000000000000000000000000000000000000000000000000000000000000000000000000000000000000000000000000004000000000000002000000000000000000400000000000000000000000000000000000000000040000000000000000000000000000000000000000000000000000000000000000000000000000",
      "type": "0x2",
      "transactionHash": "0x7869fa7a8b080c35d12e263308e288db6b6b66ebfed336b1bb43a0ebef21d398",
      "transactionIndex": "0x66",
      "blockHash": "0xd4f9904b532ebf0c6a31d0bce888a1455ca858e752002963beac5a2dc49f17a6",
      "blockNumber": "0x73486d",
      "gasUsed": "0x6cbd",
      "effectiveGasPrice": "0x7ba5b65e6",
      "from": "0x5f5c3548f96c7da33a18e5f2f2f13519e1c8bd0d",
      "to": "0x27ab1ef46295406d2190f7dbc4cdcfe6590ce076",
      "contractAddress": null
    },
    {
      "status": "0x1",
      "cumulativeGasUsed": "0x15a663e",
      "logs": [
        {
          "address": "0x27ab1ef46295406d2190f7dbc4cdcfe6590ce076",
          "topics": [
            "0x238399d427b947898edb290f5ff0f9109849b1c3ba196a42e35f00c50a54b98b"
          ],
          "data": "0x0000000000000000000000000000000000000000000000000000000000009ca600000000000000000000000027ab1ef46295406d2190f7dbc4cdcfe6590ce076",
          "blockHash": "0xe9eb2bf1c5bc3ef89495a7658e7a62ecbedc14d102a383fb86cf6544c36714ff",
          "blockNumber": "0x73486e",
          "transactionHash": "0x57a1f4e65ead1fce6b0c0b5cef5b25efce1743d681c0c840a81f330d50b4f311",
          "transactionIndex": "0x7a",
          "logIndex": "0x180",
          "removed": false
        }
      ],
      "logsBloom": "0x00000000000000000000000000000000000000000000000000000000000000000000000000000000000000000000000000000000000000000800000000000000000000000000000000000000000000000000000000000000020000000000000000000000000000000000000000000000000000000000000000000000000000000000000000000000000000000000000000000000000000000000000000000000000000000000000000000000000000000000004000000000000002000000000000000000400000000000000000000000000000000000000000040000000000000000000000000000000000000000000000000000000000000000000000000000",
      "type": "0x2",
      "transactionHash": "0x57a1f4e65ead1fce6b0c0b5cef5b25efce1743d681c0c840a81f330d50b4f311",
      "transactionIndex": "0x7a",
      "blockHash": "0xe9eb2bf1c5bc3ef89495a7658e7a62ecbedc14d102a383fb86cf6544c36714ff",
      "blockNumber": "0x73486e",
      "gasUsed": "0x6cbd",
      "effectiveGasPrice": "0x77d283666",
      "from": "0x5f5c3548f96c7da33a18e5f2f2f13519e1c8bd0d",
      "to": "0x27ab1ef46295406d2190f7dbc4cdcfe6590ce076",
      "contractAddress": null
    },
    {
      "status": "0x1",
      "cumulativeGasUsed": "0xa9c8fc",
      "logs": [
        {
          "address": "0x27ab1ef46295406d2190f7dbc4cdcfe6590ce076",
          "topics": [
            "0x238399d427b947898edb290f5ff0f9109849b1c3ba196a42e35f00c50a54b98b"
          ],
          "data": "0x0000000000000000000000000000000000000000000000000000000000009ce100000000000000000000000027ab1ef46295406d2190f7dbc4cdcfe6590ce076",
          "blockHash": "0x6afe971c97af8aa2a3aec62a66ec3a6124973aa6fbb7fc2b37f2311fa973561d",
          "blockNumber": "0x73486f",
          "transactionHash": "0x036c3b90984d339509783e7aa1866a18f519f5a2fea4b7721db72cfd76eb1686",
          "transactionIndex": "0x72",
          "logIndex": "0xcb",
          "removed": false
        }
      ],
      "logsBloom": "0x00000000000000000000000000000000000000000000000000000000000000000000000000000000000000000000000000000000000000000800000000000000000000000000000000000000000000000000000000000000020000000000000000000000000000000000000000000000000000000000000000000000000000000000000000000000000000000000000000000000000000000000000000000000000000000000000000000000000000000000004000000000000002000000000000000000400000000000000000000000000000000000000000040000000000000000000000000000000000000000000000000000000000000000000000000000",
      "type": "0x2",
      "transactionHash": "0x036c3b90984d339509783e7aa1866a18f519f5a2fea4b7721db72cfd76eb1686",
      "transactionIndex": "0x72",
      "blockHash": "0x6afe971c97af8aa2a3aec62a66ec3a6124973aa6fbb7fc2b37f2311fa973561d",
      "blockNumber": "0x73486f",
      "gasUsed": "0x6cbd",
      "effectiveGasPrice": "0x7e58ea413",
      "from": "0x5f5c3548f96c7da33a18e5f2f2f13519e1c8bd0d",
      "to": "0x27ab1ef46295406d2190f7dbc4cdcfe6590ce076",
      "contractAddress": null
    },
    {
      "status": "0x1",
      "cumulativeGasUsed": "0xf787a0",
      "logs": [
        {
          "address": "0x27ab1ef46295406d2190f7dbc4cdcfe6590ce076",
          "topics": [
            "0x238399d427b947898edb290f5ff0f9109849b1c3ba196a42e35f00c50a54b98b"
          ],
          "data": "0x0000000000000000000000000000000000000000000000000000000000009caa00000000000000000000000027ab1ef46295406d2190f7dbc4cdcfe6590ce076",
          "blockHash": "0x4cd62faafd2a061e32542beab6dd14f6a14aaf6f92b164abdb3fb10b982a0a9f",
          "blockNumber": "0x734870",
          "transactionHash": "0x26b4e2434b39a9dd70e8036b77698da02fa3e5c6bcfa84a497c094d44410ef27",
          "transactionIndex": "0x72",
          "logIndex": "0x106",
          "removed": false
        }
      ],
      "logsBloom": "0x00000000000000000000000000000000000000000000000000000000000000000000000000000000000000000000000000000000000000000800000000000000000000000000000000000000000000000000000000000000020000000000000000000000000000000000000000000000000000000000000000000000000000000000000000000000000000000000000000000000000000000000000000000000000000000000000000000000000000000000004000000000000002000000000000000000400000000000000000000000000000000000000000040000000000000000000000000000000000000000000000000000000000000000000000000000",
      "type": "0x2",
      "transactionHash": "0x26b4e2434b39a9dd70e8036b77698da02fa3e5c6bcfa84a497c094d44410ef27",
      "transactionIndex": "0x72",
      "blockHash": "0x4cd62faafd2a061e32542beab6dd14f6a14aaf6f92b164abdb3fb10b982a0a9f",
      "blockNumber": "0x734870",
      "gasUsed": "0x6cbd",
      "effectiveGasPrice": "0x7b370b933",
      "from": "0x5f5c3548f96c7da33a18e5f2f2f13519e1c8bd0d",
      "to": "0x27ab1ef46295406d2190f7dbc4cdcfe6590ce076",
      "contractAddress": null
    },
    {
      "status": "0x1",
      "cumulativeGasUsed": "0x848e2b",
      "logs": [
        {
          "address": "0x27ab1ef46295406d2190f7dbc4cdcfe6590ce076",
          "topics": [
            "0x238399d427b947898edb290f5ff0f9109849b1c3ba196a42e35f00c50a54b98b"
          ],
          "data": "0x0000000000000000000000000000000000000000000000000000000000009d3500000000000000000000000027ab1ef46295406d2190f7dbc4cdcfe6590ce076",
          "blockHash": "0xd51010b07d5a59ccce212bbc6e2fed1262b03d28c44746799da0e973943b87e3",
          "blockNumber": "0x734871",
          "transactionHash": "0x26cef114a1fb2c1791b7d895996034afe78c8f8596cef24173136ffc2dc18491",
          "transactionIndex": "0x58",
          "logIndex": "0x8c",
          "removed": false
        }
      ],
      "logsBloom": "0x00000000000000000000000000000000000000000000000000000000000000000000000000000000000000000000000000000000000000000800000000000000000000000000000000000000000000000000000000000000020000000000000000000000000000000000000000000000000000000000000000000000000000000000000000000000000000000000000000000000000000000000000000000000000000000000000000000000000000000000004000000000000002000000000000000000400000000000000000000000000000000000000000040000000000000000000000000000000000000000000000000000000000000000000000000000",
      "type": "0x2",
      "transactionHash": "0x26cef114a1fb2c1791b7d895996034afe78c8f8596cef24173136ffc2dc18491",
      "transactionIndex": "0x58",
      "blockHash": "0xd51010b07d5a59ccce212bbc6e2fed1262b03d28c44746799da0e973943b87e3",
      "blockNumber": "0x734871",
      "gasUsed": "0x6cbd",
      "effectiveGasPrice": "0x7e72c2597",
      "from": "0x5f5c3548f96c7da33a18e5f2f2f13519e1c8bd0d",
      "to": "0x27ab1ef46295406d2190f7dbc4cdcfe6590ce076",
      "contractAddress": null
    }
  ],
  "libraries": [],
  "pending": [],
  "returns": {},
  "timestamp": 1737650306,
  "chain": 11155111,
  "commit": "d42b421"
}