{
  "transactions": [
    {
      "hash": "0xca29e2a54cd094e5be82064bb599196c853a23d2f3eb90e24c72ebddcea3dd4e",
      "transactionType": "CALL",
      "contractName": null,
      "contractAddress": "0x354b7deb6f6aa08a683461d5a6451e22458b17ee",
      "function": "setPeer(uint32,bytes32)",
      "arguments": [
        "40245",
        "0x000000000000000000000000354b7deb6f6aa08a683461d5a6451e22458b17ee"
      ],
      "transaction": {
        "from": "0x5f5c3548f96c7da33a18e5f2f2f13519e1c8bd0d",
        "to": "0x354b7deb6f6aa08a683461d5a6451e22458b17ee",
        "gas": "0x9630",
        "value": "0x0",
        "input": "0x3400288b0000000000000000000000000000000000000000000000000000000000009d35000000000000000000000000354b7deb6f6aa08a683461d5a6451e22458b17ee",
        "nonce": "0x12b",
        "chainId": "0xaa36a7"
      },
      "additionalContracts": [],
      "isFixedGasLimit": false
    },
    {
      "hash": "0xb4b79a91878b4fbcda373c291ceaba78a367b73d703e342bf43f2c923ceb59d2",
      "transactionType": "CALL",
      "contractName": null,
      "contractAddress": "0x354b7deb6f6aa08a683461d5a6451e22458b17ee",
      "function": "setPeer(uint32,bytes32)",
      "arguments": [
        "40161",
        "0x000000000000000000000000354b7deb6f6aa08a683461d5a6451e22458b17ee"
      ],
      "transaction": {
        "from": "0x5f5c3548f96c7da33a18e5f2f2f13519e1c8bd0d",
        "to": "0x354b7deb6f6aa08a683461d5a6451e22458b17ee",
        "gas": "0x9630",
        "value": "0x0",
        "input": "0x3400288b0000000000000000000000000000000000000000000000000000000000009ce1000000000000000000000000354b7deb6f6aa08a683461d5a6451e22458b17ee",
        "nonce": "0x12c",
        "chainId": "0xaa36a7"
      },
      "additionalContracts": [],
      "isFixedGasLimit": false
    }
  ],
  "receipts": [
    {
      "status": "0x1",
      "cumulativeGasUsed": "0x18b3f1a",
      "logs": [
        {
          "address": "0x354b7deb6f6aa08a683461d5a6451e22458b17ee",
          "topics": [
            "0x238399d427b947898edb290f5ff0f9109849b1c3ba196a42e35f00c50a54b98b"
          ],
          "data": "0x0000000000000000000000000000000000000000000000000000000000009d35000000000000000000000000354b7deb6f6aa08a683461d5a6451e22458b17ee",
          "blockHash": "0x86494a14f963e21e1d3f7c3352cce15340a8ccdee85de195ec343c091210a98d",
          "blockNumber": "0x72a811",
          "transactionHash": "0xca29e2a54cd094e5be82064bb599196c853a23d2f3eb90e24c72ebddcea3dd4e",
          "transactionIndex": "0x7a",
          "logIndex": "0xc3",
          "removed": false
        }
      ],
      "logsBloom": "0x00000000000000000000000000000000000000000000000000000000000000000000000000000000000000000000000000000000000000000800000000000000000000000000000000000000000000000000000000000000000000000000000000000000000000000000000000000000000000000000000000000000000000000000000000000000000000000000000000000000000000000000000000000000000000000000000000004000000000000004000000000000000002000000000000000000000000000000000000000000008000000000000000040000000000000000000000000000000000000000000000000000000000000000000000000000",
      "type": "0x2",
      "transactionHash": "0xca29e2a54cd094e5be82064bb599196c853a23d2f3eb90e24c72ebddcea3dd4e",
      "transactionIndex": "0x7a",
      "blockHash": "0x86494a14f963e21e1d3f7c3352cce15340a8ccdee85de195ec343c091210a98d",
      "blockNumber": "0x72a811",
      "gasUsed": "0x6cbd",
      "effectiveGasPrice": "0x38a0f9d2",
      "from": "0x5f5c3548f96c7da33a18e5f2f2f13519e1c8bd0d",
      "to": "0x354b7deb6f6aa08a683461d5a6451e22458b17ee",
      "contractAddress": null
    },
    {
      "status": "0x1",
      "cumulativeGasUsed": "0x18babd7",
      "logs": [
        {
          "address": "0x354b7deb6f6aa08a683461d5a6451e22458b17ee",
          "topics": [
            "0x238399d427b947898edb290f5ff0f9109849b1c3ba196a42e35f00c50a54b98b"
          ],
          "data": "0x0000000000000000000000000000000000000000000000000000000000009ce1000000000000000000000000354b7deb6f6aa08a683461d5a6451e22458b17ee",
          "blockHash": "0x86494a14f963e21e1d3f7c3352cce15340a8ccdee85de195ec343c091210a98d",
          "blockNumber": "0x72a811",
          "transactionHash": "0xb4b79a91878b4fbcda373c291ceaba78a367b73d703e342bf43f2c923ceb59d2",
          "transactionIndex": "0x7b",
          "logIndex": "0xc4",
          "removed": false
        }
      ],
      "logsBloom": "0x00000000000000000000000000000000000000000000000000000000000000000000000000000000000000000000000000000000000000000800000000000000000000000000000000000000000000000000000000000000000000000000000000000000000000000000000000000000000000000000000000000000000000000000000000000000000000000000000000000000000000000000000000000000000000000000000000004000000000000004000000000000000002000000000000000000000000000000000000000000008000000000000000040000000000000000000000000000000000000000000000000000000000000000000000000000",
      "type": "0x2",
      "transactionHash": "0xb4b79a91878b4fbcda373c291ceaba78a367b73d703e342bf43f2c923ceb59d2",
      "transactionIndex": "0x7b",
      "blockHash": "0x86494a14f963e21e1d3f7c3352cce15340a8ccdee85de195ec343c091210a98d",
      "blockNumber": "0x72a811",
      "gasUsed": "0x6cbd",
      "effectiveGasPrice": "0x38a0f9d2",
      "from": "0x5f5c3548f96c7da33a18e5f2f2f13519e1c8bd0d",
      "to": "0x354b7deb6f6aa08a683461d5a6451e22458b17ee",
      "contractAddress": null
    }
  ],
  "libraries": [],
  "pending": [],
  "returns": {},
  "timestamp": 1737152715,
  "chain": 11155111,
  "commit": "95f2893"
}